{
	"_format": "hh-sol-artifact-1",
	"contractName": "Cscrow",
	"sourceName": "contracts/Cscrow.sol",
	"abi": [
		{
			"inputs": [],
			"stateMutability": "nonpayable",
			"type": "constructor"
		},
		{
			"anonymous": false,
			"inputs": [
				{
					"indexed": false,
					"internalType": "address",
					"name": "previousAdmin",
					"type": "address"
				},
				{
					"indexed": false,
					"internalType": "address",
					"name": "newAdmin",
					"type": "address"
				}
			],
			"name": "AdminChanged",
			"type": "event"
		},
		{
			"anonymous": false,
			"inputs": [
				{
					"indexed": true,
					"internalType": "address",
					"name": "beacon",
					"type": "address"
				}
			],
			"name": "BeaconUpgraded",
			"type": "event"
		},
		{
			"anonymous": false,
			"inputs": [
				{
					"indexed": true,
					"internalType": "uint256",
					"name": "id",
					"type": "uint256"
				},
				{
					"indexed": true,
					"internalType": "address",
					"name": "assignor",
					"type": "address"
				},
				{
					"indexed": true,
					"internalType": "address",
					"name": "assignee",
					"type": "address"
				}
			],
			"name": "ContractAccepted",
			"type": "event"
		},
		{
			"anonymous": false,
			"inputs": [
				{
					"indexed": true,
					"internalType": "uint256",
					"name": "id",
					"type": "uint256"
				},
				{
					"indexed": true,
					"internalType": "address",
					"name": "assignor",
					"type": "address"
				},
				{
					"indexed": true,
					"internalType": "address",
					"name": "assignee",
					"type": "address"
				}
			],
			"name": "ContractCancelled",
			"type": "event"
		},
		{
			"anonymous": false,
			"inputs": [
				{
					"indexed": true,
					"internalType": "uint256",
					"name": "id",
					"type": "uint256"
				},
				{
					"indexed": true,
					"internalType": "address",
					"name": "assignor",
					"type": "address"
				},
				{
					"indexed": true,
					"internalType": "address",
					"name": "assignee",
					"type": "address"
				}
			],
			"name": "ContractCompleted",
			"type": "event"
		},
		{
			"anonymous": false,
			"inputs": [
				{
					"indexed": true,
					"internalType": "uint256",
					"name": "id",
					"type": "uint256"
				},
				{
					"indexed": true,
					"internalType": "address",
					"name": "assignor",
					"type": "address"
				},
				{
					"indexed": true,
					"internalType": "address",
					"name": "assignee",
					"type": "address"
				}
			],
			"name": "ContractCreated",
			"type": "event"
		},
		{
			"anonymous": false,
			"inputs": [
				{
					"indexed": true,
					"internalType": "uint256",
					"name": "id",
					"type": "uint256"
				},
				{
					"indexed": true,
					"internalType": "address",
					"name": "assignor",
					"type": "address"
				},
				{
					"indexed": true,
					"internalType": "address",
					"name": "assignee",
					"type": "address"
				}
			],
			"name": "ContractEnded",
			"type": "event"
		},
		{
			"anonymous": false,
			"inputs": [
				{
					"indexed": true,
					"internalType": "uint256",
					"name": "id",
					"type": "uint256"
				},
				{
					"indexed": true,
					"internalType": "address",
					"name": "assignor",
					"type": "address"
				},
				{
					"indexed": true,
					"internalType": "address",
					"name": "assignee",
					"type": "address"
				}
			],
			"name": "DisputeCreated",
			"type": "event"
		},
		{
			"anonymous": false,
			"inputs": [
				{
					"indexed": false,
					"internalType": "uint8",
					"name": "version",
					"type": "uint8"
				}
			],
			"name": "Initialized",
			"type": "event"
		},
		{
			"anonymous": false,
			"inputs": [
				{
					"indexed": true,
					"internalType": "address",
					"name": "previousOwner",
					"type": "address"
				},
				{
					"indexed": true,
					"internalType": "address",
					"name": "newOwner",
					"type": "address"
				}
			],
			"name": "OwnershipTransferred",
			"type": "event"
		},
		{
			"anonymous": false,
			"inputs": [
				{
					"indexed": true,
					"internalType": "address",
					"name": "implementation",
					"type": "address"
				}
			],
			"name": "Upgraded",
			"type": "event"
		},
		{
			"inputs": [
				{
					"internalType": "uint256",
					"name": "_id",
					"type": "uint256"
				}
			],
			"name": "acceptContract",
			"outputs": [],
			"stateMutability": "nonpayable",
			"type": "function"
		},
		{
			"inputs": [
				{
					"internalType": "uint256",
					"name": "_disputeId",
					"type": "uint256"
				}
			],
			"name": "acceptDispute",
			"outputs": [],
			"stateMutability": "nonpayable",
			"type": "function"
		},
		{
			"inputs": [
				{
					"internalType": "address[]",
					"name": "_tokens",
					"type": "address[]"
				}
			],
			"name": "addEnableTokens",
			"outputs": [],
			"stateMutability": "nonpayable",
			"type": "function"
		},
		{
			"inputs": [
				{
					"internalType": "uint256",
					"name": "_disputeId",
					"type": "uint256"
				},
				{
					"internalType": "uint256",
					"name": "_amount",
					"type": "uint256"
				},
				{
					"internalType": "string",
					"name": "_details",
					"type": "string"
				},
				{
					"internalType": "string[]",
					"name": "_profs",
					"type": "string[]"
				}
			],
			"name": "addProofsForDisputeLevel2",
			"outputs": [],
			"stateMutability": "nonpayable",
			"type": "function"
		},
		{
			"inputs": [
				{
					"internalType": "uint256",
					"name": "_id",
					"type": "uint256"
				}
			],
			"name": "alreadyVoted",
			"outputs": [
				{
					"internalType": "bool",
					"name": "",
					"type": "bool"
				}
			],
			"stateMutability": "view",
			"type": "function"
		},
		{
			"inputs": [
				{
					"internalType": "uint256",
					"name": "_id",
					"type": "uint256"
				}
			],
			"name": "approveContract",
			"outputs": [],
			"stateMutability": "nonpayable",
			"type": "function"
		},
		{
			"inputs": [],
			"name": "commissionPercent",
			"outputs": [
				{
					"internalType": "uint256",
					"name": "",
					"type": "uint256"
				}
			],
			"stateMutability": "view",
			"type": "function"
		},
		{
			"inputs": [
				{
					"internalType": "address",
					"name": "",
					"type": "address"
				}
			],
			"name": "companyProfits",
			"outputs": [
				{
					"internalType": "uint256",
					"name": "",
					"type": "uint256"
				}
			],
			"stateMutability": "view",
			"type": "function"
		},
		{
			"inputs": [
				{
					"internalType": "address",
					"name": "_assignee",
					"type": "address"
				},
				{
					"internalType": "uint256",
					"name": "_amount",
					"type": "uint256"
				},
				{
					"internalType": "string",
					"name": "_details",
					"type": "string"
				},
				{
					"internalType": "string",
					"name": "_title",
					"type": "string"
				},
				{
					"internalType": "bool",
					"name": "_token",
					"type": "bool"
				},
				{
					"internalType": "address",
					"name": "_tokenAddress",
					"type": "address"
				}
			],
			"name": "createContract",
			"outputs": [],
			"stateMutability": "payable",
			"type": "function"
		},
		{
			"inputs": [
				{
					"internalType": "uint256",
					"name": "_id",
					"type": "uint256"
				},
				{
					"internalType": "uint256",
					"name": "_amount",
					"type": "uint256"
				},
				{
					"internalType": "string",
					"name": "_details",
					"type": "string"
				}
			],
			"name": "createDisputeLevel1",
			"outputs": [],
			"stateMutability": "nonpayable",
			"type": "function"
		},
		{
			"inputs": [
				{
					"internalType": "uint256",
					"name": "_disputeId",
					"type": "uint256"
				},
				{
					"internalType": "uint256",
					"name": "_amount",
					"type": "uint256"
				},
				{
					"internalType": "string",
					"name": "_details",
					"type": "string"
				},
				{
					"internalType": "string[]",
					"name": "_profs",
					"type": "string[]"
				}
			],
			"name": "createDisputeLevel2",
			"outputs": [],
			"stateMutability": "nonpayable",
			"type": "function"
		},
		{
			"inputs": [
				{
					"internalType": "uint256",
					"name": "",
					"type": "uint256"
				}
			],
			"name": "disputes",
			"outputs": [
				{
					"internalType": "uint256",
					"name": "escrowId",
					"type": "uint256"
				},
				{
					"internalType": "address",
					"name": "assignor",
					"type": "address"
				},
				{
					"internalType": "address",
					"name": "assignee",
					"type": "address"
				},
				{
					"internalType": "uint256",
					"name": "amountDisputedAssignee",
					"type": "uint256"
				},
				{
					"internalType": "uint256",
					"name": "amountDisputedAssignor",
					"type": "uint256"
				},
				{
					"internalType": "string",
					"name": "assignorDetails",
					"type": "string"
				},
				{
					"internalType": "string",
					"name": "assigneeDetails",
					"type": "string"
				},
				{
					"internalType": "uint256",
					"name": "validatorId",
					"type": "uint256"
				},
				{
					"internalType": "enum Structs.disputeLevel",
					"name": "disputeLevel",
					"type": "uint8"
				},
				{
					"internalType": "bool",
					"name": "assigneeCreatedDispute",
					"type": "bool"
				},
				{
					"internalType": "bool",
					"name": "validationStarted",
					"type": "bool"
				}
			],
			"stateMutability": "view",
			"type": "function"
		},
		{
			"inputs": [
				{
					"internalType": "address",
					"name": "",
					"type": "address"
				}
			],
			"name": "enabledTokens",
			"outputs": [
				{
					"internalType": "bool",
					"name": "",
					"type": "bool"
				}
			],
			"stateMutability": "view",
			"type": "function"
		},
		{
			"inputs": [
				{
					"internalType": "uint256",
					"name": "",
					"type": "uint256"
				}
			],
			"name": "escrows",
			"outputs": [
				{
					"internalType": "uint256",
					"name": "id",
					"type": "uint256"
				},
				{
					"internalType": "address",
					"name": "assignor",
					"type": "address"
				},
				{
					"internalType": "address",
					"name": "assignee",
					"type": "address"
				},
				{
					"internalType": "uint256",
					"name": "amount",
					"type": "uint256"
				},
				{
					"internalType": "string",
					"name": "details",
					"type": "string"
				},
				{
					"internalType": "string",
					"name": "title",
					"type": "string"
				},
				{
					"internalType": "enum Structs.ContractStatus",
					"name": "status",
					"type": "uint8"
				},
				{
					"internalType": "bool",
					"name": "token",
					"type": "bool"
				},
				{
					"internalType": "address",
					"name": "tokenAddress",
					"type": "address"
				}
			],
			"stateMutability": "view",
			"type": "function"
		},
		{
			"inputs": [
				{
					"internalType": "address",
					"name": "_address",
					"type": "address"
				}
			],
			"name": "getMyContracts",
			"outputs": [
				{
					"internalType": "uint256[]",
					"name": "",
					"type": "uint256[]"
				}
			],
			"stateMutability": "view",
			"type": "function"
		},
		{
			"inputs": [
				{
					"internalType": "address",
					"name": "_address",
					"type": "address"
				}
			],
			"name": "getPoints",
			"outputs": [
				{
					"internalType": "uint256",
					"name": "",
					"type": "uint256"
				}
			],
			"stateMutability": "view",
			"type": "function"
		},
		{
			"inputs": [
				{
					"internalType": "uint256",
					"name": "_diputeId",
					"type": "uint256"
				}
			],
			"name": "getProofs",
			"outputs": [
				{
					"internalType": "string[]",
					"name": "",
					"type": "string[]"
				},
				{
					"internalType": "string[]",
					"name": "",
					"type": "string[]"
				}
			],
			"stateMutability": "view",
			"type": "function"
		},
		{
			"inputs": [
				{
					"internalType": "address",
					"name": "_routerAddress",
					"type": "address"
				},
				{
					"internalType": "address",
					"name": "_usdtAddress",
					"type": "address"
				}
			],
			"name": "initialize",
			"outputs": [],
			"stateMutability": "nonpayable",
			"type": "function"
		},
		{
			"inputs": [
				{
					"internalType": "address",
					"name": "_token",
					"type": "address"
				}
			],
			"name": "isTokenEnabled",
			"outputs": [
				{
					"internalType": "bool",
					"name": "",
					"type": "bool"
				}
			],
			"stateMutability": "view",
			"type": "function"
		},
		{
			"inputs": [
				{
					"internalType": "address",
					"name": "",
					"type": "address"
				},
				{
					"internalType": "uint256",
					"name": "",
					"type": "uint256"
				}
			],
			"name": "myContracts",
			"outputs": [
				{
					"internalType": "uint256",
					"name": "",
					"type": "uint256"
				}
			],
			"stateMutability": "view",
			"type": "function"
		},
		{
			"inputs": [
				{
					"internalType": "uint256",
					"name": "_id",
					"type": "uint256"
				}
			],
			"name": "notAcceptContract",
			"outputs": [],
			"stateMutability": "nonpayable",
			"type": "function"
		},
		{
			"inputs": [],
			"name": "owner",
			"outputs": [
				{
					"internalType": "address",
					"name": "",
					"type": "address"
				}
			],
			"stateMutability": "view",
			"type": "function"
		},
		{
			"inputs": [
				{
					"internalType": "address",
					"name": "",
					"type": "address"
				}
			],
			"name": "points",
			"outputs": [
				{
					"internalType": "uint256",
					"name": "",
					"type": "uint256"
				}
			],
			"stateMutability": "view",
			"type": "function"
		},
		{
			"inputs": [],
			"name": "proxiableUUID",
			"outputs": [
				{
					"internalType": "bytes32",
					"name": "",
					"type": "bytes32"
				}
			],
			"stateMutability": "view",
			"type": "function"
		},
		{
			"inputs": [],
			"name": "renounceOwnership",
			"outputs": [],
			"stateMutability": "nonpayable",
			"type": "function"
		},
		{
			"inputs": [
				{
					"internalType": "uint256",
					"name": "_disputeId",
					"type": "uint256"
				}
			],
			"name": "resolveDispute",
			"outputs": [],
			"stateMutability": "nonpayable",
			"type": "function"
		},
		{
			"inputs": [],
			"name": "rewardPool",
			"outputs": [
				{
					"internalType": "address",
					"name": "",
					"type": "address"
				}
			],
			"stateMutability": "view",
			"type": "function"
		},
		{
			"inputs": [],
			"name": "totalDisputes",
			"outputs": [
				{
					"internalType": "uint256",
					"name": "",
					"type": "uint256"
				}
			],
			"stateMutability": "view",
			"type": "function"
		},
		{
			"inputs": [],
			"name": "totalEscrows",
			"outputs": [
				{
					"internalType": "uint256",
					"name": "",
					"type": "uint256"
				}
			],
			"stateMutability": "view",
			"type": "function"
		},
		{
			"inputs": [],
			"name": "totalValidators",
			"outputs": [
				{
					"internalType": "uint256",
					"name": "",
					"type": "uint256"
				}
			],
			"stateMutability": "view",
			"type": "function"
		},
		{
			"inputs": [
				{
					"internalType": "address",
					"name": "newOwner",
					"type": "address"
				}
			],
			"name": "transferOwnership",
			"outputs": [],
			"stateMutability": "nonpayable",
			"type": "function"
		},
		{
			"inputs": [],
			"name": "uniswapAddress",
			"outputs": [
				{
					"internalType": "address",
					"name": "",
					"type": "address"
				}
			],
			"stateMutability": "view",
			"type": "function"
		},
		{
			"inputs": [
				{
					"internalType": "uint256",
					"name": "_commissionPercent",
					"type": "uint256"
				}
			],
			"name": "updateCommissionPercent",
			"outputs": [],
			"stateMutability": "nonpayable",
			"type": "function"
		},
		{
			"inputs": [
				{
					"internalType": "address",
					"name": "_rewardPool",
					"type": "address"
				}
			],
			"name": "updateRewardPool",
			"outputs": [],
			"stateMutability": "nonpayable",
			"type": "function"
		},
		{
			"inputs": [
				{
					"internalType": "uint256",
					"name": "_validatorsPercent",
					"type": "uint256"
				}
			],
			"name": "updateValidatorPercent",
			"outputs": [],
			"stateMutability": "nonpayable",
			"type": "function"
		},
		{
			"inputs": [
				{
					"internalType": "address",
					"name": "newImplementation",
					"type": "address"
				}
			],
			"name": "upgradeTo",
			"outputs": [],
			"stateMutability": "nonpayable",
			"type": "function"
		},
		{
			"inputs": [
				{
					"internalType": "address",
					"name": "newImplementation",
					"type": "address"
				},
				{
					"internalType": "bytes",
					"name": "data",
					"type": "bytes"
				}
			],
			"name": "upgradeToAndCall",
			"outputs": [],
			"stateMutability": "payable",
			"type": "function"
		},
		{
			"inputs": [],
			"name": "usdtAddress",
			"outputs": [
				{
					"internalType": "address",
					"name": "",
					"type": "address"
				}
			],
			"stateMutability": "view",
			"type": "function"
		},
		{
			"inputs": [
				{
					"internalType": "uint256",
					"name": "_validateId",
					"type": "uint256"
				},
				{
					"internalType": "uint256",
					"name": "voteFor",
					"type": "uint256"
				}
			],
			"name": "validate",
			"outputs": [],
			"stateMutability": "nonpayable",
			"type": "function"
		},
		{
			"inputs": [
				{
					"internalType": "uint256",
					"name": "",
					"type": "uint256"
				}
			],
			"name": "validators",
			"outputs": [
				{
					"internalType": "uint256",
					"name": "disputeId",
					"type": "uint256"
				},
				{
					"internalType": "uint256",
					"name": "votesForAssignor",
					"type": "uint256"
				},
				{
					"internalType": "uint256",
					"name": "votesForAssignee",
					"type": "uint256"
				},
				{
					"internalType": "bool",
					"name": "assignorWon",
					"type": "bool"
				},
				{
					"internalType": "bool",
					"name": "assigneeWon",
					"type": "bool"
				},
				{
					"internalType": "bool",
					"name": "draw",
					"type": "bool"
				},
				{
					"internalType": "bool",
					"name": "nextChance",
					"type": "bool"
				},
				{
					"internalType": "uint256",
					"name": "validationCreateTime",
					"type": "uint256"
				}
			],
			"stateMutability": "view",
			"type": "function"
		},
		{
			"inputs": [],
			"name": "validatorsPercent",
			"outputs": [
				{
					"internalType": "uint256",
					"name": "",
					"type": "uint256"
				}
			],
			"stateMutability": "view",
			"type": "function"
		},
		{
			"inputs": [],
			"name": "withdrawCompleteCommissionNative",
			"outputs": [],
			"stateMutability": "nonpayable",
			"type": "function"
		},
		{
			"inputs": [
				{
					"internalType": "address",
					"name": "_token",
					"type": "address"
				}
			],
			"name": "withdrawCompleteCommissionToken",
			"outputs": [],
			"stateMutability": "nonpayable",
			"type": "function"
		},
		{
			"inputs": [
				{
					"internalType": "uint256",
					"name": "_id",
					"type": "uint256"
				}
			],
			"name": "withdrawContract",
			"outputs": [],
			"stateMutability": "nonpayable",
			"type": "function"
		}
	],
	"bytecode": "0x60a0604052306080523480156200001557600080fd5b506200002062000026565b620000e7565b600054610100900460ff1615620000935760405162461bcd60e51b815260206004820152602760248201527f496e697469616c697a61626c653a20636f6e747261637420697320696e697469604482015266616c697a696e6760c81b606482015260840160405180910390fd5b60005460ff90811614620000e5576000805460ff191660ff9081179091556040519081527f7f26b83ff96e1f2b6a682f133852f6798a09c465da95921460cefb38474024989060200160405180910390a15b565b608051614ca46200011f600039600081816114ad015281816114ed0152818161183c0152818161187c01526118f80152614ca46000f3fe6080604052600436106101f75760003560e01c8063012f52ee146101fc5780630773750d1461023a5780630935a1231461025c5780630e2feb051461027c57806319730b44146102aa5780631bbeaca1146102ca57806332039e01146102ea57806334f2a20b14610317578063358b81661461032a57806335aa2e44146103665780633659cfe6146104125780633ca3d81d1461043257806344aa409514610452578063485cc955146104725780634f1ef2861461049257806352d1902d146104a55780635452fb8a146104ba578063564a565d146104da5780635e3797971461051157806362c35c011461053157806363ee7c8d1461055157806366666aa914610567578063715018a614610588578063748538d91461059d57806377d3550b146105cd5780638da5cb5b146105e3578063930048bc146105f857806398a844b9146106265780639a115c04146106465780639ab4a44514610666578063b0191b8f14610687578063b1e7a1f0146106a7578063b451cecc146106c7578063c2b7b868146106f8578063c31e2c3114610718578063c5e4ccc414610746578063c6c6ebca1461075c578063c7ec4c1c1461077c578063c81b356b14610792578063d5fbac3a146107a8578063e2080b22146107c8578063ebb0977b146107e8578063ee204abb146107fd578063f2fde38b14610834575b600080fd5b34801561020857600080fd5b5061021c610217366004613fcf565b610854565b6040516102319998979695949392919061404e565b60405180910390f35b34801561024657600080fd5b5061025a6102553660046141b6565b6109ce565b005b34801561026857600080fd5b5061025a610277366004613fcf565b610bc1565b34801561028857600080fd5b506101025461029d906001600160a01b031681565b60405161023191906142a3565b3480156102b657600080fd5b5061025a6102c53660046142b7565b610c5f565b3480156102d657600080fd5b5061025a6102e5366004613fcf565b610f27565b3480156102f657600080fd5b5061030a6103053660046142f5565b610f34565b6040516102319190614310565b61025a610325366004614362565b610fa1565b34801561033657600080fd5b506103586103453660046142f5565b6101086020526000908152604090205481565b604051908152602001610231565b34801561037257600080fd5b506103d1610381366004613fcf565b610107602052600090815260409020805460028201546003830154600484015460059094015492939192909160ff8082169261010083048216926201000081048316926301000000909104169088565b60408051988952602089019790975295870194909452911515606086015215156080850152151560a0840152151560c083015260e082015261010001610231565b34801561041e57600080fd5b5061025a61042d3660046142f5565b6114a3565b34801561043e57600080fd5b5061025a61044d3660046141b6565b61156b565b34801561045e57600080fd5b5061035861046d366004614401565b611695565b34801561047e57600080fd5b5061025a61048d36600461442b565b6116c7565b61025a6104a036600461445e565b611832565b3480156104b157600080fd5b506103586118eb565b3480156104c657600080fd5b5061025a6104d53660046142f5565b611999565b3480156104e657600080fd5b506104fa6104f5366004613fcf565b6119e9565b6040516102319b9a999897969594939291906144bf565b34801561051d57600080fd5b5061025a61052c366004613fcf565b611b67565b34801561053d57600080fd5b5061025a61054c366004613fcf565b611b74565b34801561055d57600080fd5b5061035860fb5481565b34801561057357600080fd5b506101035461029d906001600160a01b031681565b34801561059457600080fd5b5061025a611d32565b3480156105a957600080fd5b506105bd6105b83660046142f5565b611d46565b6040519015158152602001610231565b3480156105d957600080fd5b5061035860fe5481565b3480156105ef57600080fd5b5061029d611d65565b34801561060457600080fd5b506103586106133660046142f5565b6101046020526000908152604090205481565b34801561063257600080fd5b5061025a610641366004613fcf565b611d74565b34801561065257600080fd5b5061025a610661366004613fcf565b611dce565b34801561067257600080fd5b506101015461029d906001600160a01b031681565b34801561069357600080fd5b5061025a6106a2366004613fcf565b611e50565b3480156106b357600080fd5b506105bd6106c2366004613fcf565b61215f565b3480156106d357600080fd5b506105bd6106e23660046142f5565b6101096020526000908152604090205460ff1681565b34801561070457600080fd5b5061025a610713366004613fcf565b6121e2565b34801561072457600080fd5b50610738610733366004613fcf565b6129fe565b6040516102319291906145b1565b34801561075257600080fd5b5061035860fc5481565b34801561076857600080fd5b5061025a6107773660046145df565b612bc8565b34801561078857600080fd5b5061035860ff5481565b34801561079e57600080fd5b5061035860fd5481565b3480156107b457600080fd5b5061025a6107c33660046142f5565b612c39565b3480156107d457600080fd5b5061025a6107e3366004614676565b612c64565b3480156107f457600080fd5b5061025a612fef565b34801561080957600080fd5b506103586108183660046142f5565b6001600160a01b03166000908152610108602052604090205490565b34801561084057600080fd5b5061025a61084f3660046142f5565b613040565b610105602052600090815260409020805460018201546002830154600384015460048501805494956001600160a01b039485169593909416939192610898906146c5565b80601f01602080910402602001604051908101604052809291908181526020018280546108c4906146c5565b80156109115780601f106108e657610100808354040283529160200191610911565b820191906000526020600020905b8154815290600101906020018083116108f457829003601f168201915b505050505090806005018054610926906146c5565b80601f0160208091040260200160405190810160405280929190818152602001828054610952906146c5565b801561099f5780601f106109745761010080835404028352916020019161099f565b820191906000526020600020905b81548152906001019060200180831161098257829003601f168201915b5050506006909301549192505060ff808216916101008104909116906001600160a01b03620100009091041689565b60fc548411156109f95760405162461bcd60e51b81526004016109f0906146ff565b60405180910390fd5b6000848152610106602052604090206001600882015460ff166001811115610a2357610a23614038565b14610a6e5760405162461bcd60e51b815260206004820152601b60248201527a13195d995b080c88191a5cdc1d5d19481b9bdd0818dc99585d1959602a1b60448201526064016109f0565b610a77856130b6565b8054610a8586868686613115565b610a908160056131fe565b60408051610120810182528781528151600080825260208083018552808401928352838501829052606084018290526080840182905260a0840182905260c0840182905260e084018290524261010085015260fd5482526101078152939020825181559051805192938493610b0b9260018501920190613e1d565b506040820151600282015560608201516003820155608082015160048201805460a085015160c086015160e087015161ffff1990931694151561ff0019169490941761010091151582021763ffff00001916620100009415159490940263ff0000001916939093176301000000911515919091021790559091015160059091015560fd805460019190600090610ba2908490614745565b909155505050600b909101805461ff0019166101001790555050505050565b610bca81613254565b610bd3816132b8565b610bde8160006131fe565b60008181526101056020526040902060068101805460ff191660041790556003810154600190910154610c1b9183916001600160a01b03166132f0565b60008181526101056020526040808220600281015460019091015491516001600160a01b039182169391909216918491600080516020614c4f83398151915291a450565b60fd54821115610c975760405162461bcd60e51b8152602060048201526003602482015262564e4560e81b60448201526064016109f0565b60fc54600083815261010760205260409020541115610cc85760405162461bcd60e51b81526004016109f090614758565b610cd18261215f565b15610d0e5760405162461bcd60e51b815260206004820152600d60248201526c105b1c9958591e481d9bdd1959609a1b60448201526064016109f0565b600082815261010760205260409020600401546301000000900460ff161515600103610d705760405162461bcd60e51b8152602060048201526011602482015270446f6e652057696e6e696e6720566f746560781b60448201526064016109f0565b60008281526101076020526040812060050154610d909062015180614745565b905060004282108015610dad575042610dab8361a8c0614745565b115b600085815261010760205260409020600381015460029091015491925014818015610dd55750805b15610e0257600085815261010760205260409020600401805463ff00000019166301000000179055610e61565b600085815261010760205260409020600501544290610e249062015180614745565b1015610e615760405162461bcd60e51b815260206004820152600c60248201526b151a5b5948195e1c1a5c995960a21b60448201526064016109f0565b83600003610e9757600085815261010760205260408120600201805460019290610e8c908490614745565b90915550610ec89050565b83600103610ec857600085815261010760205260408120600301805460019290610ec2908490614745565b90915550505b6000858152610107602090815260408083206001908101805480830182559085528385200180546001600160a01b0319163390811790915584526101089092528220805491929091610f1b908490614745565b90915550505050505050565b610f2f613347565b60ff55565b6001600160a01b038116600090815261010a6020908152604091829020805483518184028101840190945280845260609392830182828015610f9557602002820191906000526020600020905b815481526020019060010190808311610f81575b50505050509050919050565b610fa96133a6565b6001600160a01b038616610ff15760405162461bcd60e51b815260206004820152600f60248201526e496e76616c6964206164647265737360881b60448201526064016109f0565b6000851161102e5760405162461bcd60e51b815260206004820152600a6024820152690416d6f756e74203c20360b41b60448201526064016109f0565b600082156112585761103f82611d46565b61107f5760405162461bcd60e51b8152602060048201526011602482015270151bdad95b881b9bdd08195b98589b1959607a1b60448201526064016109f0565b604051636eb1769f60e11b8152336004820152306024820152829087906001600160a01b0383169063dd62ed3e90604401602060405180830381865afa1580156110cd573d6000803e3d6000fd5b505050506040513d601f19601f820116820180604052508101906110f19190614775565b101561112f5760405162461bcd60e51b815260206004820152600d60248201526c6c6f7720616c6c6f77616e636560981b60448201526064016109f0565b6040516370a0823160e01b815287906001600160a01b038316906370a082319061115d9033906004016142a3565b602060405180830381865afa15801561117a573d6000803e3d6000fd5b505050506040513d601f19601f8201168201806040525081019061119e9190614775565b10156111da5760405162461bcd60e51b815260206004820152600b60248201526a6c6f772062616c616e636560a81b60448201526064016109f0565b6040516323b872dd60e01b8152336004820152306024820152604481018890526001600160a01b038216906323b872dd906064016020604051808303816000875af115801561122d573d6000803e3d6000fd5b505050506040513d601f19601f82011682018060405250810190611251919061478e565b5050611294565b853410156112945760405162461bcd60e51b81526020600482015260096024820152686c6f772066756e647360b81b60448201526064016109f0565b600060405180610120016040528060fb548152602001336001600160a01b03168152602001896001600160a01b031681526020018881526020018781526020018681526020018360078111156112ec576112ec614038565b81528515156020808301919091526001600160a01b0386811660409384015260fb546000908152610105835283902084518155918401516001830180546001600160a01b0319908116928416929092179055928401516002830180549094169116179091556060820151600382015560808201519192508291600482019061137490826147f8565b5060a0820151600582019061138990826147f8565b5060c082015160068201805460ff191660018360078111156113ad576113ad614038565b021790555060e0820151600691909101805461010093840151610100600160b01b031990911692151590930262010000600160b01b03191691909117620100006001600160a01b039384160217905533600090815261010a6020908152604080832060fb80548254600181810185559387528587200155948d1684529083208454815480840183559185529284200191909155825490929190611451908490614745565b909155505060fb546040516001600160a01b038a169133917f56560a52c047ed21fd801bf0f345b23d9af696f7922ff8e63101af5d48caddab90600090a4505061149b600160c955565b505050505050565b6001600160a01b037f00000000000000000000000000000000000000000000000000000000000000001630036114eb5760405162461bcd60e51b81526004016109f0906148b7565b7f00000000000000000000000000000000000000000000000000000000000000006001600160a01b031661151d6133ff565b6001600160a01b0316146115435760405162461bcd60e51b81526004016109f0906148f1565b61154c8161341b565b6040805160008082526020820190925261156891839190613423565b50565b60fc5484111561158d5760405162461bcd60e51b81526004016109f0906146ff565b60008481526101066020526040812090600882015460ff1660018111156115b6576115b6614038565b146116015760405162461bcd60e51b815260206004820152601b60248201527a13195d995b080c48191a5cdc1d5d19481b9bdd0818dc99585d1959602a1b60448201526064016109f0565b600b81015460ff168015611621575060018101546001600160a01b031633145b806116485750600b81015460ff16158015611648575060028101546001600160a01b031633145b6116645760405162461bcd60e51b81526004016109f09061492b565b61166d856130b6565b805461167a8160056131fe565b60088201805460ff1916600117905561149b86868686613115565b61010a60205281600052604060002081815481106116b257600080fd5b90600052602060002001600091509150505481565b600054610100900460ff16158080156116e75750600054600160ff909116105b8061170857506116f63061358e565b158015611708575060005460ff166001145b61176b5760405162461bcd60e51b815260206004820152602e60248201527f496e697469616c697a61626c653a20636f6e747261637420697320616c72656160448201526d191e481a5b9a5d1a585b1a5e995960921b60648201526084016109f0565b6000805460ff19166001179055801561178e576000805461ff0019166101001790555b61179661359d565b61179e6135cc565b61010080546001600160a01b03199081166001600160a01b038681169182179093556101028054831690911790556101018054909116918416919091179055600260fe55600a60ff55801561182d576000805461ff0019169055604051600181527f7f26b83ff96e1f2b6a682f133852f6798a09c465da95921460cefb38474024989060200160405180910390a15b505050565b6001600160a01b037f000000000000000000000000000000000000000000000000000000000000000016300361187a5760405162461bcd60e51b81526004016109f0906148b7565b7f00000000000000000000000000000000000000000000000000000000000000006001600160a01b03166118ac6133ff565b6001600160a01b0316146118d25760405162461bcd60e51b81526004016109f0906148f1565b6118db8261341b565b6118e782826001613423565b5050565b6000306001600160a01b037f000000000000000000000000000000000000000000000000000000000000000016146119865760405162461bcd60e51b815260206004820152603860248201527f555550535570677261646561626c653a206d757374206e6f742062652063616c6044820152771b1959081d1a1c9bdd59da0819195b1959d85d1958d85b1b60421b60648201526084016109f0565b50600080516020614c0883398151915290565b6119a1613347565b6001600160a01b038116600090815261010460205260409020546119cd826119c7611d65565b836135f3565b506001600160a01b031660009081526101046020526040812055565b6101066020526000908152604090208054600182015460028301546003840154600485015460058601805495966001600160a01b0395861696959094169492939192611a34906146c5565b80601f0160208091040260200160405190810160405280929190818152602001828054611a60906146c5565b8015611aad5780601f10611a8257610100808354040283529160200191611aad565b820191906000526020600020905b815481529060010190602001808311611a9057829003601f168201915b505050505090806006018054611ac2906146c5565b80601f0160208091040260200160405190810160405280929190818152602001828054611aee906146c5565b8015611b3b5780601f10611b1057610100808354040283529160200191611b3b565b820191906000526020600020905b815481529060010190602001808311611b1e57829003601f168201915b50505060078401546008850154600b909501549394909360ff918216935080821692506101009004168b565b611b6f613347565b60fe55565b611b7d816136f9565b611b86816132b8565b611b918160016131fe565b600081815261010560205260408120600381015460fe5491929091606490611bb99084614953565b611bc3919061496a565b90506000611bd1828461498c565b6006850154909150600090610100900460ff16611bef576000611c04565b60068501546201000090046001600160a01b03165b6001600160a01b03811660009081526101046020526040812080549293508592909190611c32908490614745565b90915550506006850154610100900460ff1615611c9f576001600160a01b03811660009081526101046020526040902054611c6e90829061375d565b600086815261010560209081526040808320600601546201000090046001600160a01b031683526101049091528120555b60008681526101056020526040902060020154611cc890879084906001600160a01b03166132f0565b6000868152610105602052604080822060068101805460ff19166003179055600281015460019091015491516001600160a01b0391821693919092169189917f94e224b06102dbac09bbe25b9727b78a711606f76142988ac62cec156098062791a4505050505050565b611d3a613347565b611d4460006139ca565b565b6001600160a01b03166000908152610109602052604090205460ff1690565b6033546001600160a01b031690565b611d7d816136f9565b611d86816132b8565b611d918160006131fe565b60008181526101056020526040902060068101805460ff1916600717905560038101546001909101546115689183916001600160a01b03166132f0565b611dd781613254565b611de0816132b8565b611deb8160006131fe565b6000818152610105602052604080822060068101805460ff19166001908117909155600282015491015491516001600160a01b0391821693919092169184917f4e5adb6e5811e4671a3b0bdaceb025ec957432fc5562c7caefc0442dd9270ff291a450565b6000818152610106602090815260408083208054845261010590925282209091600883015460ff166001811115611e8957611e89614038565b14611ecc5760405162461bcd60e51b8152602060048201526013602482015272111a5cdc1d5d19481b9bdd0818dc99585d1959606a1b60448201526064016109f0565b611ed5836130b6565b8154611ee0906132b8565b8154611eed9060056131fe565b600b82015460009060ff16611f0f5760028301546001600160a01b0316611f1e565b60018301546001600160a01b03165b9050336001600160a01b03821614611f485760405162461bcd60e51b81526004016109f09061492b565b600382015460fe54600090606490611f609084614953565b611f6a919061496a565b90506000611f78828461498c565b600287015490915060009081906001600160a01b03163303611fb7576064886004015484611fa69190614953565b611fb0919061496a565b9150611fea565b60018801546001600160a01b03163303611fea576064886003015484611fdd9190614953565b611fe7919061496a565b91505b611ff4828461498c565b9050612005886000015482336132f0565b811561204f57600b88015460009060ff1661202d5760018801546001600160a01b031661203c565b60028801546001600160a01b03165b905061204d896000015484836132f0565b505b6006870154600090610100900460ff1661206a57600061207f565b60068801546201000090046001600160a01b03165b6006890154909150610100900460ff16156120e2576001600160a01b038116600090815261010460205260409020546120b990829061375d565b60068801546201000090046001600160a01b031660009081526101046020526040812055612111565b6001600160a01b038116600090815261010460205260408120805487929061210b908490614745565b90915550505b60068801805460ff19166007179055600288015460018901548a546040516001600160a01b039384169390921691600080516020614c4f83398151915290600090a450505050505050505050565b6000805b600083815261010760205260409020600101548110156121d9576000838152610107602052604090206001018054339190839081106121a4576121a461499f565b6000918252602090912001546001600160a01b0316036121c75750600192915050565b806121d1816149b5565b915050612163565b50600092915050565b6121ea613347565b60fc5481111561220c5760405162461bcd60e51b81526004016109f090614758565b600081815261010660209081526040808320600781015490548085526101059093529083206003015460fe54919390916064906122499084614953565b612253919061496a565b90506000606460ff54846122679190614953565b612271919061496a565b9050600061227f8284614745565b612289908561498c565b9050600061229860028361496a565b6000888152610107602052604090206005015490915042906122bd9062015180614745565b11156122db5760405162461bcd60e51b81526004016109f0906149ce565b6000878152610107602052604090206003810154600290910154036123635760008781526101076020526040902060050154429061231c906201fa40614745565b1115806123475750600087815261010760205260409020600401546301000000900460ff1615156001145b6123635760405162461bcd60e51b81526004016109f0906149ce565b60008881526101066020908152604080832060018101546002918201548c86526101079094529190932060038101549301546001600160a01b03918216939190921691036126615760008881526101056020526040902060060154610100900460ff161561248057600088815261010560209081526040808320600601546201000090046001600160a01b031683526101049091528120805488929061240a908490614745565b9091555050600088815261010560209081526040808320600601546201000090046001600160a01b03168084526101049092529091205461244b919061375d565b600088815261010560209081526040808320600601546201000090046001600160a01b0316835261010490915281205561254e565b6000808052610104602052600080516020614bc883398151915280548892906124aa908490614745565b909155505060008981526101076020526040902060010154600a111561254e5760008981526101076020526040812060010154600a906124ea908261498c565b6124f49088614953565b6124fe919061496a565b60008052610104602052600080516020614bc883398151915254909150612526908290614745565b60008052610104602052600080516020614bc88339815191525561254a818761498c565b9550505b600089815261010760209081526040808320600401805462ff00001916620100001790558c835261010690915290206001015461259790899085906001600160a01b03166132f0565b60008a815261010660205260409020600201546125c090899085906001600160a01b03166132f0565b60008981526101076020908152604091829020600101805483518184028101840190945280845261265c939283018282801561262557602002820191906000526020600020905b81546001600160a01b03168152600190910190602001808311612607575b50505060008c81526101056020526040902060060154899250610100810460ff1691506201000090046001600160a01b0316613a1c565b6129d6565b600089815261010760205260409020600381015460029091015411156127015760008a815261010660205260408120600401546064906126a19087614953565b6126ab919061496a565b60008b815261010760205260409020600401805460ff1916600117905590506126d58982846132f0565b60006126e1828761498c565b11156126fb576126fb896126f5838861498c565b856132f0565b50612799565b600089815261010760205260409020600381015460029091015410156127995760008a815261010660205260408120600301546064906127419087614953565b61274b919061496a565b60008b815261010760205260409020600401805461ff00191661010017905590506127778982846132f0565b6000612783828761498c565b111561279757612797896126f5838861498c565b505b60008881526101056020526040902060060154610100900460ff161561286e57600088815261010560209081526040808320600601546201000090046001600160a01b03168352610104909152812080548892906127f8908490614745565b9091555050600088815261010560209081526040808320600601546201000090046001600160a01b031680845261010490925290912054612839919061375d565b600088815261010560209081526040808320600601546201000090046001600160a01b0316835261010490915281205561293c565b6000808052610104602052600080516020614bc88339815191528054889290612898908490614745565b909155505060008981526101076020526040902060010154600a111561293c5760008981526101076020526040812060010154600a906128d8908261498c565b6128e29088614953565b6128ec919061496a565b60008052610104602052600080516020614bc883398151915254909150612914908290614745565b60008052610104602052600080516020614bc883398151915255612938818761498c565b9550505b6000898152610107602090815260409182902060010180548351818402810184019094528084526129d69392830182828015612625576020028201919060005260206000209081546001600160a01b031681526001909101906020018083116126075750505060008c81526101056020526040902060060154899250610100810460ff1691506201000090046001600160a01b0316613a1c565b50505060009485525050610105602052505060409020600601805460ff191660071790555050565b60008181526101066020908152604080832060098101805483518186028101860190945280845260609586959294600a90940193928592919084015b82821015612ae6578382906000526020600020018054612a59906146c5565b80601f0160208091040260200160405190810160405280929190818152602001828054612a85906146c5565b8015612ad25780601f10612aa757610100808354040283529160200191612ad2565b820191906000526020600020905b815481529060010190602001808311612ab557829003601f168201915b505050505081526020019060010190612a3a565b50505050915080805480602002602001604051908101604052809291908181526020016000905b82821015612bb9578382906000526020600020018054612b2c906146c5565b80601f0160208091040260200160405190810160405280929190818152602001828054612b58906146c5565b8015612ba55780601f10612b7a57610100808354040283529160200191612ba5565b820191906000526020600020905b815481529060010190602001808311612b8857829003601f168201915b505050505081526020019060010190612b0d565b50505050905091509150915091565b612bd0613347565b60005b81518110156118e75760016101096000848481518110612bf557612bf561499f565b6020908102919091018101516001600160a01b03168252810191909152604001600020805460ff191691151591909117905580612c31816149b5565b915050612bd3565b612c41613347565b61010380546001600160a01b0319166001600160a01b0392909216919091179055565b600083815261010560205260409020600201546001600160a01b0316331480612ca75750600083815261010560205260409020600101546001600160a01b031633145b612cc35760405162461bcd60e51b81526004016109f09061492b565b612ccc836132b8565b60016000848152610105602052604090206006015460ff166007811115612cf557612cf5614038565b14612d125760405162461bcd60e51b81526004016109f0906149f6565b600083815261010560205260409020600601805460ff19166005179055606080612d3a613e82565b600086815261010560205260409020600201546001600160a01b03163303612dfc57604080516101a0810182528781526000888152610105602081815284832060018101546001600160a01b03908116838701528c855292825260020154909116838501526060830189905260808301829052835190810190935280835260a082019290925260c0810186905260fd5460e082015290610100820190815260208101849052604081018590526001606082015260006080909101529050612e9a565b50604080516101a0810182528681526000878152610105602081815284832060018101546001600160a01b03908116838701528b85529282526002015490911683850152606083018290526080830188905260a08301879052835190810190935280835260c082019290925260fd5460e082015261010081018290526101208101839052610140810184905261016081018290526101808101919091525b60fc546000908152610106602090815260409182902083518155908301516001820180546001600160a01b03199081166001600160a01b039384161790915592840151600283018054909416911617909155606082015160038201556080820151600482015560a08201518291906005820190612f1790826147f8565b5060c08201516006820190612f2c90826147f8565b5060e0820151600782015561010082015160088201805460ff191660018381811115612f5a57612f5a614038565b02179055506101208201518051612f7b916009840191602090910190613f11565b506101408201518051612f9891600a840191602090910190613f11565b50610160820151600b90910180546101809093015115156101000261ff00199215159290921661ffff199093169290921717905560fc805460019190600090612fe2908490614745565b9091555050505050505050565b612ff7613347565b60008052610104602052600080516020614bc88339815191525461302261301c611d65565b82613ad7565b506000808052610104602052600080516020614bc883398151915255565b613048613347565b6001600160a01b0381166130ad5760405162461bcd60e51b815260206004820152602660248201527f4f776e61626c653a206e6577206f776e657220697320746865207a65726f206160448201526564647265737360d01b60648201526084016109f0565b611568816139ca565b600081815261010660205260409020600201546001600160a01b03163314806130f95750600081815261010660205260409020600101546001600160a01b031633145b6115685760405162461bcd60e51b81526004016109f09061492b565b61311e846130b6565b600084815261010660205260409020600201546001600160a01b0316330361319e57600084815261010660209081526040909120825161316692600a90920191840190613f11565b5060008481526101066020526040902060060161318383826147f8565b506000848152610106602052604090206003018390556131f8565b60008481526101066020908152604090912082516131c492600990920191840190613f11565b506000848152610106602052604090206005016131e183826147f8565b506000848152610106602052604090206004018390555b50505050565b80600781111561321057613210614038565b6000838152610105602052604090206006015460ff16600781111561323757613237614038565b146118e75760405162461bcd60e51b81526004016109f0906149f6565b600081815261010560205260409020600201546001600160a01b031633146115685760405162461bcd60e51b81526020600482015260176024820152766e6f7420617574686f72697a65642041737369676e656560481b60448201526064016109f0565b60fb548111156115685760405162461bcd60e51b8152602060048201526003602482015262434e4560e81b60448201526064016109f0565b60008381526101056020526040902060060154610100900460ff161561333d576000838152610105602052604090206006015461182d906201000090046001600160a01b031682846135f3565b61182d8183613ad7565b33613350611d65565b6001600160a01b031614611d445760405162461bcd60e51b815260206004820181905260248201527f4f776e61626c653a2063616c6c6572206973206e6f7420746865206f776e657260448201526064016109f0565b600260c954036133f85760405162461bcd60e51b815260206004820152601f60248201527f5265656e7472616e637947756172643a207265656e7472616e742063616c6c0060448201526064016109f0565b600260c955565b600080516020614c08833981519152546001600160a01b031690565b611568613347565b7f4910fdfa16fed3260ed0e7147f7cc6da11a60208b5b9406d12a635614ffd91435460ff16156134565761182d83613b9f565b826001600160a01b03166352d1902d6040518163ffffffff1660e01b8152600401602060405180830381865afa9250505080156134b0575060408051601f3d908101601f191682019092526134ad91810190614775565b60015b6135135760405162461bcd60e51b815260206004820152602e60248201527f45524331393637557067726164653a206e657720696d706c656d656e7461746960448201526d6f6e206973206e6f74205555505360901b60648201526084016109f0565b600080516020614c0883398151915281146135825760405162461bcd60e51b815260206004820152602960248201527f45524331393637557067726164653a20756e737570706f727465642070726f786044820152681a58589b195555525160ba1b60648201526084016109f0565b5061182d838383613c39565b6001600160a01b03163b151590565b600054610100900460ff166135c45760405162461bcd60e51b81526004016109f090614a1c565b611d44613c5e565b600054610100900460ff16611d445760405162461bcd60e51b81526004016109f090614a1c565b6040516370a0823160e01b815283906001600160a01b038216906370a08231906136219030906004016142a3565b602060405180830381865afa15801561363e573d6000803e3d6000fd5b505050506040513d601f19601f820116820180604052508101906136629190614775565b8211156136815760405162461bcd60e51b81526004016109f090614a67565b60405163a9059cbb60e01b81526001600160a01b0382169063a9059cbb906136af9086908690600401614a89565b6020604051808303816000875af11580156136ce573d6000803e3d6000fd5b505050506040513d601f19601f820116820180604052508101906136f2919061478e565b5050505050565b600081815261010560205260409020600101546001600160a01b031633146115685760405162461bcd60e51b81526020600482015260176024820152763737ba1030baba3437b934bd32b21020b9b9b4b3b732b960491b60448201526064016109f0565b6001600160a01b0382166137ab5760405162461bcd60e51b8152602060048201526015602482015274496e76616c696420746f6b656e206164647265737360581b60448201526064016109f0565b6101015482906001600160a01b039081169082160361383c576101035460405163a9059cbb60e01b81526001600160a01b038381169263a9059cbb926137f992909116908690600401614a89565b6020604051808303816000875af1158015613818573d6000803e3d6000fd5b505050506040513d601f19601f820116820180604052508101906131f8919061478e565b6101005460405163095ea7b360e01b81526001600160a01b038381169263095ea7b39261387192909116908690600401614a89565b6020604051808303816000875af1158015613890573d6000803e3d6000fd5b505050506040513d601f19601f820116820180604052508101906138b4919061478e565b5060408051600280825260608201835260009260208301908036833701905050905083816000815181106138ea576138ea61499f565b6001600160a01b0392831660209182029290920101526101015482519116908290600190811061391c5761391c61499f565b6001600160a01b0390921660209283029190910190910152600061394242610258614745565b61010054610103546040516338ed173960e01b81529293506001600160a01b03918216926338ed173992613983928992600092899216908890600401614aa2565b6000604051808303816000875af11580156139a2573d6000803e3d6000fd5b505050506040513d6000823e601f3d908101601f1916820160405261149b9190810190614b13565b603380546001600160a01b038381166001600160a01b0319831681179093556040519116919082907f8be0079c531659141344cd1fd0a4f28419497f9722a3daafe3b4186f6b6457e090600090a35050565b6000600a855110613a2e57600a613a31565b84515b90506000613a3f828661496a565b90508315613a8e5760005b82811015613a8857613a7684888381518110613a6857613a6861499f565b6020026020010151846135f3565b80613a80816149b5565b915050613a4a565b5061149b565b60005b82811015613ace57613abc878281518110613aae57613aae61499f565b602002602001015183613ad7565b80613ac6816149b5565b915050613a91565b50505050505050565b613adf6133a6565b47811115613aff5760405162461bcd60e51b81526004016109f090614a67565b6000826001600160a01b03168260405160006040518083038185875af1925050503d8060008114613b4c576040519150601f19603f3d011682016040523d82523d6000602084013e613b51565b606091505b5050905080613b945760405162461bcd60e51b815260206004820152600f60248201526e105b5bdd5b9d081b9bdd081cd95b9d608a1b60448201526064016109f0565b506118e7600160c955565b613ba88161358e565b613c0a5760405162461bcd60e51b815260206004820152602d60248201527f455243313936373a206e657720696d706c656d656e746174696f6e206973206e60448201526c1bdd08184818dbdb9d1c9858dd609a1b60648201526084016109f0565b600080516020614c0883398151915280546001600160a01b0319166001600160a01b0392909216919091179055565b613c4283613c8e565b600082511180613c4f5750805b1561182d576131f88383613cce565b600054610100900460ff16613c855760405162461bcd60e51b81526004016109f090614a1c565b611d44336139ca565b613c9781613b9f565b6040516001600160a01b038216907fbc7cd75a20ee27fd9adebab32041f755214dbc6bffa90cc0225b39da2e5c2d3b90600090a250565b6060613cf38383604051806060016040528060278152602001614c2860279139613cfc565b90505b92915050565b6060600080856001600160a01b031685604051613d199190614b98565b600060405180830381855af49150503d8060008114613d54576040519150601f19603f3d011682016040523d82523d6000602084013e613d59565b606091505b5091509150613d6a86838387613d74565b9695505050505050565b60608315613de1578251600003613dda57613d8e8561358e565b613dda5760405162461bcd60e51b815260206004820152601d60248201527f416464726573733a2063616c6c20746f206e6f6e2d636f6e747261637400000060448201526064016109f0565b5081613deb565b613deb8383613df3565b949350505050565b815115613e035781518083602001fd5b8060405162461bcd60e51b81526004016109f09190614bb4565b828054828255906000526020600020908101928215613e72579160200282015b82811115613e7257825182546001600160a01b0319166001600160a01b03909116178255602090920191600190910190613e3d565b50613e7e929150613f63565b5090565b604051806101a001604052806000815260200160006001600160a01b0316815260200160006001600160a01b03168152602001600081526020016000815260200160608152602001606081526020016000815260200160006001811115613eeb57613eeb614038565b815260200160608152602001606081526020016000151581526020016000151581525090565b828054828255906000526020600020908101928215613f57579160200282015b82811115613f575782518290613f4790826147f8565b5091602001919060010190613f31565b50613e7e929150613f78565b5b80821115613e7e5760008155600101613f64565b80821115613e7e576000613f8c8282613f95565b50600101613f78565b508054613fa1906146c5565b6000825580601f10613fb1575050565b601f0160209004906000526020600020908101906115689190613f63565b600060208284031215613fe157600080fd5b5035919050565b60005b83811015614003578181015183820152602001613feb565b50506000910152565b60008151808452614024816020860160208601613fe8565b601f01601f19169290920160200192915050565b634e487b7160e01b600052602160045260246000fd5b8981526001600160a01b038981166020830152888116604083015260608201889052610120608083018190526000916140898483018a61400c565b915083820360a085015261409d828961400c565b9250600887106140af576140af614038565b8660c085015285151560e085015280851661010085015250509a9950505050505050505050565b634e487b7160e01b600052604160045260246000fd5b604051601f8201601f191681016001600160401b0381118282101715614114576141146140d6565b604052919050565b60006001600160401b03831115614135576141356140d6565b614148601f8401601f19166020016140ec565b905082815283838301111561415c57600080fd5b828260208301376000602084830101529392505050565b600082601f83011261418457600080fd5b613cf38383356020850161411c565b60006001600160401b038211156141ac576141ac6140d6565b5060051b60200190565b600080600080608085870312156141cc57600080fd5b84359350602080860135935060408601356001600160401b03808211156141f257600080fd5b6141fe89838a01614173565b9450606088013591508082111561421457600080fd5b818801915088601f83011261422857600080fd5b813561423b61423682614193565b6140ec565b81815260059190911b8301840190848101908b83111561425a57600080fd5b8585015b83811015614292578035858111156142765760008081fd5b6142848e89838a0101614173565b84525091860191860161425e565b50989b979a50959850505050505050565b6001600160a01b0391909116815260200190565b600080604083850312156142ca57600080fd5b50508035926020909101359150565b80356001600160a01b03811681146142f057600080fd5b919050565b60006020828403121561430757600080fd5b613cf3826142d9565b6020808252825182820181905260009190848201906040850190845b818110156143485783518352928401929184019160010161432c565b50909695505050505050565b801515811461156857600080fd5b60008060008060008060c0878903121561437b57600080fd5b614384876142d9565b95506020870135945060408701356001600160401b03808211156143a757600080fd5b6143b38a838b01614173565b955060608901359150808211156143c957600080fd5b506143d689828a01614173565b93505060808701356143e781614354565b91506143f560a088016142d9565b90509295509295509295565b6000806040838503121561441457600080fd5b61441d836142d9565b946020939093013593505050565b6000806040838503121561443e57600080fd5b614447836142d9565b9150614455602084016142d9565b90509250929050565b6000806040838503121561447157600080fd5b61447a836142d9565b915060208301356001600160401b0381111561449557600080fd5b8301601f810185136144a657600080fd5b6144b58582356020840161411c565b9150509250929050565b8b81526001600160a01b038b811660208301528a166040820152606081018990526080810188905261016060a082018190526000906145008382018a61400c565b905082810360c0840152614514818961400c565b9150508560e08301526002851061452d5761452d614038565b8461010083015283151561012083015261454c61014083018415159052565b9c9b505050505050505050505050565b600081518084526020808501808196508360051b8101915082860160005b858110156145a457828403895261459284835161400c565b9885019893509084019060010161457a565b5091979650505050505050565b6040815260006145c4604083018561455c565b82810360208401526145d6818561455c565b95945050505050565b600060208083850312156145f257600080fd5b82356001600160401b0381111561460857600080fd5b8301601f8101851361461957600080fd5b803561462761423682614193565b81815260059190911b8201830190838101908783111561464657600080fd5b928401925b8284101561466b5761465c846142d9565b8252928401929084019061464b565b979650505050505050565b60008060006060848603121561468b57600080fd5b833592506020840135915060408401356001600160401b038111156146af57600080fd5b6146bb86828701614173565b9150509250925092565b600181811c908216806146d957607f821691505b6020821081036146f957634e487b7160e01b600052602260045260246000fd5b50919050565b602080825260169082015275111a5cdc1d5d1948191bd95cc81b9bdd08195e1a5cdd60521b604082015260600190565b634e487b7160e01b600052601160045260246000fd5b80820180821115613cf657613cf661472f565b602080825260039082015262444e4560e81b604082015260600190565b60006020828403121561478757600080fd5b5051919050565b6000602082840312156147a057600080fd5b81516147ab81614354565b9392505050565b601f82111561182d57600081815260208120601f850160051c810160208610156147d95750805b601f850160051c820191505b8181101561149b578281556001016147e5565b81516001600160401b03811115614811576148116140d6565b6148258161481f84546146c5565b846147b2565b602080601f83116001811461485a57600084156148425750858301515b600019600386901b1c1916600185901b17855561149b565b600085815260208120601f198616915b828110156148895788860151825594840194600190910190840161486a565b50858210156148a75787850151600019600388901b60f8161c191681555b5050505050600190811b01905550565b6020808252602c90820152600080516020614be883398151915260408201526b19195b1959d85d1958d85b1b60a21b606082015260800190565b6020808252602c90820152600080516020614be883398151915260408201526b6163746976652070726f787960a01b606082015260800190565b6020808252600e908201526d139bdd08185d5d1a1bdc9a5e995960921b604082015260600190565b8082028115828204841417613cf657613cf661472f565b60008261498757634e487b7160e01b600052601260045260246000fd5b500490565b81810381811115613cf657613cf661472f565b634e487b7160e01b600052603260045260246000fd5b6000600182016149c7576149c761472f565b5060010190565b6020808252600e908201526d54696d652052656d61696e696e6760901b604082015260600190565b6020808252600c908201526b139bdd081858d8d95c1d195960a21b604082015260600190565b6020808252602b908201527f496e697469616c697a61626c653a20636f6e7472616374206973206e6f74206960408201526a6e697469616c697a696e6760a81b606082015260800190565b6020808252600890820152674e6f2046756e647360c01b604082015260600190565b6001600160a01b03929092168252602082015260400190565b600060a082018783526020878185015260a0604085015281875180845260c086019150828901935060005b81811015614af25784516001600160a01b031683529383019391830191600101614acd565b50506001600160a01b03969096166060850152505050608001529392505050565b60006020808385031215614b2657600080fd5b82516001600160401b03811115614b3c57600080fd5b8301601f81018513614b4d57600080fd5b8051614b5b61423682614193565b81815260059190911b82018301908381019087831115614b7a57600080fd5b928401925b8284101561466b57835182529284019290840190614b7f565b60008251614baa818460208701613fe8565b9190910192915050565b602081526000613cf3602083018461400c56fe0c81ce4857d5b94b8c75139d9e9e2911ece8cd067eddba6000e40a08e09d564346756e6374696f6e206d7573742062652063616c6c6564207468726f75676820360894a13ba1a3210667c828492db98dca3e2076cc3735a920a3ca505d382bbc416464726573733a206c6f772d6c6576656c2064656c65676174652063616c6c206661696c6564683bc5c048db63a19aca077ebaf602240dbaec371f0bc19856f49fc6c004e38da2646970667358221220fde0af744deaa541b1fd6513fe119157930c24af38d35acf0aeb4406f66e026e64736f6c63430008110033",
	"linkReferences": {},
	"deployedLinkReferences": {}
}