{
	"_format": "hh-sol-artifact-1",
	"contractName": "Cscrow",
	"sourceName": "contracts/Cscrow.sol",
	"abi": [
		{
			"inputs": [],
			"stateMutability": "nonpayable",
			"type": "constructor"
		},
		{
			"anonymous": false,
			"inputs": [
				{
					"indexed": false,
					"internalType": "address",
					"name": "previousAdmin",
					"type": "address"
				},
				{
					"indexed": false,
					"internalType": "address",
					"name": "newAdmin",
					"type": "address"
				}
			],
			"name": "AdminChanged",
			"type": "event"
		},
		{
			"anonymous": false,
			"inputs": [
				{
					"indexed": true,
					"internalType": "address",
					"name": "beacon",
					"type": "address"
				}
			],
			"name": "BeaconUpgraded",
			"type": "event"
		},
		{
			"anonymous": false,
			"inputs": [
				{
					"indexed": true,
					"internalType": "uint256",
					"name": "id",
					"type": "uint256"
				},
				{
					"indexed": true,
					"internalType": "address",
					"name": "assignor",
					"type": "address"
				},
				{
					"indexed": true,
					"internalType": "address",
					"name": "assignee",
					"type": "address"
				}
			],
			"name": "ContractAccepted",
			"type": "event"
		},
		{
			"anonymous": false,
			"inputs": [
				{
					"indexed": true,
					"internalType": "uint256",
					"name": "id",
					"type": "uint256"
				},
				{
					"indexed": true,
					"internalType": "address",
					"name": "assignor",
					"type": "address"
				},
				{
					"indexed": true,
					"internalType": "address",
					"name": "assignee",
					"type": "address"
				}
			],
			"name": "ContractCancelled",
			"type": "event"
		},
		{
			"anonymous": false,
			"inputs": [
				{
					"indexed": true,
					"internalType": "uint256",
					"name": "id",
					"type": "uint256"
				},
				{
					"indexed": true,
					"internalType": "address",
					"name": "assignor",
					"type": "address"
				},
				{
					"indexed": true,
					"internalType": "address",
					"name": "assignee",
					"type": "address"
				}
			],
			"name": "ContractCompleted",
			"type": "event"
		},
		{
			"anonymous": false,
			"inputs": [
				{
					"indexed": true,
					"internalType": "uint256",
					"name": "id",
					"type": "uint256"
				},
				{
					"indexed": true,
					"internalType": "address",
					"name": "assignor",
					"type": "address"
				},
				{
					"indexed": true,
					"internalType": "address",
					"name": "assignee",
					"type": "address"
				}
			],
			"name": "ContractCreated",
			"type": "event"
		},
		{
			"anonymous": false,
			"inputs": [
				{
					"indexed": true,
					"internalType": "uint256",
					"name": "id",
					"type": "uint256"
				},
				{
					"indexed": true,
					"internalType": "address",
					"name": "assignor",
					"type": "address"
				},
				{
					"indexed": true,
					"internalType": "address",
					"name": "assignee",
					"type": "address"
				}
			],
			"name": "ContractEnded",
			"type": "event"
		},
		{
			"anonymous": false,
			"inputs": [
				{
					"indexed": true,
					"internalType": "uint256",
					"name": "id",
					"type": "uint256"
				},
				{
					"indexed": true,
					"internalType": "address",
					"name": "assignor",
					"type": "address"
				},
				{
					"indexed": true,
					"internalType": "address",
					"name": "assignee",
					"type": "address"
				}
			],
			"name": "DisputeCreated",
			"type": "event"
		},
		{
			"anonymous": false,
			"inputs": [
				{
					"indexed": false,
					"internalType": "uint8",
					"name": "version",
					"type": "uint8"
				}
			],
			"name": "Initialized",
			"type": "event"
		},
		{
			"anonymous": false,
			"inputs": [
				{
					"indexed": true,
					"internalType": "address",
					"name": "previousOwner",
					"type": "address"
				},
				{
					"indexed": true,
					"internalType": "address",
					"name": "newOwner",
					"type": "address"
				}
			],
			"name": "OwnershipTransferred",
			"type": "event"
		},
		{
			"anonymous": false,
			"inputs": [
				{
					"indexed": true,
					"internalType": "address",
					"name": "implementation",
					"type": "address"
				}
			],
			"name": "Upgraded",
			"type": "event"
		},
		{
			"inputs": [
				{
					"internalType": "uint256",
					"name": "_id",
					"type": "uint256"
				}
			],
			"name": "acceptContract",
			"outputs": [],
			"stateMutability": "nonpayable",
			"type": "function"
		},
		{
			"inputs": [
				{
					"internalType": "uint256",
					"name": "_disputeId",
					"type": "uint256"
				}
			],
			"name": "acceptDispute",
			"outputs": [],
			"stateMutability": "nonpayable",
			"type": "function"
		},
		{
			"inputs": [
				{
					"internalType": "address[]",
					"name": "_tokens",
					"type": "address[]"
				}
			],
			"name": "addEnableTokens",
			"outputs": [],
			"stateMutability": "nonpayable",
			"type": "function"
		},
		{
			"inputs": [
				{
					"internalType": "uint256",
					"name": "_disputeId",
					"type": "uint256"
				},
				{
					"internalType": "uint256",
					"name": "_amount",
					"type": "uint256"
				},
				{
					"internalType": "string",
					"name": "_details",
					"type": "string"
				},
				{
					"internalType": "string[]",
					"name": "_profs",
					"type": "string[]"
				}
			],
			"name": "addProofsForDisputeLevel2",
			"outputs": [],
			"stateMutability": "nonpayable",
			"type": "function"
		},
		{
			"inputs": [
				{
					"internalType": "uint256",
					"name": "_id",
					"type": "uint256"
				}
			],
			"name": "alreadyVoted",
			"outputs": [
				{
					"internalType": "bool",
					"name": "",
					"type": "bool"
				}
			],
			"stateMutability": "view",
			"type": "function"
		},
		{
			"inputs": [
				{
					"internalType": "uint256",
					"name": "_id",
					"type": "uint256"
				}
			],
			"name": "approveContract",
			"outputs": [],
			"stateMutability": "nonpayable",
			"type": "function"
		},
		{
			"inputs": [],
			"name": "commissionPercent",
			"outputs": [
				{
					"internalType": "uint256",
					"name": "",
					"type": "uint256"
				}
			],
			"stateMutability": "view",
			"type": "function"
		},
		{
			"inputs": [
				{
					"internalType": "address",
					"name": "",
					"type": "address"
				}
			],
			"name": "companyProfits",
			"outputs": [
				{
					"internalType": "uint256",
					"name": "",
					"type": "uint256"
				}
			],
			"stateMutability": "view",
			"type": "function"
		},
		{
			"inputs": [
				{
					"internalType": "uint256",
					"name": "_id",
					"type": "uint256"
				}
			],
			"name": "completeContract",
			"outputs": [],
			"stateMutability": "nonpayable",
			"type": "function"
		},
		{
			"inputs": [
				{
					"internalType": "address",
					"name": "_assignee",
					"type": "address"
				},
				{
					"internalType": "uint256",
					"name": "_amount",
					"type": "uint256"
				},
				{
					"internalType": "string",
					"name": "_details",
					"type": "string"
				},
				{
					"internalType": "string",
					"name": "_title",
					"type": "string"
				},
				{
					"internalType": "bool",
					"name": "_token",
					"type": "bool"
				},
				{
					"internalType": "address",
					"name": "_tokenAddress",
					"type": "address"
				}
			],
			"name": "createContract",
			"outputs": [],
			"stateMutability": "payable",
			"type": "function"
		},
		{
			"inputs": [
				{
					"internalType": "uint256",
					"name": "_id",
					"type": "uint256"
				},
				{
					"internalType": "uint256",
					"name": "_amount",
					"type": "uint256"
				},
				{
					"internalType": "string",
					"name": "_details",
					"type": "string"
				}
			],
			"name": "createDisputeLevel1",
			"outputs": [],
			"stateMutability": "nonpayable",
			"type": "function"
		},
		{
			"inputs": [
				{
					"internalType": "uint256",
					"name": "_disputeId",
					"type": "uint256"
				},
				{
					"internalType": "uint256",
					"name": "_amount",
					"type": "uint256"
				},
				{
					"internalType": "string",
					"name": "_details",
					"type": "string"
				},
				{
					"internalType": "string[]",
					"name": "_profs",
					"type": "string[]"
				}
			],
			"name": "createDisputeLevel2",
			"outputs": [],
			"stateMutability": "nonpayable",
			"type": "function"
		},
		{
			"inputs": [
				{
					"internalType": "uint256",
					"name": "",
					"type": "uint256"
				}
			],
			"name": "disputes",
			"outputs": [
				{
					"internalType": "uint256",
					"name": "escrowId",
					"type": "uint256"
				},
				{
					"internalType": "address",
					"name": "assignor",
					"type": "address"
				},
				{
					"internalType": "address",
					"name": "assignee",
					"type": "address"
				},
				{
					"internalType": "uint256",
					"name": "amountDisputedAssignee",
					"type": "uint256"
				},
				{
					"internalType": "uint256",
					"name": "amountDisputedAssignor",
					"type": "uint256"
				},
				{
					"internalType": "string",
					"name": "assignorDetails",
					"type": "string"
				},
				{
					"internalType": "string",
					"name": "assigneeDetails",
					"type": "string"
				},
				{
					"internalType": "uint256",
					"name": "validatorId",
					"type": "uint256"
				},
				{
					"internalType": "enum Structs.disputeLevel",
					"name": "disputeLevel",
					"type": "uint8"
				},
				{
					"internalType": "bool",
					"name": "assigneeCreatedDispute",
					"type": "bool"
				},
				{
					"internalType": "bool",
					"name": "validationStarted",
					"type": "bool"
				}
			],
			"stateMutability": "view",
			"type": "function"
		},
		{
			"inputs": [
				{
					"internalType": "address",
					"name": "",
					"type": "address"
				}
			],
			"name": "enabledTokens",
			"outputs": [
				{
					"internalType": "bool",
					"name": "",
					"type": "bool"
				}
			],
			"stateMutability": "view",
			"type": "function"
		},
		{
			"inputs": [
				{
					"internalType": "uint256",
					"name": "",
					"type": "uint256"
				}
			],
			"name": "escrows",
			"outputs": [
				{
					"internalType": "uint256",
					"name": "id",
					"type": "uint256"
				},
				{
					"internalType": "address",
					"name": "assignor",
					"type": "address"
				},
				{
					"internalType": "address",
					"name": "assignee",
					"type": "address"
				},
				{
					"internalType": "uint256",
					"name": "amount",
					"type": "uint256"
				},
				{
					"internalType": "string",
					"name": "details",
					"type": "string"
				},
				{
					"internalType": "string",
					"name": "title",
					"type": "string"
				},
				{
					"internalType": "enum Structs.ContractStatus",
					"name": "status",
					"type": "uint8"
				},
				{
					"internalType": "bool",
					"name": "token",
					"type": "bool"
				},
				{
					"internalType": "address",
					"name": "tokenAddress",
					"type": "address"
				}
			],
			"stateMutability": "view",
			"type": "function"
		},
		{
			"inputs": [
				{
					"internalType": "address",
					"name": "_address",
					"type": "address"
				}
			],
			"name": "getMyContracts",
			"outputs": [
				{
					"internalType": "uint256[]",
					"name": "",
					"type": "uint256[]"
				}
			],
			"stateMutability": "view",
			"type": "function"
		},
		{
			"inputs": [
				{
					"internalType": "address",
					"name": "_address",
					"type": "address"
				}
			],
			"name": "getPoints",
			"outputs": [
				{
					"internalType": "uint256",
					"name": "",
					"type": "uint256"
				}
			],
			"stateMutability": "view",
			"type": "function"
		},
		{
			"inputs": [
				{
					"internalType": "uint256",
					"name": "_diputeId",
					"type": "uint256"
				}
			],
			"name": "getProofs",
			"outputs": [
				{
					"internalType": "string[]",
					"name": "",
					"type": "string[]"
				},
				{
					"internalType": "string[]",
					"name": "",
					"type": "string[]"
				}
			],
			"stateMutability": "view",
			"type": "function"
		},
		{
			"inputs": [
				{
					"internalType": "address",
					"name": "_routerAddress",
					"type": "address"
				},
				{
					"internalType": "address",
					"name": "_usdtAddress",
					"type": "address"
				}
			],
			"name": "initialize",
			"outputs": [],
			"stateMutability": "nonpayable",
			"type": "function"
		},
		{
			"inputs": [
				{
					"internalType": "address",
					"name": "_token",
					"type": "address"
				}
			],
			"name": "isTokenEnabled",
			"outputs": [
				{
					"internalType": "bool",
					"name": "",
					"type": "bool"
				}
			],
			"stateMutability": "view",
			"type": "function"
		},
		{
			"inputs": [
				{
					"internalType": "address",
					"name": "",
					"type": "address"
				},
				{
					"internalType": "uint256",
					"name": "",
					"type": "uint256"
				}
			],
			"name": "myContracts",
			"outputs": [
				{
					"internalType": "uint256",
					"name": "",
					"type": "uint256"
				}
			],
			"stateMutability": "view",
			"type": "function"
		},
		{
			"inputs": [
				{
					"internalType": "uint256",
					"name": "_id",
					"type": "uint256"
				}
			],
			"name": "notAcceptContract",
			"outputs": [],
			"stateMutability": "nonpayable",
			"type": "function"
		},
		{
			"inputs": [],
			"name": "owner",
			"outputs": [
				{
					"internalType": "address",
					"name": "",
					"type": "address"
				}
			],
			"stateMutability": "view",
			"type": "function"
		},
		{
			"inputs": [
				{
					"internalType": "address",
					"name": "",
					"type": "address"
				}
			],
			"name": "points",
			"outputs": [
				{
					"internalType": "uint256",
					"name": "",
					"type": "uint256"
				}
			],
			"stateMutability": "view",
			"type": "function"
		},
		{
			"inputs": [],
			"name": "proxiableUUID",
			"outputs": [
				{
					"internalType": "bytes32",
					"name": "",
					"type": "bytes32"
				}
			],
			"stateMutability": "view",
			"type": "function"
		},
		{
			"inputs": [],
			"name": "renounceOwnership",
			"outputs": [],
			"stateMutability": "nonpayable",
			"type": "function"
		},
		{
			"inputs": [
				{
					"internalType": "uint256",
					"name": "_disputeId",
					"type": "uint256"
				}
			],
			"name": "resolveDispute",
			"outputs": [],
			"stateMutability": "nonpayable",
			"type": "function"
		},
		{
			"inputs": [],
			"name": "rewardPool",
			"outputs": [
				{
					"internalType": "address",
					"name": "",
					"type": "address"
				}
			],
			"stateMutability": "view",
			"type": "function"
		},
		{
			"inputs": [],
			"name": "totalDisputes",
			"outputs": [
				{
					"internalType": "uint256",
					"name": "",
					"type": "uint256"
				}
			],
			"stateMutability": "view",
			"type": "function"
		},
		{
			"inputs": [],
			"name": "totalEscrows",
			"outputs": [
				{
					"internalType": "uint256",
					"name": "",
					"type": "uint256"
				}
			],
			"stateMutability": "view",
			"type": "function"
		},
		{
			"inputs": [],
			"name": "totalValidators",
			"outputs": [
				{
					"internalType": "uint256",
					"name": "",
					"type": "uint256"
				}
			],
			"stateMutability": "view",
			"type": "function"
		},
		{
			"inputs": [
				{
					"internalType": "address",
					"name": "newOwner",
					"type": "address"
				}
			],
			"name": "transferOwnership",
			"outputs": [],
			"stateMutability": "nonpayable",
			"type": "function"
		},
		{
			"inputs": [],
			"name": "uniswapAddress",
			"outputs": [
				{
					"internalType": "address",
					"name": "",
					"type": "address"
				}
			],
			"stateMutability": "view",
			"type": "function"
		},
		{
			"inputs": [
				{
					"internalType": "uint256",
					"name": "_commissionPercent",
					"type": "uint256"
				}
			],
			"name": "updateCommissionPercent",
			"outputs": [],
			"stateMutability": "nonpayable",
			"type": "function"
		},
		{
			"inputs": [
				{
					"internalType": "address",
					"name": "_rewardPool",
					"type": "address"
				}
			],
			"name": "updateRewardPool",
			"outputs": [],
			"stateMutability": "nonpayable",
			"type": "function"
		},
		{
			"inputs": [
				{
					"internalType": "uint256",
					"name": "_validatorsPercent",
					"type": "uint256"
				}
			],
			"name": "updateValidatorPercent",
			"outputs": [],
			"stateMutability": "nonpayable",
			"type": "function"
		},
		{
			"inputs": [
				{
					"internalType": "address",
					"name": "newImplementation",
					"type": "address"
				}
			],
			"name": "upgradeTo",
			"outputs": [],
			"stateMutability": "nonpayable",
			"type": "function"
		},
		{
			"inputs": [
				{
					"internalType": "address",
					"name": "newImplementation",
					"type": "address"
				},
				{
					"internalType": "bytes",
					"name": "data",
					"type": "bytes"
				}
			],
			"name": "upgradeToAndCall",
			"outputs": [],
			"stateMutability": "payable",
			"type": "function"
		},
		{
			"inputs": [],
			"name": "usdtAddress",
			"outputs": [
				{
					"internalType": "address",
					"name": "",
					"type": "address"
				}
			],
			"stateMutability": "view",
			"type": "function"
		},
		{
			"inputs": [
				{
					"internalType": "uint256",
					"name": "_validateId",
					"type": "uint256"
				},
				{
					"internalType": "uint256",
					"name": "voteFor",
					"type": "uint256"
				}
			],
			"name": "validate",
			"outputs": [],
			"stateMutability": "nonpayable",
			"type": "function"
		},
		{
			"inputs": [
				{
					"internalType": "uint256",
					"name": "",
					"type": "uint256"
				}
			],
			"name": "validators",
			"outputs": [
				{
					"internalType": "uint256",
					"name": "disputeId",
					"type": "uint256"
				},
				{
					"internalType": "uint256",
					"name": "votesForAssignor",
					"type": "uint256"
				},
				{
					"internalType": "uint256",
					"name": "votesForAssignee",
					"type": "uint256"
				},
				{
					"internalType": "bool",
					"name": "assignorWon",
					"type": "bool"
				},
				{
					"internalType": "bool",
					"name": "assigneeWon",
					"type": "bool"
				},
				{
					"internalType": "bool",
					"name": "draw",
					"type": "bool"
				},
				{
					"internalType": "bool",
					"name": "nextChance",
					"type": "bool"
				},
				{
					"internalType": "uint256",
					"name": "validationCreateTime",
					"type": "uint256"
				}
			],
			"stateMutability": "view",
			"type": "function"
		},
		{
			"inputs": [],
			"name": "validatorsPercent",
			"outputs": [
				{
					"internalType": "uint256",
					"name": "",
					"type": "uint256"
				}
			],
			"stateMutability": "view",
			"type": "function"
		},
		{
			"inputs": [],
			"name": "withdrawCompleteCommissionNative",
			"outputs": [],
			"stateMutability": "nonpayable",
			"type": "function"
		},
		{
			"inputs": [
				{
					"internalType": "address",
					"name": "_token",
					"type": "address"
				}
			],
			"name": "withdrawCompleteCommissionToken",
			"outputs": [],
			"stateMutability": "nonpayable",
			"type": "function"
		},
		{
			"inputs": [
				{
					"internalType": "uint256",
					"name": "_id",
					"type": "uint256"
				}
			],
			"name": "withdrawContract",
			"outputs": [],
			"stateMutability": "nonpayable",
			"type": "function"
		}
	],
	"bytecode": "0x60a0604052306080523480156200001557600080fd5b506200002062000026565b620000e7565b600054610100900460ff1615620000935760405162461bcd60e51b815260206004820152602760248201527f496e697469616c697a61626c653a20636f6e747261637420697320696e697469604482015266616c697a696e6760c81b606482015260840160405180910390fd5b60005460ff90811614620000e5576000805460ff191660ff9081179091556040519081527f7f26b83ff96e1f2b6a682f133852f6798a09c465da95921460cefb38474024989060200160405180910390a15b565b608051614dce6200011f600039600081816113dd0152818161141d0152818161176c015281816117ac01526118280152614dce6000f3fe6080604052600436106102025760003560e01c8063012f52ee146102075780630773750d146102455780630935a123146102675780630e2feb051461028757806319730b44146102b55780631bbeaca1146102d557806332039e01146102f557806334f2a20b14610322578063358b81661461033557806335aa2e44146103715780633659cfe61461041d5780633ca3d81d1461043d57806344aa40951461045d578063485cc9551461047d5780634f1ef2861461049d57806352d1902d146104b05780635452fb8a146104c5578063564a565d146104e557806358ee94cd1461051c5780635e3797971461053c57806362c35c011461055c57806363ee7c8d1461057c57806366666aa914610592578063715018a6146105b3578063748538d9146105c857806377d3550b146105f85780638da5cb5b1461060e578063930048bc1461062357806398a844b9146106515780639a115c04146106715780639ab4a44514610691578063b0191b8f146106b2578063b1e7a1f0146106d2578063b451cecc146106f2578063c2b7b86814610723578063c31e2c3114610743578063c5e4ccc414610771578063c6c6ebca14610787578063c7ec4c1c146107a7578063c81b356b146107bd578063d5fbac3a146107d3578063e2080b22146107f3578063ebb0977b14610813578063ee204abb14610828578063f2fde38b1461085f575b600080fd5b34801561021357600080fd5b5061022761022236600461408f565b61087f565b60405161023c9998979695949392919061410e565b60405180910390f35b34801561025157600080fd5b50610265610260366004614276565b6109f9565b005b34801561027357600080fd5b5061026561028236600461408f565b610bec565b34801561029357600080fd5b50610102546102a8906001600160a01b031681565b60405161023c9190614363565b3480156102c157600080fd5b506102656102d0366004614377565b610c8a565b3480156102e157600080fd5b506102656102f036600461408f565b610e5b565b34801561030157600080fd5b506103156103103660046143ae565b610e68565b60405161023c91906143d2565b610265610330366004614424565b610ed5565b34801561034157600080fd5b506103636103503660046143ae565b6101086020526000908152604090205481565b60405190815260200161023c565b34801561037d57600080fd5b506103dc61038c36600461408f565b610107602052600090815260409020805460028201546003830154600484015460059094015492939192909160ff8082169261010083048216926201000081048316926301000000909104169088565b60408051988952602089019790975295870194909452911515606086015215156080850152151560a0840152151560c083015260e08201526101000161023c565b34801561042957600080fd5b506102656104383660046143ae565b6113d3565b34801561044957600080fd5b50610265610458366004614276565b61149b565b34801561046957600080fd5b506103636104783660046144c9565b6115c5565b34801561048957600080fd5b506102656104983660046144f5565b6115f7565b6102656104ab36600461452e565b611762565b3480156104bc57600080fd5b5061036361181b565b3480156104d157600080fd5b506102656104e03660046143ae565b6118c9565b3480156104f157600080fd5b5061050561050036600461408f565b611919565b60405161023c9b9a99989796959493929190614591565b34801561052857600080fd5b5061026561053736600461408f565b611a97565b34801561054857600080fd5b5061026561055736600461408f565b611b1a565b34801561056857600080fd5b5061026561057736600461408f565b611b27565b34801561058857600080fd5b5061036360fb5481565b34801561059e57600080fd5b50610103546102a8906001600160a01b031681565b3480156105bf57600080fd5b50610265611d27565b3480156105d457600080fd5b506105e86105e33660046143ae565b611d3b565b604051901515815260200161023c565b34801561060457600080fd5b5061036360fe5481565b34801561061a57600080fd5b506102a8611d5a565b34801561062f57600080fd5b5061036361063e3660046143ae565b6101046020526000908152604090205481565b34801561065d57600080fd5b5061026561066c36600461408f565b611d69565b34801561067d57600080fd5b5061026561068c36600461408f565b611dc3565b34801561069d57600080fd5b50610101546102a8906001600160a01b031681565b3480156106be57600080fd5b506102656106cd36600461408f565b611e45565b3480156106de57600080fd5b506105e86106ed36600461408f565b612171565b3480156106fe57600080fd5b506105e861070d3660046143ae565b6101096020526000908152604090205460ff1681565b34801561072f57600080fd5b5061026561073e36600461408f565b6121f4565b34801561074f57600080fd5b5061076361075e36600461408f565b612902565b60405161023c929190614683565b34801561077d57600080fd5b5061036360fc5481565b34801561079357600080fd5b506102656107a23660046146b1565b612acc565b3480156107b357600080fd5b5061036360ff5481565b3480156107c957600080fd5b5061036360fd5481565b3480156107df57600080fd5b506102656107ee3660046143ae565b612b3d565b3480156107ff57600080fd5b5061026561080e36600461474a565b612b68565b34801561081f57600080fd5b50610265612f24565b34801561083457600080fd5b506103636108433660046143ae565b6001600160a01b03166000908152610108602052604090205490565b34801561086b57600080fd5b5061026561087a3660046143ae565b612f75565b610105602052600090815260409020805460018201546002830154600384015460048501805494956001600160a01b0394851695939094169391926108c390614799565b80601f01602080910402602001604051908101604052809291908181526020018280546108ef90614799565b801561093c5780601f106109115761010080835404028352916020019161093c565b820191906000526020600020905b81548152906001019060200180831161091f57829003601f168201915b50505050509080600501805461095190614799565b80601f016020809104026020016040519081016040528092919081815260200182805461097d90614799565b80156109ca5780601f1061099f576101008083540402835291602001916109ca565b820191906000526020600020905b8154815290600101906020018083116109ad57829003601f168201915b5050506006909301549192505060ff808216916101008104909116906001600160a01b03620100009091041689565b60fc54841115610a245760405162461bcd60e51b8152600401610a1b906147d3565b60405180910390fd5b6000848152610106602052604090206001600882015460ff166001811115610a4e57610a4e6140f8565b14610a995760405162461bcd60e51b815260206004820152601b60248201527a13195d995b080c88191a5cdc1d5d19481b9bdd0818dc99585d1959602a1b6044820152606401610a1b565b610aa285612feb565b610aae8585858561304a565b8054610abb816005613133565b60408051610120810182528781528151600080825260208083018552808401928352838501829052606084018290526080840182905260a0840182905260c0840182905260e084018290524261010085015260fd5482526101078152939020825181559051805192938493610b369260018501920190613edd565b506040820151600282015560608201516003820155608082015160048201805460a085015160c086015160e087015161ffff1990931694151561ff0019169490941761010091151582021763ffff00001916620100009415159490940263ff0000001916939093176301000000911515919091021790559091015160059091015560fd805460019190600090610bcd908490614819565b909155505050600b909101805461ff0019166101001790555050505050565b610bf581613189565b610bfe816131ed565b610c09816000613133565b60008181526101056020526040902060068101805460ff191660041790556003810154600190910154610c469183916001600160a01b0316613225565b60008181526101056020526040808220600281015460019091015491516001600160a01b039182169391909216918491600080516020614d7983398151915291a450565b60fd54821115610cc25760405162461bcd60e51b8152602060048201526003602482015262564e4560e81b6044820152606401610a1b565b60fc54600083815261010760205260409020541115610cf35760405162461bcd60e51b8152600401610a1b9061482c565b610cfc82612171565b15610d395760405162461bcd60e51b815260206004820152600d60248201526c105b1c9958591e481d9bdd1959609a1b6044820152606401610a1b565b600082815261010760205260409020600501544290610d5b9062015180614819565b1015610d985760405162461bcd60e51b815260206004820152600c60248201526b151a5b5948195e1c1a5c995960a21b6044820152606401610a1b565b80600003610dce57600082815261010760205260408120600201805460019290610dc3908490614819565b90915550610dff9050565b80600103610dff57600082815261010760205260408120600301805460019290610df9908490614819565b90915550505b6000828152610107602090815260408083206001908101805480830182559085528385200180546001600160a01b0319163390811790915584526101089092528220805491929091610e52908490614819565b90915550505050565b610e6361327c565b60ff55565b6001600160a01b038116600090815261010a6020908152604091829020805483518184028101840190945280845260609392830182828015610ec957602002820191906000526020600020905b815481526020019060010190808311610eb5575b50505050509050919050565b610edd6132db565b6001600160a01b038616610f255760405162461bcd60e51b815260206004820152600f60248201526e496e76616c6964206164647265737360881b6044820152606401610a1b565b60008511610f625760405162461bcd60e51b815260206004820152600a6024820152690416d6f756e74203c20360b41b6044820152606401610a1b565b6000821561118857610f7382611d3b565b610fb35760405162461bcd60e51b8152602060048201526011602482015270151bdad95b881b9bdd08195b98589b1959607a1b6044820152606401610a1b565b604051636eb1769f60e11b8152336004820152306024820152829087906001600160a01b0383169063dd62ed3e90604401602060405180830381865afa158015611001573d6000803e3d6000fd5b505050506040513d601f19601f820116820180604052508101906110259190614849565b10156110635760405162461bcd60e51b815260206004820152600d60248201526c6c6f7720616c6c6f77616e636560981b6044820152606401610a1b565b6040516370a0823160e01b815287906001600160a01b038316906370a0823190611091903390600401614363565b602060405180830381865afa1580156110ae573d6000803e3d6000fd5b505050506040513d601f19601f820116820180604052508101906110d29190614849565b101561110e5760405162461bcd60e51b815260206004820152600b60248201526a6c6f772062616c616e636560a81b6044820152606401610a1b565b6040516323b872dd60e01b81526001600160a01b038216906323b872dd9061113e90339030908c90600401614862565b6020604051808303816000875af115801561115d573d6000803e3d6000fd5b505050506040513d601f19601f820116820180604052508101906111819190614886565b50506111c4565b853410156111c45760405162461bcd60e51b81526020600482015260096024820152686c6f772066756e647360b81b6044820152606401610a1b565b600060405180610120016040528060fb548152602001336001600160a01b03168152602001896001600160a01b0316815260200188815260200187815260200186815260200183600781111561121c5761121c6140f8565b81528515156020808301919091526001600160a01b0386811660409384015260fb546000908152610105835283902084518155918401516001830180546001600160a01b031990811692841692909217905592840151600283018054909416911617909155606082015160038201556080820151919250829160048201906112a490826148e9565b5060a082015160058201906112b990826148e9565b5060c082015160068201805460ff191660018360078111156112dd576112dd6140f8565b021790555060e0820151600691909101805461010093840151610100600160b01b031990911692151590930262010000600160b01b03191691909117620100006001600160a01b039384160217905533600090815261010a6020908152604080832060fb80548254600181810185559387528587200155948d1684529083208454815480840183559185529284200191909155825490929190611381908490614819565b909155505060fb546040516001600160a01b038a169133917f56560a52c047ed21fd801bf0f345b23d9af696f7922ff8e63101af5d48caddab90600090a450506113cb600160c955565b505050505050565b6001600160a01b037f000000000000000000000000000000000000000000000000000000000000000016300361141b5760405162461bcd60e51b8152600401610a1b906149a8565b7f00000000000000000000000000000000000000000000000000000000000000006001600160a01b031661144d613334565b6001600160a01b0316146114735760405162461bcd60e51b8152600401610a1b906149e2565b61147c81613350565b6040805160008082526020820190925261149891839190613358565b50565b60fc548411156114bd5760405162461bcd60e51b8152600401610a1b906147d3565b60008481526101066020526040812090600882015460ff1660018111156114e6576114e66140f8565b146115315760405162461bcd60e51b815260206004820152601b60248201527a13195d995b080c48191a5cdc1d5d19481b9bdd0818dc99585d1959602a1b6044820152606401610a1b565b600b81015460ff168015611551575060018101546001600160a01b031633145b806115785750600b81015460ff16158015611578575060028101546001600160a01b031633145b6115945760405162461bcd60e51b8152600401610a1b90614a1c565b61159d85612feb565b80546115aa816005613133565b60088201805460ff191660011790556113cb8686868661304a565b61010a60205281600052604060002081815481106115e257600080fd5b90600052602060002001600091509150505481565b600054610100900460ff16158080156116175750600054600160ff909116105b806116385750611626306134c3565b158015611638575060005460ff166001145b61169b5760405162461bcd60e51b815260206004820152602e60248201527f496e697469616c697a61626c653a20636f6e747261637420697320616c72656160448201526d191e481a5b9a5d1a585b1a5e995960921b6064820152608401610a1b565b6000805460ff1916600117905580156116be576000805461ff0019166101001790555b6116c66134d2565b6116ce613501565b61010080546001600160a01b03199081166001600160a01b038681169182179093556101028054831690911790556101018054909116918416919091179055600260fe55600a60ff55801561175d576000805461ff0019169055604051600181527f7f26b83ff96e1f2b6a682f133852f6798a09c465da95921460cefb38474024989060200160405180910390a15b505050565b6001600160a01b037f00000000000000000000000000000000000000000000000000000000000000001630036117aa5760405162461bcd60e51b8152600401610a1b906149a8565b7f00000000000000000000000000000000000000000000000000000000000000006001600160a01b03166117dc613334565b6001600160a01b0316146118025760405162461bcd60e51b8152600401610a1b906149e2565b61180b82613350565b61181782826001613358565b5050565b6000306001600160a01b037f000000000000000000000000000000000000000000000000000000000000000016146118b65760405162461bcd60e51b815260206004820152603860248201527f555550535570677261646561626c653a206d757374206e6f742062652063616c6044820152771b1959081d1a1c9bdd59da0819195b1959d85d1958d85b1b60421b6064820152608401610a1b565b50600080516020614d3283398151915290565b6118d161327c565b6001600160a01b038116600090815261010460205260409020546118fd826118f7611d5a565b83613528565b506001600160a01b031660009081526101046020526040812055565b6101066020526000908152604090208054600182015460028301546003840154600485015460058601805495966001600160a01b039586169695909416949293919261196490614799565b80601f016020809104026020016040519081016040528092919081815260200182805461199090614799565b80156119dd5780601f106119b2576101008083540402835291602001916119dd565b820191906000526020600020905b8154815290600101906020018083116119c057829003601f168201915b5050505050908060060180546119f290614799565b80601f0160208091040260200160405190810160405280929190818152602001828054611a1e90614799565b8015611a6b5780601f10611a4057610100808354040283529160200191611a6b565b820191906000526020600020905b815481529060010190602001808311611a4e57829003601f168201915b50505060078401546008850154600b909501549394909360ff918216935080821692506101009004168b565b611aa081613189565b611aa9816131ed565b611ab4816001613133565b6000818152610105602052604080822060068101805460ff1916600290811790915581015460019091015491516001600160a01b0391821693919092169184917f6774e7512d62e65e414b9cc15969c36e32d465194057d4632ffd958e5182147191a450565b611b2261327c565b60fe55565b611b3081613630565b611b39816131ed565b611b44816002613133565b600081815261010560205260408120600381015460fe5491929091606490611b6c9084614a44565b611b769190614a5b565b90506000611b848284614a7d565b6006850154909150600090610100900460ff16611ba2576000611bb7565b60068501546201000090046001600160a01b03165b6001600160a01b03811660009081526101046020526040812080549293508592909190611be5908490614819565b90915550506006850154610100900460ff1615611c56576001600160a01b03811660009081526101046020526040902054611c21908290613694565b600086815261010560209081526040808320600601546201000090046001600160a01b03168352610104909152812055611c94565b6001600160a01b03811660009081526101046020526040902054611c7990613901565b6001600160a01b038116600090815261010460205260408120555b60008681526101056020526040902060020154611cbd90879084906001600160a01b0316613225565b6000868152610105602052604080822060068101805460ff19166003179055600281015460019091015491516001600160a01b0391821693919092169189917f94e224b06102dbac09bbe25b9727b78a711606f76142988ac62cec156098062791a4505050505050565b611d2f61327c565b611d396000613a97565b565b6001600160a01b03166000908152610109602052604090205460ff1690565b6033546001600160a01b031690565b611d7281613630565b611d7b816131ed565b611d86816000613133565b60008181526101056020526040902060068101805460ff1916600717905560038101546001909101546114989183916001600160a01b0316613225565b611dcc81613189565b611dd5816131ed565b611de0816000613133565b6000818152610105602052604080822060068101805460ff19166001908117909155600282015491015491516001600160a01b0391821693919092169184917f4e5adb6e5811e4671a3b0bdaceb025ec957432fc5562c7caefc0442dd9270ff291a450565b6000818152610106602090815260408083208054845261010590925282209091600883015460ff166001811115611e7e57611e7e6140f8565b14611ec15760405162461bcd60e51b8152602060048201526013602482015272111a5cdc1d5d19481b9bdd0818dc99585d1959606a1b6044820152606401610a1b565b611eca83612feb565b8154611ed5906131ed565b8154611ee2906005613133565b600b82015460009060ff16611f045760028301546001600160a01b0316611f13565b60018301546001600160a01b03165b9050336001600160a01b03821614611f3d5760405162461bcd60e51b8152600401610a1b90614a1c565b600382015460fe54600090606490611f559084614a44565b611f5f9190614a5b565b90506000611f6d8284614a7d565b60028701549091506000906001600160a01b03163303611fb0576003870154611f969083614a7d565b9050611fab8760000154886003015433613225565b611fe8565b60018701546001600160a01b03163303611fe8576004870154611fd39083614a7d565b9050611fe88760000154886004015433613225565b801561203257600b87015460009060ff166120105760028701546001600160a01b031661201f565b60018701546001600160a01b03165b905061203088600001548383613225565b505b6006860154600090610100900460ff1661204d576000612062565b60068701546201000090046001600160a01b03165b6001600160a01b03811660009081526101046020526040812080549293508692909190612090908490614819565b90915550506006870154610100900460ff16156120f5576001600160a01b038116600090815261010460205260409020546120cc908290613694565b60068701546201000090046001600160a01b031660009081526101046020526040812055612133565b6001600160a01b0381166000908152610104602052604090205461211890613901565b6001600160a01b038116600090815261010460205260408120555b6002870154600188015489546040516001600160a01b039384169390921691600080516020614d7983398151915290600090a4505050505050505050565b6000805b600083815261010760205260409020600101548110156121eb576000838152610107602052604090206001018054339190839081106121b6576121b6614a90565b6000918252602090912001546001600160a01b0316036121d95750600192915050565b806121e381614aa6565b915050612175565b50600092915050565b6121fc61327c565b60fc5481111561221e5760405162461bcd60e51b8152600401610a1b9061482c565b6000818152610106602081815260408084206007810154815480875261010585529286206003015487875294909352600b0154919390929160ff161561227757506000848152610106602052604090206003015461228c565b50600084815261010660205260409020600401545b6000606460fe548461229e9190614a44565b6122a89190614a5b565b90506000606460ff54856122bc9190614a44565b6122c69190614a5b565b905060006122d48284614819565b6122de9086614a7d565b905060006122ec8583614a7d565b905060006122fb600284614a5b565b60008a815261010760205260409020600381015460029091015491925090036125c357600089815261010760205260409020600401546301000000900460ff1661236d57600089815261010760205260409020426005820155600401805463ff000000191663010000001790556128da565b60008881526101056020526040902060060154610100900460ff161561244257600088815261010560209081526040808320600601546201000090046001600160a01b03168352610104909152812080548792906123cc908490614819565b9091555050600088815261010560209081526040808320600601546201000090046001600160a01b03168084526101049092529091205461240d9190613694565b600088815261010560209081526040808320600601546201000090046001600160a01b031683526101049091528120556124b0565b6000808052610104602052600080516020614cf2833981519152805487929061246c908490614819565b909155505060008052610104602052600080516020614cf28339815191525461249490613901565b6000808052610104602052600080516020614cf2833981519152555b600089815261010760209081526040808320600401805462ff00001916620100001790558c83526101069091529020600101546124f990899083906001600160a01b0316613225565b60008a8152610106602052604090206002015461252290899083906001600160a01b0316613225565b6000898152610107602090815260409182902060010180548351818402810184019094528084526125be939283018282801561258757602002820191906000526020600020905b81546001600160a01b03168152600190910190602001808311612569575b50505060008c81526101056020526040902060060154889250610100810460ff1691506201000090046001600160a01b0316613ae9565b6128da565b60008981526101076020526040902060038101546002909101541115612662576000898152610107602090815260408083206004908101805460ff191660019081179091558e855261010690935292209182015491015461262e918a916001600160a01b0316613225565b811561265d5760008a8152610106602052604090206002015461265d90899084906001600160a01b0316613225565b6126fd565b600089815261010760205260409020600381015460029091015410156126fd57600089815261010760209081526040808320600401805461ff0019166101001790558c8352610106909152902060038101546002909101546126ce918a916001600160a01b0316613225565b81156126fd5760008a815261010660205260409020600201546126fd90899084906001600160a01b0316613225565b60008881526101056020526040902060060154610100900460ff16156127d257600088815261010560209081526040808320600601546201000090046001600160a01b031683526101049091528120805487929061275c908490614819565b9091555050600088815261010560209081526040808320600601546201000090046001600160a01b03168084526101049092529091205461279d9190613694565b600088815261010560209081526040808320600601546201000090046001600160a01b03168352610104909152812055612840565b6000808052610104602052600080516020614cf283398151915280548792906127fc908490614819565b909155505060008052610104602052600080516020614cf28339815191525461282490613901565b6000808052610104602052600080516020614cf2833981519152555b6000898152610107602090815260409182902060010180548351818402810184019094528084526128da9392830182828015612587576020028201919060005260206000209081546001600160a01b031681526001909101906020018083116125695750505060008c81526101056020526040902060060154889250610100810460ff1691506201000090046001600160a01b0316613ae9565b50505060009485525050610105602052505060409020600601805460ff191660071790555050565b60008181526101066020908152604080832060098101805483518186028101860190945280845260609586959294600a90940193928592919084015b828210156129ea57838290600052602060002001805461295d90614799565b80601f016020809104026020016040519081016040528092919081815260200182805461298990614799565b80156129d65780601f106129ab576101008083540402835291602001916129d6565b820191906000526020600020905b8154815290600101906020018083116129b957829003601f168201915b50505050508152602001906001019061293e565b50505050915080805480602002602001604051908101604052809291908181526020016000905b82821015612abd578382906000526020600020018054612a3090614799565b80601f0160208091040260200160405190810160405280929190818152602001828054612a5c90614799565b8015612aa95780601f10612a7e57610100808354040283529160200191612aa9565b820191906000526020600020905b815481529060010190602001808311612a8c57829003601f168201915b505050505081526020019060010190612a11565b50505050905091509150915091565b612ad461327c565b60005b81518110156118175760016101096000848481518110612af957612af9614a90565b6020908102919091018101516001600160a01b03168252810191909152604001600020805460ff191691151591909117905580612b3581614aa6565b915050612ad7565b612b4561327c565b61010380546001600160a01b0319166001600160a01b0392909216919091179055565b600083815261010560205260409020600201546001600160a01b0316331480612bab5750600083815261010560205260409020600101546001600160a01b031633145b612bc75760405162461bcd60e51b8152600401610a1b90614a1c565b612bd0836131ed565b60016000848152610105602052604090206006015460ff166007811115612bf957612bf96140f8565b1480612c2b575060026000848152610105602052604090206006015460ff166007811115612c2957612c296140f8565b145b612c475760405162461bcd60e51b8152600401610a1b90614abf565b600083815261010560205260409020600601805460ff19166005179055606080612c6f613f42565b600086815261010560205260409020600201546001600160a01b03163303612d3157604080516101a0810182528781526000888152610105602081815284832060018101546001600160a01b03908116838701528c855292825260020154909116838501526060830189905260808301829052835190810190935280835260a082019290925260c0810186905260fd5460e082015290610100820190815260208101849052604081018590526001606082015260006080909101529050612dcf565b50604080516101a0810182528681526000878152610105602081815284832060018101546001600160a01b03908116838701528b85529282526002015490911683850152606083018290526080830188905260a08301879052835190810190935280835260c082019290925260fd5460e082015261010081018290526101208101839052610140810184905261016081018290526101808101919091525b60fc546000908152610106602090815260409182902083518155908301516001820180546001600160a01b03199081166001600160a01b039384161790915592840151600283018054909416911617909155606082015160038201556080820151600482015560a08201518291906005820190612e4c90826148e9565b5060c08201516006820190612e6190826148e9565b5060e0820151600782015561010082015160088201805460ff191660018381811115612e8f57612e8f6140f8565b02179055506101208201518051612eb0916009840191602090910190613fd1565b506101408201518051612ecd91600a840191602090910190613fd1565b50610160820151600b90910180546101809093015115156101000261ff00199215159290921661ffff199093169290921717905560fc805460019190600090612f17908490614819565b9091555050505050505050565b612f2c61327c565b60008052610104602052600080516020614cf283398151915254612f57612f51611d5a565b82613b97565b506000808052610104602052600080516020614cf283398151915255565b612f7d61327c565b6001600160a01b038116612fe25760405162461bcd60e51b815260206004820152602660248201527f4f776e61626c653a206e6577206f776e657220697320746865207a65726f206160448201526564647265737360d01b6064820152608401610a1b565b61149881613a97565b600081815261010660205260409020600201546001600160a01b031633148061302e5750600081815261010660205260409020600101546001600160a01b031633145b6114985760405162461bcd60e51b8152600401610a1b90614a1c565b61305384612feb565b600084815261010660205260409020600201546001600160a01b031633036130d357600084815261010660209081526040909120825161309b92600a90920191840190613fd1565b506000848152610106602052604090206006016130b883826148e9565b5060008481526101066020526040902060030183905561312d565b60008481526101066020908152604090912082516130f992600990920191840190613fd1565b5060008481526101066020526040902060050161311683826148e9565b506000848152610106602052604090206004018390555b50505050565b806007811115613145576131456140f8565b6000838152610105602052604090206006015460ff16600781111561316c5761316c6140f8565b146118175760405162461bcd60e51b8152600401610a1b90614abf565b600081815261010560205260409020600201546001600160a01b031633146114985760405162461bcd60e51b81526020600482015260176024820152766e6f7420617574686f72697a65642041737369676e656560481b6044820152606401610a1b565b60fb548111156114985760405162461bcd60e51b8152602060048201526003602482015262434e4560e81b6044820152606401610a1b565b60008381526101056020526040902060060154610100900460ff1615613272576000838152610105602052604090206006015461175d906201000090046001600160a01b03168284613528565b61175d8183613b97565b33613285611d5a565b6001600160a01b031614611d395760405162461bcd60e51b815260206004820181905260248201527f4f776e61626c653a2063616c6c6572206973206e6f7420746865206f776e65726044820152606401610a1b565b600260c9540361332d5760405162461bcd60e51b815260206004820152601f60248201527f5265656e7472616e637947756172643a207265656e7472616e742063616c6c006044820152606401610a1b565b600260c955565b600080516020614d32833981519152546001600160a01b031690565b61149861327c565b7f4910fdfa16fed3260ed0e7147f7cc6da11a60208b5b9406d12a635614ffd91435460ff161561338b5761175d83613c5f565b826001600160a01b03166352d1902d6040518163ffffffff1660e01b8152600401602060405180830381865afa9250505080156133e5575060408051601f3d908101601f191682019092526133e291810190614849565b60015b6134485760405162461bcd60e51b815260206004820152602e60248201527f45524331393637557067726164653a206e657720696d706c656d656e7461746960448201526d6f6e206973206e6f74205555505360901b6064820152608401610a1b565b600080516020614d3283398151915281146134b75760405162461bcd60e51b815260206004820152602960248201527f45524331393637557067726164653a20756e737570706f727465642070726f786044820152681a58589b195555525160ba1b6064820152608401610a1b565b5061175d838383613cf9565b6001600160a01b03163b151590565b600054610100900460ff166134f95760405162461bcd60e51b8152600401610a1b90614ae5565b611d39613d1e565b600054610100900460ff16611d395760405162461bcd60e51b8152600401610a1b90614ae5565b6040516370a0823160e01b815283906001600160a01b038216906370a0823190613556903090600401614363565b602060405180830381865afa158015613573573d6000803e3d6000fd5b505050506040513d601f19601f820116820180604052508101906135979190614849565b8211156135b65760405162461bcd60e51b8152600401610a1b90614b30565b6040516323b872dd60e01b81526001600160a01b038216906323b872dd906135e690309087908790600401614862565b6020604051808303816000875af1158015613605573d6000803e3d6000fd5b505050506040513d601f19601f820116820180604052508101906136299190614886565b5050505050565b600081815261010560205260409020600101546001600160a01b031633146114985760405162461bcd60e51b81526020600482015260176024820152763737ba1030baba3437b934bd32b21020b9b9b4b3b732b960491b6044820152606401610a1b565b6001600160a01b0382166136e25760405162461bcd60e51b8152602060048201526015602482015274496e76616c696420746f6b656e206164647265737360581b6044820152606401610a1b565b6101015482906001600160a01b0390811690821603613773576101035460405163a9059cbb60e01b81526001600160a01b038381169263a9059cbb9261373092909116908690600401614b52565b6020604051808303816000875af115801561374f573d6000803e3d6000fd5b505050506040513d601f19601f8201168201806040525081019061312d9190614886565b6101005460405163095ea7b360e01b81526001600160a01b038381169263095ea7b3926137a892909116908690600401614b52565b6020604051808303816000875af11580156137c7573d6000803e3d6000fd5b505050506040513d601f19601f820116820180604052508101906137eb9190614886565b50604080516002808252606082018352600092602083019080368337019050509050838160008151811061382157613821614a90565b6001600160a01b0392831660209182029290920101526101015482519116908290600190811061385357613853614a90565b6001600160a01b0390921660209283029190910190910152600061387942610258614819565b61010054610103546040516338ed173960e01b81529293506001600160a01b03918216926338ed1739926138ba928992600092899216908890600401614baf565b6000604051808303816000875af11580156138d9573d6000803e3d6000fd5b505050506040513d6000823e601f3d908101601f191682016040526113cb9190810190614beb565b6139096132db565b604080516002808252606082018352600092602083019080368337505061010054604080516315ab88c960e31b815290519394506001600160a01b039091169263ad5c4648925060048083019260209291908290030181865afa158015613974573d6000803e3d6000fd5b505050506040513d601f19601f820116820180604052508101906139989190614c70565b816000815181106139ab576139ab614a90565b6001600160a01b039283166020918202929092010152610101548251911690829060019081106139dd576139dd614a90565b6001600160a01b03909216602092830291909101909101526000613a0342610258614819565b6101005461010354604051637ff36ab560e01b81529293506001600160a01b0391821692637ff36ab5928792613a43928492899216908890600401614c8d565b60006040518083038185885af1158015613a61573d6000803e3d6000fd5b50505050506040513d6000823e601f3d908101601f19168201604052613a8a9190810190614beb565b505050611498600160c955565b603380546001600160a01b038381166001600160a01b0319831681179093556040519116919082907f8be0079c531659141344cd1fd0a4f28419497f9722a3daafe3b4186f6b6457e090600090a35050565b6000613af6600a85614a5b565b90508215613b4e5760005b8551811015613b4857600a8114613b4857613b3683878381518110613b2857613b28614a90565b602002602001015184613528565b80613b4081614aa6565b915050613b01565b50613629565b60005b85518110156113cb57600a81146113cb57613b85868281518110613b7757613b77614a90565b602002602001015183613b97565b80613b8f81614aa6565b915050613b51565b613b9f6132db565b47811115613bbf5760405162461bcd60e51b8152600401610a1b90614b30565b6000826001600160a01b03168260405160006040518083038185875af1925050503d8060008114613c0c576040519150601f19603f3d011682016040523d82523d6000602084013e613c11565b606091505b5050905080613c545760405162461bcd60e51b815260206004820152600f60248201526e105b5bdd5b9d081b9bdd081cd95b9d608a1b6044820152606401610a1b565b50611817600160c955565b613c68816134c3565b613cca5760405162461bcd60e51b815260206004820152602d60248201527f455243313936373a206e657720696d706c656d656e746174696f6e206973206e60448201526c1bdd08184818dbdb9d1c9858dd609a1b6064820152608401610a1b565b600080516020614d3283398151915280546001600160a01b0319166001600160a01b0392909216919091179055565b613d0283613d4e565b600082511180613d0f5750805b1561175d5761312d8383613d8e565b600054610100900460ff16613d455760405162461bcd60e51b8152600401610a1b90614ae5565b611d3933613a97565b613d5781613c5f565b6040516001600160a01b038216907fbc7cd75a20ee27fd9adebab32041f755214dbc6bffa90cc0225b39da2e5c2d3b90600090a250565b6060613db38383604051806060016040528060278152602001614d5260279139613dbc565b90505b92915050565b6060600080856001600160a01b031685604051613dd99190614cc2565b600060405180830381855af49150503d8060008114613e14576040519150601f19603f3d011682016040523d82523d6000602084013e613e19565b606091505b5091509150613e2a86838387613e34565b9695505050505050565b60608315613ea1578251600003613e9a57613e4e856134c3565b613e9a5760405162461bcd60e51b815260206004820152601d60248201527f416464726573733a2063616c6c20746f206e6f6e2d636f6e74726163740000006044820152606401610a1b565b5081613eab565b613eab8383613eb3565b949350505050565b815115613ec35781518083602001fd5b8060405162461bcd60e51b8152600401610a1b9190614cde565b828054828255906000526020600020908101928215613f32579160200282015b82811115613f3257825182546001600160a01b0319166001600160a01b03909116178255602090920191600190910190613efd565b50613f3e929150614023565b5090565b604051806101a001604052806000815260200160006001600160a01b0316815260200160006001600160a01b03168152602001600081526020016000815260200160608152602001606081526020016000815260200160006001811115613fab57613fab6140f8565b815260200160608152602001606081526020016000151581526020016000151581525090565b828054828255906000526020600020908101928215614017579160200282015b82811115614017578251829061400790826148e9565b5091602001919060010190613ff1565b50613f3e929150614038565b5b80821115613f3e5760008155600101614024565b80821115613f3e57600061404c8282614055565b50600101614038565b50805461406190614799565b6000825580601f10614071575050565b601f0160209004906000526020600020908101906114989190614023565b6000602082840312156140a157600080fd5b5035919050565b60005b838110156140c35781810151838201526020016140ab565b50506000910152565b600081518084526140e48160208601602086016140a8565b601f01601f19169290920160200192915050565b634e487b7160e01b600052602160045260246000fd5b8981526001600160a01b038981166020830152888116604083015260608201889052610120608083018190526000916141498483018a6140cc565b915083820360a085015261415d82896140cc565b92506008871061416f5761416f6140f8565b8660c085015285151560e085015280851661010085015250509a9950505050505050505050565b634e487b7160e01b600052604160045260246000fd5b604051601f8201601f191681016001600160401b03811182821017156141d4576141d4614196565b604052919050565b60006001600160401b038311156141f5576141f5614196565b614208601f8401601f19166020016141ac565b905082815283838301111561421c57600080fd5b828260208301376000602084830101529392505050565b600082601f83011261424457600080fd5b613db3838335602085016141dc565b60006001600160401b0382111561426c5761426c614196565b5060051b60200190565b6000806000806080858703121561428c57600080fd5b84359350602080860135935060408601356001600160401b03808211156142b257600080fd5b6142be89838a01614233565b945060608801359150808211156142d457600080fd5b818801915088601f8301126142e857600080fd5b81356142fb6142f682614253565b6141ac565b81815260059190911b8301840190848101908b83111561431a57600080fd5b8585015b83811015614352578035858111156143365760008081fd5b6143448e89838a0101614233565b84525091860191860161431e565b50989b979a50959850505050505050565b6001600160a01b0391909116815260200190565b6000806040838503121561438a57600080fd5b50508035926020909101359150565b6001600160a01b038116811461149857600080fd5b6000602082840312156143c057600080fd5b81356143cb81614399565b9392505050565b6020808252825182820181905260009190848201906040850190845b8181101561440a578351835292840192918401916001016143ee565b50909695505050505050565b801515811461149857600080fd5b60008060008060008060c0878903121561443d57600080fd5b863561444881614399565b95506020870135945060408701356001600160401b038082111561446b57600080fd5b6144778a838b01614233565b9550606089013591508082111561448d57600080fd5b5061449a89828a01614233565b93505060808701356144ab81614416565b915060a08701356144bb81614399565b809150509295509295509295565b600080604083850312156144dc57600080fd5b82356144e781614399565b946020939093013593505050565b6000806040838503121561450857600080fd5b823561451381614399565b9150602083013561452381614399565b809150509250929050565b6000806040838503121561454157600080fd5b823561454c81614399565b915060208301356001600160401b0381111561456757600080fd5b8301601f8101851361457857600080fd5b614587858235602084016141dc565b9150509250929050565b8b81526001600160a01b038b811660208301528a166040820152606081018990526080810188905261016060a082018190526000906145d28382018a6140cc565b905082810360c08401526145e681896140cc565b9150508560e0830152600285106145ff576145ff6140f8565b8461010083015283151561012083015261461e61014083018415159052565b9c9b505050505050505050505050565b600081518084526020808501808196508360051b8101915082860160005b858110156146765782840389526146648483516140cc565b9885019893509084019060010161464c565b5091979650505050505050565b604081526000614696604083018561462e565b82810360208401526146a8818561462e565b95945050505050565b600060208083850312156146c457600080fd5b82356001600160401b038111156146da57600080fd5b8301601f810185136146eb57600080fd5b80356146f96142f682614253565b81815260059190911b8201830190838101908783111561471857600080fd5b928401925b8284101561473f57833561473081614399565b8252928401929084019061471d565b979650505050505050565b60008060006060848603121561475f57600080fd5b833592506020840135915060408401356001600160401b0381111561478357600080fd5b61478f86828701614233565b9150509250925092565b600181811c908216806147ad57607f821691505b6020821081036147cd57634e487b7160e01b600052602260045260246000fd5b50919050565b602080825260169082015275111a5cdc1d5d1948191bd95cc81b9bdd08195e1a5cdd60521b604082015260600190565b634e487b7160e01b600052601160045260246000fd5b80820180821115613db657613db6614803565b602080825260039082015262444e4560e81b604082015260600190565b60006020828403121561485b57600080fd5b5051919050565b6001600160a01b039384168152919092166020820152604081019190915260600190565b60006020828403121561489857600080fd5b81516143cb81614416565b601f82111561175d57600081815260208120601f850160051c810160208610156148ca5750805b601f850160051c820191505b818110156113cb578281556001016148d6565b81516001600160401b0381111561490257614902614196565b614916816149108454614799565b846148a3565b602080601f83116001811461494b57600084156149335750858301515b600019600386901b1c1916600185901b1785556113cb565b600085815260208120601f198616915b8281101561497a5788860151825594840194600190910190840161495b565b50858210156149985787850151600019600388901b60f8161c191681555b5050505050600190811b01905550565b6020808252602c90820152600080516020614d1283398151915260408201526b19195b1959d85d1958d85b1b60a21b606082015260800190565b6020808252602c90820152600080516020614d1283398151915260408201526b6163746976652070726f787960a01b606082015260800190565b6020808252600e908201526d139bdd08185d5d1a1bdc9a5e995960921b604082015260600190565b8082028115828204841417613db657613db6614803565b600082614a7857634e487b7160e01b600052601260045260246000fd5b500490565b81810381811115613db657613db6614803565b634e487b7160e01b600052603260045260246000fd5b600060018201614ab857614ab8614803565b5060010190565b6020808252600c908201526b139bdd081858d8d95c1d195960a21b604082015260600190565b6020808252602b908201527f496e697469616c697a61626c653a20636f6e7472616374206973206e6f74206960408201526a6e697469616c697a696e6760a81b606082015260800190565b6020808252600890820152674e6f2046756e647360c01b604082015260600190565b6001600160a01b03929092168252602082015260400190565b600081518084526020808501945080840160005b83811015614ba45781516001600160a01b031687529582019590820190600101614b7f565b509495945050505050565b85815284602082015260a060408201526000614bce60a0830186614b6b565b6001600160a01b0394909416606083015250608001529392505050565b60006020808385031215614bfe57600080fd5b82516001600160401b03811115614c1457600080fd5b8301601f81018513614c2557600080fd5b8051614c336142f682614253565b81815260059190911b82018301908381019087831115614c5257600080fd5b928401925b8284101561473f57835182529284019290840190614c57565b600060208284031215614c8257600080fd5b81516143cb81614399565b848152608060208201526000614ca66080830186614b6b565b6001600160a01b03949094166040830152506060015292915050565b60008251614cd48184602087016140a8565b9190910192915050565b602081526000613db360208301846140cc56fe0c81ce4857d5b94b8c75139d9e9e2911ece8cd067eddba6000e40a08e09d564346756e6374696f6e206d7573742062652063616c6c6564207468726f75676820360894a13ba1a3210667c828492db98dca3e2076cc3735a920a3ca505d382bbc416464726573733a206c6f772d6c6576656c2064656c65676174652063616c6c206661696c6564683bc5c048db63a19aca077ebaf602240dbaec371f0bc19856f49fc6c004e38da2646970667358221220c949a12f352da118179100f46cf7b88efc1ea5339484dd8f9ef72498cfeed4c764736f6c63430008110033",
	"linkReferences": {},
	"deployedLinkReferences": {}
}