{
	"_format": "hh-sol-artifact-1",
	"contractName": "Cscrow",
	"sourceName": "contracts/Cscrow.sol",
	"abi": [
		{
			"inputs": [],
			"stateMutability": "nonpayable",
			"type": "constructor"
		},
		{
			"anonymous": false,
			"inputs": [
				{
					"indexed": false,
					"internalType": "address",
					"name": "previousAdmin",
					"type": "address"
				},
				{
					"indexed": false,
					"internalType": "address",
					"name": "newAdmin",
					"type": "address"
				}
			],
			"name": "AdminChanged",
			"type": "event"
		},
		{
			"anonymous": false,
			"inputs": [
				{
					"indexed": true,
					"internalType": "address",
					"name": "beacon",
					"type": "address"
				}
			],
			"name": "BeaconUpgraded",
			"type": "event"
		},
		{
			"anonymous": false,
			"inputs": [
				{
					"indexed": true,
					"internalType": "uint256",
					"name": "id",
					"type": "uint256"
				},
				{
					"indexed": true,
					"internalType": "address",
					"name": "assignor",
					"type": "address"
				},
				{
					"indexed": true,
					"internalType": "address",
					"name": "assignee",
					"type": "address"
				}
			],
			"name": "ContractAccepted",
			"type": "event"
		},
		{
			"anonymous": false,
			"inputs": [
				{
					"indexed": true,
					"internalType": "uint256",
					"name": "id",
					"type": "uint256"
				},
				{
					"indexed": true,
					"internalType": "address",
					"name": "assignor",
					"type": "address"
				},
				{
					"indexed": true,
					"internalType": "address",
					"name": "assignee",
					"type": "address"
				}
			],
			"name": "ContractCancelled",
			"type": "event"
		},
		{
			"anonymous": false,
			"inputs": [
				{
					"indexed": true,
					"internalType": "uint256",
					"name": "id",
					"type": "uint256"
				},
				{
					"indexed": true,
					"internalType": "address",
					"name": "assignor",
					"type": "address"
				},
				{
					"indexed": true,
					"internalType": "address",
					"name": "assignee",
					"type": "address"
				}
			],
			"name": "ContractCompleted",
			"type": "event"
		},
		{
			"anonymous": false,
			"inputs": [
				{
					"indexed": true,
					"internalType": "uint256",
					"name": "id",
					"type": "uint256"
				},
				{
					"indexed": true,
					"internalType": "address",
					"name": "assignor",
					"type": "address"
				},
				{
					"indexed": true,
					"internalType": "address",
					"name": "assignee",
					"type": "address"
				}
			],
			"name": "ContractCreated",
			"type": "event"
		},
		{
			"anonymous": false,
			"inputs": [
				{
					"indexed": true,
					"internalType": "uint256",
					"name": "id",
					"type": "uint256"
				},
				{
					"indexed": true,
					"internalType": "address",
					"name": "assignor",
					"type": "address"
				},
				{
					"indexed": true,
					"internalType": "address",
					"name": "assignee",
					"type": "address"
				}
			],
			"name": "ContractEnded",
			"type": "event"
		},
		{
			"anonymous": false,
			"inputs": [
				{
					"indexed": true,
					"internalType": "uint256",
					"name": "id",
					"type": "uint256"
				},
				{
					"indexed": true,
					"internalType": "address",
					"name": "assignor",
					"type": "address"
				},
				{
					"indexed": true,
					"internalType": "address",
					"name": "assignee",
					"type": "address"
				}
			],
			"name": "DisputeCreated",
			"type": "event"
		},
		{
			"anonymous": false,
			"inputs": [
				{
					"indexed": false,
					"internalType": "uint8",
					"name": "version",
					"type": "uint8"
				}
			],
			"name": "Initialized",
			"type": "event"
		},
		{
			"anonymous": false,
			"inputs": [
				{
					"indexed": true,
					"internalType": "address",
					"name": "previousOwner",
					"type": "address"
				},
				{
					"indexed": true,
					"internalType": "address",
					"name": "newOwner",
					"type": "address"
				}
			],
			"name": "OwnershipTransferred",
			"type": "event"
		},
		{
			"anonymous": false,
			"inputs": [
				{
					"indexed": true,
					"internalType": "address",
					"name": "implementation",
					"type": "address"
				}
			],
			"name": "Upgraded",
			"type": "event"
		},
		{
			"inputs": [
				{
					"internalType": "uint256",
					"name": "_id",
					"type": "uint256"
				}
			],
			"name": "acceptContract",
			"outputs": [],
			"stateMutability": "nonpayable",
			"type": "function"
		},
		{
			"inputs": [
				{
					"internalType": "uint256",
					"name": "_disputeId",
					"type": "uint256"
				}
			],
			"name": "acceptDispute",
			"outputs": [],
			"stateMutability": "nonpayable",
			"type": "function"
		},
		{
			"inputs": [
				{
					"internalType": "address[]",
					"name": "_tokens",
					"type": "address[]"
				}
			],
			"name": "addEnableTokens",
			"outputs": [],
			"stateMutability": "nonpayable",
			"type": "function"
		},
		{
			"inputs": [
				{
					"internalType": "uint256",
					"name": "_disputeId",
					"type": "uint256"
				},
				{
					"internalType": "uint256",
					"name": "_amount",
					"type": "uint256"
				},
				{
					"internalType": "string",
					"name": "_details",
					"type": "string"
				},
				{
					"internalType": "string[]",
					"name": "_profs",
					"type": "string[]"
				}
			],
			"name": "addProofsForDisputeLevel2",
			"outputs": [],
			"stateMutability": "nonpayable",
			"type": "function"
		},
		{
			"inputs": [
				{
					"internalType": "uint256",
					"name": "_id",
					"type": "uint256"
				}
			],
			"name": "alreadyVoted",
			"outputs": [
				{
					"internalType": "bool",
					"name": "",
					"type": "bool"
				}
			],
			"stateMutability": "view",
			"type": "function"
		},
		{
			"inputs": [
				{
					"internalType": "uint256",
					"name": "_id",
					"type": "uint256"
				}
			],
			"name": "approveContract",
			"outputs": [],
			"stateMutability": "nonpayable",
			"type": "function"
		},
		{
			"inputs": [
				{
					"internalType": "address",
					"name": "",
					"type": "address"
				}
			],
			"name": "companyProfits",
			"outputs": [
				{
					"internalType": "uint256",
					"name": "",
					"type": "uint256"
				}
			],
			"stateMutability": "view",
			"type": "function"
		},
		{
			"inputs": [
				{
					"internalType": "uint256",
					"name": "_id",
					"type": "uint256"
				}
			],
			"name": "completeContract",
			"outputs": [],
			"stateMutability": "nonpayable",
			"type": "function"
		},
		{
			"inputs": [
				{
					"internalType": "address",
					"name": "_assignee",
					"type": "address"
				},
				{
					"internalType": "uint256",
					"name": "_amount",
					"type": "uint256"
				},
				{
					"internalType": "string",
					"name": "_details",
					"type": "string"
				},
				{
					"internalType": "string",
					"name": "_title",
					"type": "string"
				},
				{
					"internalType": "bool",
					"name": "_token",
					"type": "bool"
				},
				{
					"internalType": "address",
					"name": "_tokenAddress",
					"type": "address"
				}
			],
			"name": "createContract",
			"outputs": [],
			"stateMutability": "payable",
			"type": "function"
		},
		{
			"inputs": [
				{
					"internalType": "uint256",
					"name": "_id",
					"type": "uint256"
				},
				{
					"internalType": "uint256",
					"name": "_amount",
					"type": "uint256"
				},
				{
					"internalType": "string",
					"name": "_details",
					"type": "string"
				}
			],
			"name": "createDisputeLevel1",
			"outputs": [],
			"stateMutability": "nonpayable",
			"type": "function"
		},
		{
			"inputs": [
				{
					"internalType": "uint256",
					"name": "_disputeId",
					"type": "uint256"
				},
				{
					"internalType": "uint256",
					"name": "_amount",
					"type": "uint256"
				},
				{
					"internalType": "string",
					"name": "_details",
					"type": "string"
				},
				{
					"internalType": "string[]",
					"name": "_profs",
					"type": "string[]"
				}
			],
			"name": "createDisputeLevel2",
			"outputs": [],
			"stateMutability": "nonpayable",
			"type": "function"
		},
		{
			"inputs": [
				{
					"internalType": "uint256",
					"name": "",
					"type": "uint256"
				}
			],
			"name": "disputes",
			"outputs": [
				{
					"internalType": "uint256",
					"name": "escrowId",
					"type": "uint256"
				},
				{
					"internalType": "address",
					"name": "assignor",
					"type": "address"
				},
				{
					"internalType": "address",
					"name": "assignee",
					"type": "address"
				},
				{
					"internalType": "uint256",
					"name": "amountDisputedAssignee",
					"type": "uint256"
				},
				{
					"internalType": "uint256",
					"name": "amountDisputedAssignor",
					"type": "uint256"
				},
				{
					"internalType": "string",
					"name": "assignorDetails",
					"type": "string"
				},
				{
					"internalType": "string",
					"name": "assigneeDetails",
					"type": "string"
				},
				{
					"internalType": "uint256",
					"name": "validatorId",
					"type": "uint256"
				},
				{
					"internalType": "enum Structs.disputeLevel",
					"name": "disputeLevel",
					"type": "uint8"
				},
				{
					"internalType": "bool",
					"name": "assigneeCreatedDispute",
					"type": "bool"
				},
				{
					"internalType": "bool",
					"name": "validationStarted",
					"type": "bool"
				}
			],
			"stateMutability": "view",
			"type": "function"
		},
		{
			"inputs": [
				{
					"internalType": "address",
					"name": "",
					"type": "address"
				}
			],
			"name": "enabledTokens",
			"outputs": [
				{
					"internalType": "bool",
					"name": "",
					"type": "bool"
				}
			],
			"stateMutability": "view",
			"type": "function"
		},
		{
			"inputs": [
				{
					"internalType": "uint256",
					"name": "",
					"type": "uint256"
				}
			],
			"name": "escrows",
			"outputs": [
				{
					"internalType": "uint256",
					"name": "id",
					"type": "uint256"
				},
				{
					"internalType": "address",
					"name": "assignor",
					"type": "address"
				},
				{
					"internalType": "address",
					"name": "assignee",
					"type": "address"
				},
				{
					"internalType": "uint256",
					"name": "amount",
					"type": "uint256"
				},
				{
					"internalType": "string",
					"name": "details",
					"type": "string"
				},
				{
					"internalType": "string",
					"name": "title",
					"type": "string"
				},
				{
					"internalType": "enum Structs.ContractStatus",
					"name": "status",
					"type": "uint8"
				},
				{
					"internalType": "bool",
					"name": "token",
					"type": "bool"
				},
				{
					"internalType": "address",
					"name": "tokenAddress",
					"type": "address"
				}
			],
			"stateMutability": "view",
			"type": "function"
		},
		{
			"inputs": [
				{
					"internalType": "address",
					"name": "_address",
					"type": "address"
				}
			],
			"name": "getMyContracts",
			"outputs": [
				{
					"internalType": "uint256[]",
					"name": "",
					"type": "uint256[]"
				}
			],
			"stateMutability": "view",
			"type": "function"
		},
		{
			"inputs": [
				{
					"internalType": "address",
					"name": "_address",
					"type": "address"
				}
			],
			"name": "getPoints",
			"outputs": [
				{
					"internalType": "uint256",
					"name": "",
					"type": "uint256"
				}
			],
			"stateMutability": "view",
			"type": "function"
		},
		{
			"inputs": [
				{
					"internalType": "uint256",
					"name": "_diputeId",
					"type": "uint256"
				}
			],
			"name": "getProofs",
			"outputs": [
				{
					"internalType": "string[]",
					"name": "",
					"type": "string[]"
				},
				{
					"internalType": "string[]",
					"name": "",
					"type": "string[]"
				}
			],
			"stateMutability": "view",
			"type": "function"
		},
		{
			"inputs": [],
			"name": "initialize",
			"outputs": [],
			"stateMutability": "nonpayable",
			"type": "function"
		},
		{
			"inputs": [
				{
					"internalType": "address",
					"name": "_token",
					"type": "address"
				}
			],
			"name": "isTokenEnabled",
			"outputs": [
				{
					"internalType": "bool",
					"name": "",
					"type": "bool"
				}
			],
			"stateMutability": "view",
			"type": "function"
		},
		{
			"inputs": [
				{
					"internalType": "address",
					"name": "",
					"type": "address"
				},
				{
					"internalType": "uint256",
					"name": "",
					"type": "uint256"
				}
			],
			"name": "myContracts",
			"outputs": [
				{
					"internalType": "uint256",
					"name": "",
					"type": "uint256"
				}
			],
			"stateMutability": "view",
			"type": "function"
		},
		{
			"inputs": [
				{
					"internalType": "uint256",
					"name": "_id",
					"type": "uint256"
				}
			],
			"name": "notAcceptContract",
			"outputs": [],
			"stateMutability": "nonpayable",
			"type": "function"
		},
		{
			"inputs": [],
			"name": "owner",
			"outputs": [
				{
					"internalType": "address",
					"name": "",
					"type": "address"
				}
			],
			"stateMutability": "view",
			"type": "function"
		},
		{
			"inputs": [
				{
					"internalType": "address",
					"name": "",
					"type": "address"
				}
			],
			"name": "points",
			"outputs": [
				{
					"internalType": "uint256",
					"name": "",
					"type": "uint256"
				}
			],
			"stateMutability": "view",
			"type": "function"
		},
		{
			"inputs": [],
			"name": "proxiableUUID",
			"outputs": [
				{
					"internalType": "bytes32",
					"name": "",
					"type": "bytes32"
				}
			],
			"stateMutability": "view",
			"type": "function"
		},
		{
			"inputs": [],
			"name": "renounceOwnership",
			"outputs": [],
			"stateMutability": "nonpayable",
			"type": "function"
		},
		{
			"inputs": [
				{
					"internalType": "uint256",
					"name": "_disputeId",
					"type": "uint256"
				}
			],
			"name": "resolveDispute",
			"outputs": [],
			"stateMutability": "nonpayable",
			"type": "function"
		},
		{
			"inputs": [],
			"name": "totalDisputes",
			"outputs": [
				{
					"internalType": "uint256",
					"name": "",
					"type": "uint256"
				}
			],
			"stateMutability": "view",
			"type": "function"
		},
		{
			"inputs": [],
			"name": "totalEscrows",
			"outputs": [
				{
					"internalType": "uint256",
					"name": "",
					"type": "uint256"
				}
			],
			"stateMutability": "view",
			"type": "function"
		},
		{
			"inputs": [],
			"name": "totalValidators",
			"outputs": [
				{
					"internalType": "uint256",
					"name": "",
					"type": "uint256"
				}
			],
			"stateMutability": "view",
			"type": "function"
		},
		{
			"inputs": [
				{
					"internalType": "address",
					"name": "newOwner",
					"type": "address"
				}
			],
			"name": "transferOwnership",
			"outputs": [],
			"stateMutability": "nonpayable",
			"type": "function"
		},
		{
			"inputs": [
				{
					"internalType": "address",
					"name": "newImplementation",
					"type": "address"
				}
			],
			"name": "upgradeTo",
			"outputs": [],
			"stateMutability": "nonpayable",
			"type": "function"
		},
		{
			"inputs": [
				{
					"internalType": "address",
					"name": "newImplementation",
					"type": "address"
				},
				{
					"internalType": "bytes",
					"name": "data",
					"type": "bytes"
				}
			],
			"name": "upgradeToAndCall",
			"outputs": [],
			"stateMutability": "payable",
			"type": "function"
		},
		{
			"inputs": [
				{
					"internalType": "uint256",
					"name": "_validateId",
					"type": "uint256"
				},
				{
					"internalType": "uint256",
					"name": "voteFor",
					"type": "uint256"
				}
			],
			"name": "validate",
			"outputs": [],
			"stateMutability": "nonpayable",
			"type": "function"
		},
		{
			"inputs": [
				{
					"internalType": "uint256",
					"name": "",
					"type": "uint256"
				}
			],
			"name": "validators",
			"outputs": [
				{
					"internalType": "uint256",
					"name": "disputeId",
					"type": "uint256"
				},
				{
					"internalType": "uint256",
					"name": "votesForAssignor",
					"type": "uint256"
				},
				{
					"internalType": "uint256",
					"name": "votesForAssignee",
					"type": "uint256"
				},
				{
					"internalType": "bool",
					"name": "assignorWon",
					"type": "bool"
				},
				{
					"internalType": "bool",
					"name": "assigneeWon",
					"type": "bool"
				},
				{
					"internalType": "bool",
					"name": "draw",
					"type": "bool"
				},
				{
					"internalType": "bool",
					"name": "nextChance",
					"type": "bool"
				},
				{
					"internalType": "uint256",
					"name": "validationCreateTime",
					"type": "uint256"
				}
			],
			"stateMutability": "view",
			"type": "function"
		},
		{
			"inputs": [],
			"name": "withdrawCompleteCommissionNative",
			"outputs": [],
			"stateMutability": "nonpayable",
			"type": "function"
		},
		{
			"inputs": [
				{
					"internalType": "address",
					"name": "_token",
					"type": "address"
				}
			],
			"name": "withdrawCompleteCommissionToken",
			"outputs": [],
			"stateMutability": "nonpayable",
			"type": "function"
		},
		{
			"inputs": [
				{
					"internalType": "uint256",
					"name": "_id",
					"type": "uint256"
				}
			],
			"name": "withdrawContract",
			"outputs": [],
			"stateMutability": "nonpayable",
			"type": "function"
		}
	],
	"bytecode": "0x60a0604052306080523480156200001557600080fd5b506200002062000026565b620000e7565b600054610100900460ff1615620000935760405162461bcd60e51b815260206004820152602760248201527f496e697469616c697a61626c653a20636f6e747261637420697320696e697469604482015266616c697a696e6760c81b606482015260840160405180910390fd5b60005460ff90811614620000e5576000805460ff191660ff9081179091556040519081527f7f26b83ff96e1f2b6a682f133852f6798a09c465da95921460cefb38474024989060200160405180910390a15b565b60805161454e6200011f600039600081816112f60152818161133601528181611555015281816115950152611628015261454e6000f3fe60806040526004361061021a5760003560e01c8063715018a611610123578063b451cecc116100ab578063c81b356b1161006f578063c81b356b1461071a578063e2080b2214610730578063ebb0977b14610750578063ee204abb14610765578063f2fde38b1461079c57600080fd5b8063b451cecc14610665578063c2b7b86814610696578063c31e2c31146106b6578063c5e4ccc4146106e4578063c6c6ebca146106fa57600080fd5b8063930048bc116100f2578063930048bc146105b857806398a844b9146105e55780639a115c0414610605578063b0191b8f14610625578063b1e7a1f01461064557600080fd5b8063715018a61461051c578063748538d9146105315780638129fc1c1461057b5780638da5cb5b1461059057600080fd5b80633ca3d81d116101a65780635452fb8a116101755780635452fb8a1461046f578063564a565d1461048f57806358ee94cd146104c657806362c35c01146104e657806363ee7c8d1461050657600080fd5b80633ca3d81d1461040757806344aa4095146104275780634f1ef2861461044757806352d1902d1461045a57600080fd5b806332039e01116101ed57806332039e01146102bf57806334f2a20b146102ec578063358b8166146102ff57806335aa2e441461033b5780633659cfe6146103e757600080fd5b8063012f52ee1461021f5780630773750d1461025d5780630935a1231461027f57806319730b441461029f575b600080fd5b34801561022b57600080fd5b5061023f61023a366004613a5d565b6107bc565b60405161025499989796959493929190613adc565b60405180910390f35b34801561026957600080fd5b5061027d610278366004613c47565b610935565b005b34801561028b57600080fd5b5061027d61029a366004613a5d565b610b11565b3480156102ab57600080fd5b5061027d6102ba366004613d35565b610b92565b3480156102cb57600080fd5b506102df6102da366004613d73565b610d63565b6040516102549190613d8e565b61027d6102fa366004613de0565b610dd0565b34801561030b57600080fd5b5061032d61031a366004613d73565b6101026020526000908152604090205481565b604051908152602001610254565b34801561034757600080fd5b506103a6610356366004613a5d565b610101602052600090815260409020805460028201546003830154600484015460059094015492939192909160ff8082169261010083048216926201000081048316926301000000909104169088565b60408051988952602089019790975295870194909452911515606086015215156080850152151560a0840152151560c083015260e082015261010001610254565b3480156103f357600080fd5b5061027d610402366004613d73565b6112ec565b34801561041357600080fd5b5061027d610422366004613c47565b6113cb565b34801561043357600080fd5b5061032d610442366004613e80565b611519565b61027d610455366004613eaa565b61154b565b34801561046657600080fd5b5061032d61161b565b34801561047b57600080fd5b5061027d61048a366004613d73565b6116ce565b34801561049b57600080fd5b506104af6104aa366004613a5d565b611726565b6040516102549b9a99989796959493929190613f0c565b3480156104d257600080fd5b5061027d6104e1366004613a5d565b6118a4565b3480156104f257600080fd5b5061027d610501366004613a5d565b611926565b34801561051257600080fd5b5061032d60fb5481565b34801561052857600080fd5b5061027d611aa5565b34801561053d57600080fd5b5061056b61054c366004613d73565b6001600160a01b03166000908152610103602052604090205460ff1690565b6040519015158152602001610254565b34801561058757600080fd5b5061027d611ab9565b34801561059c57600080fd5b506033546040516001600160a01b039091168152602001610254565b3480156105c457600080fd5b5061032d6105d3366004613d73565b60fe6020526000908152604090205481565b3480156105f157600080fd5b5061027d610600366004613a5d565b611bd1565b34801561061157600080fd5b5061027d610620366004613a5d565b611c2a565b34801561063157600080fd5b5061027d610640366004613a5d565b611cab565b34801561065157600080fd5b5061056b610660366004613a5d565b61201f565b34801561067157600080fd5b5061056b610680366004613d73565b6101036020526000908152604090205460ff1681565b3480156106a257600080fd5b5061027d6106b1366004613a5d565b6120a2565b3480156106c257600080fd5b506106d66106d1366004613a5d565b6126b6565b604051610254929190613ffe565b3480156106f057600080fd5b5061032d60fc5481565b34801561070657600080fd5b5061027d61071536600461402c565b612880565b34801561072657600080fd5b5061032d60fd5481565b34801561073c57600080fd5b5061027d61074b3660046140c4565b6128f1565b34801561075c57600080fd5b5061027d612cc6565b34801561077157600080fd5b5061032d610780366004613d73565b6001600160a01b03166000908152610102602052604090205490565b3480156107a857600080fd5b5061027d6107b7366004613d73565b612d1f565b60ff602052600090815260409020805460018201546002830154600384015460048501805494956001600160a01b0394851695939094169391926107ff90614114565b80601f016020809104026020016040519081016040528092919081815260200182805461082b90614114565b80156108785780601f1061084d57610100808354040283529160200191610878565b820191906000526020600020905b81548152906001019060200180831161085b57829003601f168201915b50505050509080600501805461088d90614114565b80601f01602080910402602001604051908101604052809291908181526020018280546108b990614114565b80156109065780601f106108db57610100808354040283529160200191610906565b820191906000526020600020905b8154815290600101906020018083116108e957829003601f168201915b5050506006909301549192505060ff808216916101008104909116906001600160a01b03620100009091041689565b60fc548411156109605760405162461bcd60e51b81526004016109579061414e565b60405180910390fd5b60016000858152610100602052604090206008015460ff16600181111561098957610989613ac6565b146109a65760405162461bcd60e51b81526004016109579061416b565b6109af84612d95565b6109bb84848484612df4565b600084815261010060205260409020546109d6906005612edd565b60408051610120810182528581526060602080830182815260008486018190528484018190526080850181905260a0850181905260c0850181905260e085018190524261010086015260fd5481526101018352949094208351815593518051929484939092610a4c9260018501929101906138ab565b506040820151600282015560608201516003820155608082015160048201805460a085015160c086015160e087015161ffff1990931694151561ff0019169490941761010091151582021763ffff00001916620100009415159490940263ff0000001916939093176301000000911515919091021790559091015160059091015560fd805460019190600090610ae39084906141a6565b9091555050506000948552505061010060208190526040909320600b01805461ff0019169093179092555050565b610b1a81612f52565b610b2381612fb2565b610b2e816000612edd565b600081815260ff602052604080822060068101805460ff19166004179055600281015460019091015491516001600160a01b0391821693919092169184917f683bc5c048db63a19aca077ebaf602240dbaec371f0bc19856f49fc6c004e38d91a450565b60fd54821115610bca5760405162461bcd60e51b8152602060048201526003602482015262564e4560e81b6044820152606401610957565b60fc54600083815261010160205260409020541115610bfb5760405162461bcd60e51b81526004016109579061414e565b610c048261201f565b15610c415760405162461bcd60e51b815260206004820152600d60248201526c105b1c9958591e481d9bdd1959609a1b6044820152606401610957565b600082815261010160205260409020600501544290610c6390620151806141a6565b1015610ca05760405162461bcd60e51b815260206004820152600c60248201526b151a5b5948195e1c1a5c995960a21b6044820152606401610957565b80600003610cd657600082815261010160205260408120600201805460019290610ccb9084906141a6565b90915550610d079050565b80600103610d0757600082815261010160205260408120600301805460019290610d019084906141a6565b90915550505b6000828152610101602090815260408083206001908101805480830182559085528385200180546001600160a01b0319163390811790915584526101029092528220805491929091610d5a9084906141a6565b90915550505050565b6001600160a01b03811660009081526101046020908152604091829020805483518184028101840190945280845260609392830182828015610dc457602002820191906000526020600020905b815481526020019060010190808311610db0575b50505050509050919050565b610dd8612fea565b6001600160a01b038616610e205760405162461bcd60e51b815260206004820152600f60248201526e496e76616c6964206164647265737360881b6044820152606401610957565b60008511610e5d5760405162461bcd60e51b815260206004820152600a6024820152690416d6f756e74203c20360b41b6044820152606401610957565b6001600160a01b0386163303610e7257600080fd5b600082156110ab576001600160a01b0382166000908152610103602052604090205460ff16610ed75760405162461bcd60e51b8152602060048201526011602482015270151bdad95b881b9bdd08195b98589b1959607a1b6044820152606401610957565b604051636eb1769f60e11b8152336004820152306024820152829087906001600160a01b0383169063dd62ed3e90604401602060405180830381865afa158015610f25573d6000803e3d6000fd5b505050506040513d601f19601f82011682018060405250810190610f4991906141b9565b1015610f875760405162461bcd60e51b815260206004820152600d60248201526c6c6f7720616c6c6f77616e636560981b6044820152606401610957565b6040516370a0823160e01b815233600482015287906001600160a01b038316906370a0823190602401602060405180830381865afa158015610fcd573d6000803e3d6000fd5b505050506040513d601f19601f82011682018060405250810190610ff191906141b9565b101561102d5760405162461bcd60e51b815260206004820152600b60248201526a6c6f772062616c616e636560a81b6044820152606401610957565b6040516323b872dd60e01b8152336004820152306024820152604481018890526001600160a01b038216906323b872dd906064016020604051808303816000875af1158015611080573d6000803e3d6000fd5b505050506040513d601f19601f820116820180604052508101906110a491906141d2565b50506110e7565b853410156110e75760405162461bcd60e51b81526020600482015260096024820152686c6f772066756e647360b81b6044820152606401610957565b600060405180610120016040528060fb548152602001336001600160a01b03168152602001896001600160a01b0316815260200188815260200187815260200186815260200183600781111561113f5761113f613ac6565b81528515156020808301919091526001600160a01b0386811660409384015260fb54600090815260ff835283902084518155918401516001830180546001600160a01b031990811692841692909217905592840151600283018054909416911617909155606082015160038201556080820151919250829160048201906111c6908261423c565b5060a082015160058201906111db908261423c565b5060c082015160068201805460ff191660018360078111156111ff576111ff613ac6565b021790555060e0820151600691909101805461010093840151610100600160b01b031990911692151590930262010000600160b01b03191691909117620100006001600160a01b03938416021790553360008181526101046020908152604080832060fb80548254600181810185559387528587200155958e1680855282852087548154938401825590865293852090910192909255935493519093917f56560a52c047ed21fd801bf0f345b23d9af696f7922ff8e63101af5d48caddab91a4600160fb60008282546112d291906141a6565b9091555050600160c955506112e49050565b505050505050565b6001600160a01b037f00000000000000000000000000000000000000000000000000000000000000001630036113345760405162461bcd60e51b8152600401610957906142fc565b7f00000000000000000000000000000000000000000000000000000000000000006001600160a01b031661137d6000805160206144d2833981519152546001600160a01b031690565b6001600160a01b0316146113a35760405162461bcd60e51b815260040161095790614348565b6113ac81613043565b604080516000808252602082019092526113c89183919061304b565b50565b60fc548411156113ed5760405162461bcd60e51b81526004016109579061414e565b6000848152610100602052604081206008015460ff16600181111561141457611414613ac6565b146114315760405162461bcd60e51b81526004016109579061416b565b600084815261010060205260409020600b015460ff161561148b57600084815261010060205260409020600101546001600160a01b031633146114865760405162461bcd60e51b815260040161095790614394565b6114c5565b600084815261010060205260409020600201546001600160a01b031633146114c55760405162461bcd60e51b815260040161095790614394565b6114ce84612d95565b600084815261010060205260409020546114e9816005612edd565b600085815261010060205260409020600801805460ff1916600117905561151285858585612df4565b5050505050565b610104602052816000526040600020818154811061153657600080fd5b90600052602060002001600091509150505481565b6001600160a01b037f00000000000000000000000000000000000000000000000000000000000000001630036115935760405162461bcd60e51b8152600401610957906142fc565b7f00000000000000000000000000000000000000000000000000000000000000006001600160a01b03166115dc6000805160206144d2833981519152546001600160a01b031690565b6001600160a01b0316146116025760405162461bcd60e51b815260040161095790614348565b61160b82613043565b6116178282600161304b565b5050565b6000306001600160a01b037f000000000000000000000000000000000000000000000000000000000000000016146116bb5760405162461bcd60e51b815260206004820152603860248201527f555550535570677261646561626c653a206d757374206e6f742062652063616c60448201527f6c6564207468726f7567682064656c656761746563616c6c00000000000000006064820152608401610957565b506000805160206144d283398151915290565b6116d66131bb565b6001600160a01b038116600090815260fe602052604090205461170b826117056033546001600160a01b031690565b83613215565b506001600160a01b0316600090815260fe6020526040812055565b6101006020526000908152604090208054600182015460028301546003840154600485015460058601805495966001600160a01b039586169695909416949293919261177190614114565b80601f016020809104026020016040519081016040528092919081815260200182805461179d90614114565b80156117ea5780601f106117bf576101008083540402835291602001916117ea565b820191906000526020600020905b8154815290600101906020018083116117cd57829003601f168201915b5050505050908060060180546117ff90614114565b80601f016020809104026020016040519081016040528092919081815260200182805461182b90614114565b80156118785780601f1061184d57610100808354040283529160200191611878565b820191906000526020600020905b81548152906001019060200180831161185b57829003601f168201915b50505060078401546008850154600b909501549394909360ff918216935080821692506101009004168b565b6118ad81612f52565b6118b681612fb2565b6118c1816001612edd565b600081815260ff602052604080822060068101805460ff1916600290811790915581015460019091015491516001600160a01b0391821693919092169184917f6774e7512d62e65e414b9cc15969c36e32d465194057d4632ffd958e5182147191a450565b61192f81613332565b61193881612fb2565b611943816002612edd565b600081815260ff60205260408120600301549060646119638360026143bc565b61196d91906143d3565b9050600061197b82846143f5565b600085815260ff602081905260409091206006015491925061010090910416156119e757600084815260ff60209081526040808320600601546201000090046001600160a01b0316835260fe909152812080548492906119dc9084906141a6565b90915550611a169050565b600080805260fe6020526000805160206144b28339815191528054849290611a109084906141a6565b90915550505b600084815260ff6020526040902060020154611a3e90859083906001600160a01b0316613392565b600084815260ff602052604080822060068101805460ff19166003179055600281015460019091015491516001600160a01b0391821693919092169187917f94e224b06102dbac09bbe25b9727b78a711606f76142988ac62cec156098062791a450505050565b611aad6131bb565b611ab760006133e8565b565b600054610100900460ff1615808015611ad95750600054600160ff909116105b80611af35750303b158015611af3575060005460ff166001145b611b565760405162461bcd60e51b815260206004820152602e60248201527f496e697469616c697a61626c653a20636f6e747261637420697320616c72656160448201526d191e481a5b9a5d1a585b1a5e995960921b6064820152608401610957565b6000805460ff191660011790558015611b79576000805461ff0019166101001790555b611b8161343a565b611b89613469565b80156113c8576000805461ff0019169055604051600181527f7f26b83ff96e1f2b6a682f133852f6798a09c465da95921460cefb38474024989060200160405180910390a150565b611bda81613332565b611be381612fb2565b611bee816000612edd565b600081815260ff6020526040902060068101805460ff1916600717905560038101546001909101546113c89183916001600160a01b0316613392565b611c3381612f52565b611c3c81612fb2565b611c47816000612edd565b600081815260ff602052604080822060068101805460ff19166001908117909155600282015491015491516001600160a01b0391821693919092169184917f4e5adb6e5811e4671a3b0bdaceb025ec957432fc5562c7caefc0442dd9270ff291a450565b6000818152610100602052604081206008015460ff166001811115611cd257611cd2613ac6565b14611cef5760405162461bcd60e51b81526004016109579061416b565b611cf881612d95565b60008181526101006020526040902054611d1181612fb2565b611d1c816005612edd565b600082815261010060205260409020600b015460ff1615611d7657600082815261010060205260409020600101546001600160a01b03163314611d715760405162461bcd60e51b815260040161095790614394565b611db0565b600082815261010060205260409020600201546001600160a01b03163314611db05760405162461bcd60e51b815260040161095790614394565b600081815260ff6020526040812060068101805460ff1916600717905560030154906064611ddf8360026143bc565b611de991906143d3565b90506000611df782846143f5565b60008681526101006020526040812060020154919250906001600160a01b03163303611e615760008681526101006020526040902060030154611e3a90836143f5565b60008781526101006020526040902060030154909150611e5c90869033613392565b611ec2565b600086815261010060205260409020600101546001600160a01b03163303611ec25760008681526101006020526040902060040154611ea090836143f5565b60008781526101006020526040902060040154909150611ec290869033613392565b8015611f2e57600086815261010060205260408120600b015460ff1615611f045750600085815260ff60205260409020600101546001600160a01b0316611f21565b50600085815260ff60205260409020600201546001600160a01b03165b611f2c868383613392565b505b600085815260ff602081905260409091206006015461010090041615611f9657600085815260ff60209081526040808320600601546201000090046001600160a01b0316835260fe90915281208054859290611f8b9084906141a6565b90915550611fc59050565b600080805260fe6020526000805160206144b28339815191528054859290611fbf9084906141a6565b90915550505b600085815260ff6020526040808220600281015460019091015491516001600160a01b0391821693919092169188917f683bc5c048db63a19aca077ebaf602240dbaec371f0bc19856f49fc6c004e38d91a4505050505050565b6000805b600083815261010160205260409020600101548110156120995760008381526101016020526040902060010180543391908390811061206457612064614408565b6000918252602090912001546001600160a01b0316036120875750600192915050565b806120918161441e565b915050612023565b50600092915050565b6120aa6131bb565b60fc548111156120cc5760405162461bcd60e51b81526004016109579061414e565b6000818152610100602081815260408084206007810154815480875260ff8086529387206003015488885295909452600b90910154909492939291161561212657506000848152610100602052604090206003015461213b565b50600084815261010060205260409020600401545b6000606461214a8460026143bc565b61215491906143d3565b90506000606461216585600a6143bc565b61216f91906143d3565b9050600061217d82846141a6565b61218790866143f5565b9050600061219585836143f5565b905060006121a46002846143d3565b60008a8152610101602052604090206005015490915042906121c990620151806141a6565b11156122085760405162461bcd60e51b815260206004820152600e60248201526d54696d652072656d61696e696e6760901b6044820152606401610957565b60008981526101016020526040902060038101546002909101540361242257600089815261010160205260409020600401546301000000900460ff1661227657600089815261010160205260409020426005820155600401805463ff0000001916630100000017905561268f565b600088815260ff6020819052604090912060060154610100900416156122de57600088815260ff60209081526040808320600601546201000090046001600160a01b0316835260fe909152812080548792906122d39084906141a6565b9091555061230d9050565b600080805260fe6020526000805160206144b283398151915280548792906123079084906141a6565b90915550505b600089815261010160209081526040808320600401805462ff00001916620100001790558c835261010090915290206001015461235690899083906001600160a01b0316613392565b60008a8152610100602052604090206002015461237f90899083906001600160a01b0316613392565b60008981526101016020908152604091829020600101805483518184028101840190945280845261241d93928301828280156123e457602002820191906000526020600020905b81546001600160a01b031681526001909101906020018083116123c6575b50505060008c815260ff6020819052604090912060060154899350610100810490911691506201000090046001600160a01b0316613490565b61268f565b600089815261010160205260409020600381015460029091015411156124c1576000898152610101602090815260408083206004908101805460ff191660019081179091558e855261010090935292209182015491015461248d918a916001600160a01b0316613392565b81156124bc5760008a815261010060205260409020600201546124bc90899084906001600160a01b0316613392565b61255c565b6000898152610101602052604090206003810154600290910154101561255c57600089815261010160209081526040808320600401805461ff0019166101009081179091558d84529091529020600381015460029091015461252d918a916001600160a01b0316613392565b811561255c5760008a8152610100602052604090206002015461255c90899084906001600160a01b0316613392565b600088815260ff6020819052604090912060060154610100900416156125c457600088815260ff60209081526040808320600601546201000090046001600160a01b0316835260fe909152812080548792906125b99084906141a6565b909155506125f39050565b600080805260fe6020526000805160206144b283398151915280548792906125ed9084906141a6565b90915550505b60008981526101016020908152604091829020600101805483518184028101840190945280845261268f93928301828280156123e4576020028201919060005260206000209081546001600160a01b031681526001909101906020018083116123c65750505060008c815260ff6020819052604090912060060154899350610100810490911691506201000090046001600160a01b0316613490565b5050506000948552505060ff602052505060409020600601805460ff191660071790555050565b60008181526101006020908152604080832060098101805483518186028101860190945280845260609586959294600a90940193928592919084015b8282101561279e57838290600052602060002001805461271190614114565b80601f016020809104026020016040519081016040528092919081815260200182805461273d90614114565b801561278a5780601f1061275f5761010080835404028352916020019161278a565b820191906000526020600020905b81548152906001019060200180831161276d57829003601f168201915b5050505050815260200190600101906126f2565b50505050915080805480602002602001604051908101604052809291908181526020016000905b828210156128715783829060005260206000200180546127e490614114565b80601f016020809104026020016040519081016040528092919081815260200182805461281090614114565b801561285d5780601f106128325761010080835404028352916020019161285d565b820191906000526020600020905b81548152906001019060200180831161284057829003601f168201915b5050505050815260200190600101906127c5565b50505050905091509150915091565b6128886131bb565b60005b815181101561161757600161010360008484815181106128ad576128ad614408565b6020908102919091018101516001600160a01b03168252810191909152604001600020805460ff1916911515919091179055806128e98161441e565b91505061288b565b600083815260ff60205260409020600201546001600160a01b03163314806129325750600083815260ff60205260409020600101546001600160a01b031633145b61294e5760405162461bcd60e51b815260040161095790614394565b61295783612fb2565b6001600084815260ff602081905260409091206006015416600781111561298057612980613ac6565b14806129b257506002600084815260ff60208190526040909120600601541660078111156129b0576129b0613ac6565b145b6129ed5760405162461bcd60e51b815260206004820152600c60248201526b139bdd081858d8d95c1d195960a21b6044820152606401610957565b600083815260ff60205260409020600601805460ff19166005179055606080612a14613910565b600086815260ff60205260409020600201546001600160a01b03163303612ad457604080516101a081018252878152600088815260ff602081815284832060018101546001600160a01b03908116838701528c855292825260020154909116838501526060830182905260808301899052835190810190935280835260a082019290925260c0810186905260fd5460e082015290610100820190815260208101849052604081018590526001606082015260006080909101529050612b71565b50604080516101a081018252868152600087815260ff602081815284832060018101546001600160a01b03908116838701528b85529282526002015490911683850152606083018290526080830188905260a08301879052835190810190935280835260c082019290925260fd5460e082015261010081018290526101208101839052610140810184905261016081018290526101808101919091525b60fc546000908152610100602090815260409182902083518155908301516001820180546001600160a01b03199081166001600160a01b039384161790915592840151600283018054909416911617909155606082015160038201556080820151600482015560a08201518291906005820190612bee908261423c565b5060c08201516006820190612c03908261423c565b5060e0820151600782015561010082015160088201805460ff191660018381811115612c3157612c31613ac6565b02179055506101208201518051612c5291600984019160209091019061399f565b506101408201518051612c6f91600a84019160209091019061399f565b50610160820151600b90910180546101809093015115156101000261ff00199215159290921661ffff199093169290921717905560fc805460019190600090612cb99084906141a6565b9091555050505050505050565b612cce6131bb565b6000805260fe6020526000805160206144b283398151915254612d02612cfc6033546001600160a01b031690565b82613546565b50600080805260fe6020526000805160206144b283398151915255565b612d276131bb565b6001600160a01b038116612d8c5760405162461bcd60e51b815260206004820152602660248201527f4f776e61626c653a206e6577206f776e657220697320746865207a65726f206160448201526564647265737360d01b6064820152608401610957565b6113c8816133e8565b600081815261010060205260409020600201546001600160a01b0316331480612dd85750600081815261010060205260409020600101546001600160a01b031633145b6113c85760405162461bcd60e51b815260040161095790614394565b612dfd84612d95565b600084815261010060205260409020600201546001600160a01b03163303612e7d576000848152610100602090815260409091208251612e4592600a9092019184019061399f565b50600084815261010060205260409020600601612e62838261423c565b50600084815261010060205260409020600301839055612ed7565b6000848152610100602090815260409091208251612ea39260099092019184019061399f565b50600084815261010060205260409020600501612ec0838261423c565b506000848152610100602052604090206004018390555b50505050565b806007811115612eef57612eef613ac6565b600083815260ff6020819052604090912060060154166007811115612f1657612f16613ac6565b146116175760405162461bcd60e51b815260206004820152600c60248201526b139bdd081858d8d95c1d195960a21b6044820152606401610957565b600081815260ff60205260409020600201546001600160a01b031633146113c85760405162461bcd60e51b81526020600482015260146024820152736e6f7420617574686f72697a65642041534e656560601b6044820152606401610957565b60fb548111156113c85760405162461bcd60e51b8152602060048201526003602482015262434e4560e81b6044820152606401610957565b600260c9540361303c5760405162461bcd60e51b815260206004820152601f60248201527f5265656e7472616e637947756172643a207265656e7472616e742063616c6c006044820152606401610957565b600260c955565b6113c86131bb565b7f4910fdfa16fed3260ed0e7147f7cc6da11a60208b5b9406d12a635614ffd91435460ff16156130835761307e83613629565b505050565b826001600160a01b03166352d1902d6040518163ffffffff1660e01b8152600401602060405180830381865afa9250505080156130dd575060408051601f3d908101601f191682019092526130da918101906141b9565b60015b6131405760405162461bcd60e51b815260206004820152602e60248201527f45524331393637557067726164653a206e657720696d706c656d656e7461746960448201526d6f6e206973206e6f74205555505360901b6064820152608401610957565b6000805160206144d283398151915281146131af5760405162461bcd60e51b815260206004820152602960248201527f45524331393637557067726164653a20756e737570706f727465642070726f786044820152681a58589b195555525160ba1b6064820152608401610957565b5061307e8383836136c5565b6033546001600160a01b03163314611ab75760405162461bcd60e51b815260206004820181905260248201527f4f776e61626c653a2063616c6c6572206973206e6f7420746865206f776e65726044820152606401610957565b6040516370a0823160e01b815230600482015283906001600160a01b038216906370a0823190602401602060405180830381865afa15801561325b573d6000803e3d6000fd5b505050506040513d601f19601f8201168201806040525081019061327f91906141b9565b8211156132b95760405162461bcd60e51b81526020600482015260086024820152674e6f2046756e647360c01b6044820152606401610957565b6040516323b872dd60e01b81523060048201526001600160a01b038481166024830152604482018490528216906323b872dd906064016020604051808303816000875af115801561330e573d6000803e3d6000fd5b505050506040513d601f19601f8201168201806040525081019061151291906141d2565b600081815260ff60205260409020600101546001600160a01b031633146113c85760405162461bcd60e51b81526020600482015260146024820152733737ba1030baba3437b934bd32b21020a9a732b960611b6044820152606401610957565b600083815260ff6020819052604090912060060154610100900416156133de57600083815260ff602052604090206006015461307e906201000090046001600160a01b03168284613215565b61307e8183613546565b603380546001600160a01b038381166001600160a01b0319831681179093556040519116919082907f8be0079c531659141344cd1fd0a4f28419497f9722a3daafe3b4186f6b6457e090600090a35050565b600054610100900460ff166134615760405162461bcd60e51b815260040161095790614437565b611ab76136ea565b600054610100900460ff16611ab75760405162461bcd60e51b815260040161095790614437565b6134986131bb565b60006134a5600a856143d3565b905082156134fd5760005b85518110156134f757600a81146134f7576134e5838783815181106134d7576134d7614408565b602002602001015184613215565b806134ef8161441e565b9150506134b0565b50611512565b60005b85518110156112e457600a81146112e45761353486828151811061352657613526614408565b602002602001015183613546565b8061353e8161441e565b915050613500565b61354e612fea565b478111156135895760405162461bcd60e51b81526020600482015260086024820152674e6f2046756e647360c01b6044820152606401610957565b6000826001600160a01b03168260405160006040518083038185875af1925050503d80600081146135d6576040519150601f19603f3d011682016040523d82523d6000602084013e6135db565b606091505b505090508061361e5760405162461bcd60e51b815260206004820152600f60248201526e105b5bdd5b9d081b9bdd081cd95b9d608a1b6044820152606401610957565b50611617600160c955565b6001600160a01b0381163b6136965760405162461bcd60e51b815260206004820152602d60248201527f455243313936373a206e657720696d706c656d656e746174696f6e206973206e60448201526c1bdd08184818dbdb9d1c9858dd609a1b6064820152608401610957565b6000805160206144d283398151915280546001600160a01b0319166001600160a01b0392909216919091179055565b6136ce8361371a565b6000825111806136db5750805b1561307e57612ed7838361375a565b600054610100900460ff166137115760405162461bcd60e51b815260040161095790614437565b611ab7336133e8565b61372381613629565b6040516001600160a01b038216907fbc7cd75a20ee27fd9adebab32041f755214dbc6bffa90cc0225b39da2e5c2d3b90600090a250565b606061377f83836040518060600160405280602781526020016144f260279139613788565b90505b92915050565b6060600080856001600160a01b0316856040516137a59190614482565b600060405180830381855af49150503d80600081146137e0576040519150601f19603f3d011682016040523d82523d6000602084013e6137e5565b606091505b50915091506137f686838387613800565b9695505050505050565b6060831561386f578251600003613868576001600160a01b0385163b6138685760405162461bcd60e51b815260206004820152601d60248201527f416464726573733a2063616c6c20746f206e6f6e2d636f6e74726163740000006044820152606401610957565b5081613879565b6138798383613881565b949350505050565b8151156138915781518083602001fd5b8060405162461bcd60e51b8152600401610957919061449e565b828054828255906000526020600020908101928215613900579160200282015b8281111561390057825182546001600160a01b0319166001600160a01b039091161782556020909201916001909101906138cb565b5061390c9291506139f1565b5090565b604051806101a001604052806000815260200160006001600160a01b0316815260200160006001600160a01b0316815260200160008152602001600081526020016060815260200160608152602001600081526020016000600181111561397957613979613ac6565b815260200160608152602001606081526020016000151581526020016000151581525090565b8280548282559060005260206000209081019282156139e5579160200282015b828111156139e557825182906139d5908261423c565b50916020019190600101906139bf565b5061390c929150613a06565b5b8082111561390c57600081556001016139f2565b8082111561390c576000613a1a8282613a23565b50600101613a06565b508054613a2f90614114565b6000825580601f10613a3f575050565b601f0160209004906000526020600020908101906113c891906139f1565b600060208284031215613a6f57600080fd5b5035919050565b60005b83811015613a91578181015183820152602001613a79565b50506000910152565b60008151808452613ab2816020860160208601613a76565b601f01601f19169290920160200192915050565b634e487b7160e01b600052602160045260246000fd5b8981526001600160a01b03898116602083015288811660408301526060820188905261012060808301819052600091613b178483018a613a9a565b915083820360a0850152613b2b8289613a9a565b925060088710613b3d57613b3d613ac6565b8660c085015285151560e085015280851661010085015250509a9950505050505050505050565b634e487b7160e01b600052604160045260246000fd5b604051601f8201601f1916810167ffffffffffffffff81118282101715613ba357613ba3613b64565b604052919050565b600067ffffffffffffffff831115613bc557613bc5613b64565b613bd8601f8401601f1916602001613b7a565b9050828152838383011115613bec57600080fd5b828260208301376000602084830101529392505050565b600082601f830112613c1457600080fd5b61377f83833560208501613bab565b600067ffffffffffffffff821115613c3d57613c3d613b64565b5060051b60200190565b60008060008060808587031215613c5d57600080fd5b843593506020808601359350604086013567ffffffffffffffff80821115613c8457600080fd5b613c9089838a01613c03565b94506060880135915080821115613ca657600080fd5b818801915088601f830112613cba57600080fd5b8135613ccd613cc882613c23565b613b7a565b81815260059190911b8301840190848101908b831115613cec57600080fd5b8585015b83811015613d2457803585811115613d085760008081fd5b613d168e89838a0101613c03565b845250918601918601613cf0565b50989b979a50959850505050505050565b60008060408385031215613d4857600080fd5b50508035926020909101359150565b80356001600160a01b0381168114613d6e57600080fd5b919050565b600060208284031215613d8557600080fd5b61377f82613d57565b6020808252825182820181905260009190848201906040850190845b81811015613dc657835183529284019291840191600101613daa565b50909695505050505050565b80151581146113c857600080fd5b60008060008060008060c08789031215613df957600080fd5b613e0287613d57565b955060208701359450604087013567ffffffffffffffff80821115613e2657600080fd5b613e328a838b01613c03565b95506060890135915080821115613e4857600080fd5b50613e5589828a01613c03565b9350506080870135613e6681613dd2565b9150613e7460a08801613d57565b90509295509295509295565b60008060408385031215613e9357600080fd5b613e9c83613d57565b946020939093013593505050565b60008060408385031215613ebd57600080fd5b613ec683613d57565b9150602083013567ffffffffffffffff811115613ee257600080fd5b8301601f81018513613ef357600080fd5b613f0285823560208401613bab565b9150509250929050565b8b81526001600160a01b038b811660208301528a166040820152606081018990526080810188905261016060a08201819052600090613f4d8382018a613a9a565b905082810360c0840152613f618189613a9a565b9150508560e083015260028510613f7a57613f7a613ac6565b84610100830152831515610120830152613f9961014083018415159052565b9c9b505050505050505050505050565b600081518084526020808501808196508360051b8101915082860160005b85811015613ff1578284038952613fdf848351613a9a565b98850198935090840190600101613fc7565b5091979650505050505050565b6040815260006140116040830185613fa9565b82810360208401526140238185613fa9565b95945050505050565b6000602080838503121561403f57600080fd5b823567ffffffffffffffff81111561405657600080fd5b8301601f8101851361406757600080fd5b8035614075613cc882613c23565b81815260059190911b8201830190838101908783111561409457600080fd5b928401925b828410156140b9576140aa84613d57565b82529284019290840190614099565b979650505050505050565b6000806000606084860312156140d957600080fd5b8335925060208401359150604084013567ffffffffffffffff8111156140fe57600080fd5b61410a86828701613c03565b9150509250925092565b600181811c9082168061412857607f821691505b60208210810361414857634e487b7160e01b600052602260045260246000fd5b50919050565b602080825260039082015262444e4560e81b604082015260600190565b6020808252600b908201526a139bdd0818dc99585d195960aa1b604082015260600190565b634e487b7160e01b600052601160045260246000fd5b8082018082111561378257613782614190565b6000602082840312156141cb57600080fd5b5051919050565b6000602082840312156141e457600080fd5b81516141ef81613dd2565b9392505050565b601f82111561307e57600081815260208120601f850160051c8101602086101561421d5750805b601f850160051c820191505b818110156112e457828155600101614229565b815167ffffffffffffffff81111561425657614256613b64565b61426a816142648454614114565b846141f6565b602080601f83116001811461429f57600084156142875750858301515b600019600386901b1c1916600185901b1785556112e4565b600085815260208120601f198616915b828110156142ce578886015182559484019460019091019084016142af565b50858210156142ec5787850151600019600388901b60f8161c191681555b5050505050600190811b01905550565b6020808252602c908201527f46756e6374696f6e206d7573742062652063616c6c6564207468726f7567682060408201526b19195b1959d85d1958d85b1b60a21b606082015260800190565b6020808252602c908201527f46756e6374696f6e206d7573742062652063616c6c6564207468726f7567682060408201526b6163746976652070726f787960a01b606082015260800190565b6020808252600e908201526d139bdd08185d5d1a1bdc9a5e995960921b604082015260600190565b808202811582820484141761378257613782614190565b6000826143f057634e487b7160e01b600052601260045260246000fd5b500490565b8181038181111561378257613782614190565b634e487b7160e01b600052603260045260246000fd5b60006001820161443057614430614190565b5060010190565b6020808252602b908201527f496e697469616c697a61626c653a20636f6e7472616374206973206e6f74206960408201526a6e697469616c697a696e6760a81b606082015260800190565b60008251614494818460208701613a76565b9190910192915050565b60208152600061377f6020830184613a9a56fe32796e36004994222362c2f9423d5e208bb848170964890784a8d59ed40f50af360894a13ba1a3210667c828492db98dca3e2076cc3735a920a3ca505d382bbc416464726573733a206c6f772d6c6576656c2064656c65676174652063616c6c206661696c6564a264697066735822122049480ca17d7a3861f97e8b520c35ef665109fec9c4291424cb9a58fe90b2d1f464736f6c63430008110033",
	"linkReferences": {},
	"deployedLinkReferences": {}
}