{
	"_format": "hh-sol-artifact-1",
	"contractName": "Cscrow",
	"sourceName": "contracts/Cscrow.sol",
	"abi": [
		{
			"anonymous": false,
			"inputs": [
				{
					"indexed": true,
					"internalType": "uint256",
					"name": "id",
					"type": "uint256"
				},
				{
					"indexed": true,
					"internalType": "address",
					"name": "assignor",
					"type": "address"
				},
				{
					"indexed": true,
					"internalType": "address",
					"name": "assignee",
					"type": "address"
				}
			],
			"name": "ContractAccepted",
			"type": "event"
		},
		{
			"anonymous": false,
			"inputs": [
				{
					"indexed": true,
					"internalType": "uint256",
					"name": "id",
					"type": "uint256"
				},
				{
					"indexed": true,
					"internalType": "address",
					"name": "assignor",
					"type": "address"
				},
				{
					"indexed": true,
					"internalType": "address",
					"name": "assignee",
					"type": "address"
				}
			],
			"name": "ContractCancelled",
			"type": "event"
		},
		{
			"anonymous": false,
			"inputs": [
				{
					"indexed": true,
					"internalType": "uint256",
					"name": "id",
					"type": "uint256"
				},
				{
					"indexed": true,
					"internalType": "address",
					"name": "assignor",
					"type": "address"
				},
				{
					"indexed": true,
					"internalType": "address",
					"name": "assignee",
					"type": "address"
				}
			],
			"name": "ContractCompleted",
			"type": "event"
		},
		{
			"anonymous": false,
			"inputs": [
				{
					"indexed": true,
					"internalType": "uint256",
					"name": "id",
					"type": "uint256"
				},
				{
					"indexed": true,
					"internalType": "address",
					"name": "assignor",
					"type": "address"
				},
				{
					"indexed": true,
					"internalType": "address",
					"name": "assignee",
					"type": "address"
				}
			],
			"name": "ContractCreated",
			"type": "event"
		},
		{
			"anonymous": false,
			"inputs": [
				{
					"indexed": true,
					"internalType": "uint256",
					"name": "id",
					"type": "uint256"
				},
				{
					"indexed": true,
					"internalType": "address",
					"name": "assignor",
					"type": "address"
				},
				{
					"indexed": true,
					"internalType": "address",
					"name": "assignee",
					"type": "address"
				}
			],
			"name": "ContractEnded",
			"type": "event"
		},
		{
			"anonymous": false,
			"inputs": [
				{
					"indexed": true,
					"internalType": "uint256",
					"name": "id",
					"type": "uint256"
				},
				{
					"indexed": true,
					"internalType": "address",
					"name": "assignor",
					"type": "address"
				},
				{
					"indexed": true,
					"internalType": "address",
					"name": "assignee",
					"type": "address"
				}
			],
			"name": "DisputeCreated",
			"type": "event"
		},
		{
			"anonymous": false,
			"inputs": [
				{
					"indexed": false,
					"internalType": "uint8",
					"name": "version",
					"type": "uint8"
				}
			],
			"name": "Initialized",
			"type": "event"
		},
		{
			"inputs": [
				{
					"internalType": "uint256",
					"name": "_id",
					"type": "uint256"
				}
			],
			"name": "acceptContract",
			"outputs": [],
			"stateMutability": "nonpayable",
			"type": "function"
		},
		{
			"inputs": [
				{
					"internalType": "uint256",
					"name": "_disputeId",
					"type": "uint256"
				}
			],
			"name": "acceptDispute",
			"outputs": [],
			"stateMutability": "nonpayable",
			"type": "function"
		},
		{
			"inputs": [
				{
					"internalType": "address[]",
					"name": "_tokens",
					"type": "address[]"
				}
			],
			"name": "addEnableTokens",
			"outputs": [],
			"stateMutability": "nonpayable",
			"type": "function"
		},
		{
			"inputs": [
				{
					"internalType": "uint256",
					"name": "_disputeId",
					"type": "uint256"
				},
				{
					"internalType": "string",
					"name": "_details",
					"type": "string"
				},
				{
					"internalType": "string[]",
					"name": "_profs",
					"type": "string[]"
				}
			],
			"name": "addProofsForDisputeLevel2",
			"outputs": [],
			"stateMutability": "nonpayable",
			"type": "function"
		},
		{
			"inputs": [
				{
					"internalType": "uint256",
					"name": "_id",
					"type": "uint256"
				}
			],
			"name": "alreadyVoted",
			"outputs": [
				{
					"internalType": "bool",
					"name": "",
					"type": "bool"
				}
			],
			"stateMutability": "view",
			"type": "function"
		},
		{
			"inputs": [
				{
					"internalType": "uint256",
					"name": "_id",
					"type": "uint256"
				}
			],
			"name": "approveContract",
			"outputs": [],
			"stateMutability": "nonpayable",
			"type": "function"
		},
		{
			"inputs": [
				{
					"internalType": "address",
					"name": "_newOwner",
					"type": "address"
				}
			],
			"name": "changeOwner",
			"outputs": [],
			"stateMutability": "nonpayable",
			"type": "function"
		},
		{
			"inputs": [],
			"name": "companyProfit",
			"outputs": [
				{
					"internalType": "uint256",
					"name": "",
					"type": "uint256"
				}
			],
			"stateMutability": "view",
			"type": "function"
		},
		{
			"inputs": [
				{
					"internalType": "uint256",
					"name": "_id",
					"type": "uint256"
				}
			],
			"name": "completeContract",
			"outputs": [],
			"stateMutability": "nonpayable",
			"type": "function"
		},
		{
			"inputs": [
				{
					"internalType": "address",
					"name": "_assignee",
					"type": "address"
				},
				{
					"internalType": "uint256",
					"name": "_amount",
					"type": "uint256"
				},
				{
					"internalType": "string",
					"name": "_details",
					"type": "string"
				},
				{
					"internalType": "string",
					"name": "_title",
					"type": "string"
				},
				{
					"internalType": "bool",
					"name": "_token",
					"type": "bool"
				},
				{
					"internalType": "address",
					"name": "_tokenAddress",
					"type": "address"
				}
			],
			"name": "createContract",
			"outputs": [],
			"stateMutability": "payable",
			"type": "function"
		},
		{
			"inputs": [
				{
					"internalType": "uint256",
					"name": "_id",
					"type": "uint256"
				},
				{
					"internalType": "uint256",
					"name": "_amount",
					"type": "uint256"
				},
				{
					"internalType": "string",
					"name": "_details",
					"type": "string"
				}
			],
			"name": "createDisputeLevel1",
			"outputs": [],
			"stateMutability": "nonpayable",
			"type": "function"
		},
		{
			"inputs": [
				{
					"internalType": "uint256",
					"name": "_disputeId",
					"type": "uint256"
				},
				{
					"internalType": "string",
					"name": "_details",
					"type": "string"
				},
				{
					"internalType": "string[]",
					"name": "_profs",
					"type": "string[]"
				}
			],
			"name": "createDisputeLevel2",
			"outputs": [],
			"stateMutability": "nonpayable",
			"type": "function"
		},
		{
			"inputs": [
				{
					"internalType": "uint256",
					"name": "",
					"type": "uint256"
				}
			],
			"name": "disputes",
			"outputs": [
				{
					"internalType": "uint256",
					"name": "escrowId",
					"type": "uint256"
				},
				{
					"internalType": "address",
					"name": "assignor",
					"type": "address"
				},
				{
					"internalType": "address",
					"name": "assignee",
					"type": "address"
				},
				{
					"internalType": "uint256",
					"name": "amount",
					"type": "uint256"
				},
				{
					"internalType": "string",
					"name": "assignorDetails",
					"type": "string"
				},
				{
					"internalType": "string",
					"name": "assigneeDetails",
					"type": "string"
				},
				{
					"internalType": "uint256",
					"name": "validatorId",
					"type": "uint256"
				},
				{
					"internalType": "enum Structs.disputeLevel",
					"name": "disputeLevel",
					"type": "uint8"
				},
				{
					"internalType": "bool",
					"name": "assigneeCreatedDispute",
					"type": "bool"
				},
				{
					"internalType": "bool",
					"name": "validationStarted",
					"type": "bool"
				}
			],
			"stateMutability": "view",
			"type": "function"
		},
		{
			"inputs": [
				{
					"internalType": "address",
					"name": "",
					"type": "address"
				}
			],
			"name": "enabledTokens",
			"outputs": [
				{
					"internalType": "bool",
					"name": "",
					"type": "bool"
				}
			],
			"stateMutability": "view",
			"type": "function"
		},
		{
			"inputs": [
				{
					"internalType": "uint256",
					"name": "",
					"type": "uint256"
				}
			],
			"name": "escrows",
			"outputs": [
				{
					"internalType": "uint256",
					"name": "id",
					"type": "uint256"
				},
				{
					"internalType": "address",
					"name": "assignor",
					"type": "address"
				},
				{
					"internalType": "address",
					"name": "assignee",
					"type": "address"
				},
				{
					"internalType": "uint256",
					"name": "amount",
					"type": "uint256"
				},
				{
					"internalType": "string",
					"name": "details",
					"type": "string"
				},
				{
					"internalType": "string",
					"name": "title",
					"type": "string"
				},
				{
					"internalType": "enum Structs.ContractStatus",
					"name": "status",
					"type": "uint8"
				},
				{
					"internalType": "bool",
					"name": "token",
					"type": "bool"
				},
				{
					"internalType": "address",
					"name": "tokenAddress",
					"type": "address"
				}
			],
			"stateMutability": "view",
			"type": "function"
		},
		{
			"inputs": [
				{
					"internalType": "address",
					"name": "_address",
					"type": "address"
				}
			],
			"name": "getMyContracts",
			"outputs": [
				{
					"internalType": "uint256[]",
					"name": "",
					"type": "uint256[]"
				}
			],
			"stateMutability": "view",
			"type": "function"
		},
		{
			"inputs": [
				{
					"internalType": "address",
					"name": "_address",
					"type": "address"
				}
			],
			"name": "getPoints",
			"outputs": [
				{
					"internalType": "uint256",
					"name": "",
					"type": "uint256"
				}
			],
			"stateMutability": "view",
			"type": "function"
		},
		{
			"inputs": [
				{
					"internalType": "uint256",
					"name": "_diputeId",
					"type": "uint256"
				}
			],
			"name": "getProofs",
			"outputs": [
				{
					"internalType": "string[]",
					"name": "",
					"type": "string[]"
				},
				{
					"internalType": "string[]",
					"name": "",
					"type": "string[]"
				}
			],
			"stateMutability": "view",
			"type": "function"
		},
		{
			"inputs": [],
			"name": "initialize",
			"outputs": [],
			"stateMutability": "nonpayable",
			"type": "function"
		},
		{
			"inputs": [
				{
					"internalType": "address",
					"name": "_token",
					"type": "address"
				}
			],
			"name": "isTokenEnabled",
			"outputs": [
				{
					"internalType": "bool",
					"name": "",
					"type": "bool"
				}
			],
			"stateMutability": "view",
			"type": "function"
		},
		{
			"inputs": [
				{
					"internalType": "address",
					"name": "",
					"type": "address"
				},
				{
					"internalType": "uint256",
					"name": "",
					"type": "uint256"
				}
			],
			"name": "myContracts",
			"outputs": [
				{
					"internalType": "uint256",
					"name": "",
					"type": "uint256"
				}
			],
			"stateMutability": "view",
			"type": "function"
		},
		{
			"inputs": [
				{
					"internalType": "uint256",
					"name": "_id",
					"type": "uint256"
				}
			],
			"name": "notAcceptContract",
			"outputs": [],
			"stateMutability": "nonpayable",
			"type": "function"
		},
		{
			"inputs": [],
			"name": "owner",
			"outputs": [
				{
					"internalType": "address",
					"name": "",
					"type": "address"
				}
			],
			"stateMutability": "view",
			"type": "function"
		},
		{
			"inputs": [
				{
					"internalType": "address",
					"name": "",
					"type": "address"
				}
			],
			"name": "points",
			"outputs": [
				{
					"internalType": "uint256",
					"name": "",
					"type": "uint256"
				}
			],
			"stateMutability": "view",
			"type": "function"
		},
		{
			"inputs": [
				{
					"internalType": "uint256",
					"name": "_disputeId",
					"type": "uint256"
				}
			],
			"name": "resolveDispute",
			"outputs": [],
			"stateMutability": "nonpayable",
			"type": "function"
		},
		{
			"inputs": [],
			"name": "totalDisputes",
			"outputs": [
				{
					"internalType": "uint256",
					"name": "",
					"type": "uint256"
				}
			],
			"stateMutability": "view",
			"type": "function"
		},
		{
			"inputs": [],
			"name": "totalEscrows",
			"outputs": [
				{
					"internalType": "uint256",
					"name": "",
					"type": "uint256"
				}
			],
			"stateMutability": "view",
			"type": "function"
		},
		{
			"inputs": [],
			"name": "totalValidators",
			"outputs": [
				{
					"internalType": "uint256",
					"name": "",
					"type": "uint256"
				}
			],
			"stateMutability": "view",
			"type": "function"
		},
		{
			"inputs": [
				{
					"internalType": "uint256",
					"name": "_validateId",
					"type": "uint256"
				},
				{
					"internalType": "uint256",
					"name": "voteFor",
					"type": "uint256"
				}
			],
			"name": "validate",
			"outputs": [],
			"stateMutability": "nonpayable",
			"type": "function"
		},
		{
			"inputs": [
				{
					"internalType": "uint256",
					"name": "",
					"type": "uint256"
				}
			],
			"name": "validators",
			"outputs": [
				{
					"internalType": "uint256",
					"name": "disputeId",
					"type": "uint256"
				},
				{
					"internalType": "uint256",
					"name": "votesForAssignor",
					"type": "uint256"
				},
				{
					"internalType": "uint256",
					"name": "votesForAssignee",
					"type": "uint256"
				},
				{
					"internalType": "bool",
					"name": "assignorWon",
					"type": "bool"
				},
				{
					"internalType": "bool",
					"name": "assigneeWon",
					"type": "bool"
				},
				{
					"internalType": "bool",
					"name": "draw",
					"type": "bool"
				},
				{
					"internalType": "bool",
					"name": "nextChance",
					"type": "bool"
				},
				{
					"internalType": "uint256",
					"name": "validationCreateTime",
					"type": "uint256"
				}
			],
			"stateMutability": "view",
			"type": "function"
		},
		{
			"inputs": [],
			"name": "withdrawCompleteCommissionNative",
			"outputs": [],
			"stateMutability": "nonpayable",
			"type": "function"
		},
		{
			"inputs": [
				{
					"internalType": "address",
					"name": "_token",
					"type": "address"
				}
			],
			"name": "withdrawCompleteCommissionToken",
			"outputs": [],
			"stateMutability": "nonpayable",
			"type": "function"
		},
		{
			"inputs": [
				{
					"internalType": "uint256",
					"name": "_id",
					"type": "uint256"
				}
			],
			"name": "withdrawContract",
			"outputs": [],
			"stateMutability": "nonpayable",
			"type": "function"
		}
	],
	"bytecode": "0x608060405234801561001057600080fd5b50615ff480620000216000396000f3fe6080604052600436106101ee5760003560e01c80638129fc1c1161010d578063b5bba609116100a0578063c6c6ebca1161006f578063c6c6ebca14610739578063c81b356b14610762578063e2080b221461078d578063ebb0977b146107b6578063ee204abb146107cd576101ee565b8063b5bba6091461067c578063c2b7b868146106a7578063c31e2c31146106d0578063c5e4ccc41461070e576101ee565b8063a6f9dae1116100dc578063a6f9dae1146105b0578063b0191b8f146105d9578063b1e7a1f014610602578063b451cecc1461063f576101ee565b80638129fc1c1461051c5780638da5cb5b1461053357806398a844b91461055e5780639a115c0414610587576101ee565b806335aa2e441161018557806358ee94cd1161015457806358ee94cd1461046257806362c35c011461048b57806363ee7c8d146104b4578063748538d9146104df576101ee565b806335aa2e441461037257806344aa4095146103b65780635452fb8a146103f3578063564a565d1461041c576101ee565b80633091e9e7116101c15780633091e9e7146102b357806332039e01146102dc57806334f2a20b14610319578063358b816614610335576101ee565b8063012f52ee146101f35780630935a123146102385780630dded39d1461026157806319730b441461028a575b600080fd5b3480156101ff57600080fd5b5061021a60048036038101906102159190614498565b61080a565b60405161022f99989796959493929190614637565b60405180910390f35b34801561024457600080fd5b5061025f600480360381019061025a9190614498565b6109e2565b005b34801561026d57600080fd5b50610288600480360381019061028391906148ed565b610b08565b005b34801561029657600080fd5b506102b160048036038101906102ac9190614978565b610d8e565b005b3480156102bf57600080fd5b506102da60048036038101906102d591906148ed565b611023565b005b3480156102e857600080fd5b5061030360048036038101906102fe91906149e4565b6110e7565b6040516103109190614acf565b60405180910390f35b610333600480360381019061032e9190614b1d565b61117e565b005b34801561034157600080fd5b5061035c600480360381019061035791906149e4565b61186d565b6040516103699190614be2565b60405180910390f35b34801561037e57600080fd5b5061039960048036038101906103949190614498565b611885565b6040516103ad989796959493929190614bfd565b60405180910390f35b3480156103c257600080fd5b506103dd60048036038101906103d89190614c7b565b611901565b6040516103ea9190614be2565b60405180910390f35b3480156103ff57600080fd5b5061041a600480360381019061041591906149e4565b611932565b005b34801561042857600080fd5b50610443600480360381019061043e9190614498565b6119fc565b6040516104599a99989796959493929190614d03565b60405180910390f35b34801561046e57600080fd5b5061048960048036038101906104849190614498565b611bc7565b005b34801561049757600080fd5b506104b260048036038101906104ad9190614498565b611ced565b005b3480156104c057600080fd5b506104c9611eb3565b6040516104d69190614be2565b60405180910390f35b3480156104eb57600080fd5b50610506600480360381019061050191906149e4565b611eb9565b6040516105139190614dad565b60405180910390f35b34801561052857600080fd5b50610531611f0f565b005b34801561053f57600080fd5b50610548612086565b6040516105559190614dc8565b60405180910390f35b34801561056a57600080fd5b5061058560048036038101906105809190614498565b6120ac565b005b34801561059357600080fd5b506105ae60048036038101906105a99190614498565b612162565b005b3480156105bc57600080fd5b506105d760048036038101906105d291906149e4565b612288565b005b3480156105e557600080fd5b5061060060048036038101906105fb9190614498565b61235c565b005b34801561060e57600080fd5b5061062960048036038101906106249190614498565b612688565b6040516106369190614dad565b60405180910390f35b34801561064b57600080fd5b50610666600480360381019061066191906149e4565b61275e565b6040516106739190614dad565b60405180910390f35b34801561068857600080fd5b5061069161277e565b60405161069e9190614be2565b60405180910390f35b3480156106b357600080fd5b506106ce60048036038101906106c99190614498565b612784565b005b3480156106dc57600080fd5b506106f760048036038101906106f29190614498565b612f0f565b604051610705929190614eef565b60405180910390f35b34801561071a57600080fd5b506107236130ed565b6040516107309190614be2565b60405180910390f35b34801561074557600080fd5b50610760600480360381019061075b9190614fe9565b6130f3565b005b34801561076e57600080fd5b50610777613218565b6040516107849190614be2565b60405180910390f35b34801561079957600080fd5b506107b460048036038101906107af9190615032565b61321e565b005b3480156107c257600080fd5b506107cb6138b8565b005b3480156107d957600080fd5b506107f460048036038101906107ef91906149e4565b613980565b6040516108019190614be2565b60405180910390f35b60056020528060005260406000206000915090508060000154908060010160009054906101000a900473ffffffffffffffffffffffffffffffffffffffff16908060020160009054906101000a900473ffffffffffffffffffffffffffffffffffffffff1690806003015490806004018054610885906150d0565b80601f01602080910402602001604051908101604052809291908181526020018280546108b1906150d0565b80156108fe5780601f106108d3576101008083540402835291602001916108fe565b820191906000526020600020905b8154815290600101906020018083116108e157829003601f168201915b505050505090806005018054610913906150d0565b80601f016020809104026020016040519081016040528092919081815260200182805461093f906150d0565b801561098c5780601f106109615761010080835404028352916020019161098c565b820191906000526020600020905b81548152906001019060200180831161096f57829003601f168201915b5050505050908060060160009054906101000a900460ff16908060060160019054906101000a900460ff16908060060160029054906101000a900473ffffffffffffffffffffffffffffffffffffffff16905089565b6109eb816139c9565b6109f481613a70565b6109ff816000613ab8565b60046005600083815260200190815260200160002060060160006101000a81548160ff02191690836007811115610a3957610a386145a5565b5b02179055506005600082815260200190815260200160002060020160009054906101000a900473ffffffffffffffffffffffffffffffffffffffff1673ffffffffffffffffffffffffffffffffffffffff166005600083815260200190815260200160002060010160009054906101000a900473ffffffffffffffffffffffffffffffffffffffff1673ffffffffffffffffffffffffffffffffffffffff16827f683bc5c048db63a19aca077ebaf602240dbaec371f0bc19856f49fc6c004e38d60405160405180910390a450565b600354831115610b4d576040517f08c379a0000000000000000000000000000000000000000000000000000000008152600401610b449061514d565b60405180910390fd5b600180811115610b6057610b5f6145a5565b5b6006600085815260200190815260200160002060070160009054906101000a900460ff166001811115610b9657610b956145a5565b5b14610bd6576040517f08c379a0000000000000000000000000000000000000000000000000000000008152600401610bcd906151b9565b60405180910390fd5b610bdf83613b45565b610bea838383613c58565b610c0b60066000858152602001908152602001600020600001546005613ab8565b60606000604051806101200160405280868152602001838152602001600081526020016000815260200160001515815260200160001515815260200160001515815260200160001515815260200142815250905080600760006004548152602001908152602001600020600082015181600001556020820151816001019080519060200190610c9b929190614247565b50604082015181600201556060820151816003015560808201518160040160006101000a81548160ff02191690831515021790555060a08201518160040160016101000a81548160ff02191690831515021790555060c08201518160040160026101000a81548160ff02191690831515021790555060e08201518160040160036101000a81548160ff0219169083151502179055506101008201518160050155905050600160046000828254610d519190615208565b92505081905550600160066000878152602001908152602001600020600a0160016101000a81548160ff0219169083151502179055505050505050565b600454821115610dd3576040517f08c379a0000000000000000000000000000000000000000000000000000000008152600401610dca90615288565b60405180910390fd5b60035460076000848152602001908152602001600020600001541115610e2e576040517f08c379a0000000000000000000000000000000000000000000000000000000008152600401610e259061514d565b60405180910390fd5b610e3782612688565b15610e77576040517f08c379a0000000000000000000000000000000000000000000000000000000008152600401610e6e906152f4565b60405180910390fd5b42620151806007600085815260200190815260200160002060050154610e9d9190615208565b1015610ede576040517f08c379a0000000000000000000000000000000000000000000000000000000008152600401610ed590615360565b60405180910390fd5b60008103610f19576001600760008481526020019081526020016000206002016000828254610f0d9190615208565b92505081905550610f51565b60018103610f50576001600760008481526020019081526020016000206003016000828254610f489190615208565b925050819055505b5b60076000838152602001908152602001600020600101339080600181540180825580915050600190039060005260206000200160009091909190916101000a81548173ffffffffffffffffffffffffffffffffffffffff021916908373ffffffffffffffffffffffffffffffffffffffff1602179055506001600860003373ffffffffffffffffffffffffffffffffffffffff1673ffffffffffffffffffffffffffffffffffffffff16815260200190815260200160002060008282546110189190615208565b925050819055505050565b600354831115611068576040517f08c379a000000000000000000000000000000000000000000000000000000000815260040161105f9061514d565b60405180910390fd5b61107183613b45565b600060066000858152602001908152602001600020600001549050611097816005613ab8565b60016006600086815260200190815260200160002060070160006101000a81548160ff021916908360018111156110d1576110d06145a5565b5b02179055506110e1848484613c58565b50505050565b6060600a60008373ffffffffffffffffffffffffffffffffffffffff1673ffffffffffffffffffffffffffffffffffffffff16815260200190815260200160002080548060200260200160405190810160405280929190818152602001828054801561117257602002820191906000526020600020905b81548152602001906001019080831161115e575b50505050509050919050565b600073ffffffffffffffffffffffffffffffffffffffff168673ffffffffffffffffffffffffffffffffffffffff16036111ed576040517f08c379a00000000000000000000000000000000000000000000000000000000081526004016111e4906153cc565b60405180910390fd5b60008511611230576040517f08c379a000000000000000000000000000000000000000000000000000000000815260040161122790615438565b60405180910390fd5b8573ffffffffffffffffffffffffffffffffffffffff163373ffffffffffffffffffffffffffffffffffffffff160361126857600080fd5b600082156114be5761127982611eb9565b6112b8576040517f08c379a00000000000000000000000000000000000000000000000000000000081526004016112af906154a4565b60405180910390fd5b6000829050868173ffffffffffffffffffffffffffffffffffffffff1663dd62ed3e33306040518363ffffffff1660e01b81526004016112f99291906154c4565b602060405180830381865afa158015611316573d6000803e3d6000fd5b505050506040513d601f19601f8201168201806040525081019061133a9190615502565b101561137b576040517f08c379a00000000000000000000000000000000000000000000000000000000081526004016113729061557b565b60405180910390fd5b868173ffffffffffffffffffffffffffffffffffffffff166370a08231336040518263ffffffff1660e01b81526004016113b59190614dc8565b602060405180830381865afa1580156113d2573d6000803e3d6000fd5b505050506040513d601f19601f820116820180604052508101906113f69190615502565b1015611437576040517f08c379a000000000000000000000000000000000000000000000000000000000815260040161142e906155e7565b60405180910390fd5b8073ffffffffffffffffffffffffffffffffffffffff166323b872dd33308a6040518463ffffffff1660e01b815260040161147493929190615607565b6020604051808303816000875af1158015611493573d6000803e3d6000fd5b505050506040513d601f19601f820116820180604052508101906114b79190615653565b5050611502565b85341015611501576040517f08c379a00000000000000000000000000000000000000000000000000000000081526004016114f8906156cc565b60405180910390fd5b5b600060405180610120016040528060015481526020013373ffffffffffffffffffffffffffffffffffffffff1681526020018973ffffffffffffffffffffffffffffffffffffffff168152602001888152602001878152602001868152602001836007811115611575576115746145a5565b5b815260200185151581526020018473ffffffffffffffffffffffffffffffffffffffff168152509050806005600060015481526020019081526020016000206000820151816000015560208201518160010160006101000a81548173ffffffffffffffffffffffffffffffffffffffff021916908373ffffffffffffffffffffffffffffffffffffffff16021790555060408201518160020160006101000a81548173ffffffffffffffffffffffffffffffffffffffff021916908373ffffffffffffffffffffffffffffffffffffffff16021790555060608201518160030155608082015181600401908161166b9190615898565b5060a08201518160050190816116819190615898565b5060c08201518160060160006101000a81548160ff021916908360078111156116ad576116ac6145a5565b5b021790555060e08201518160060160016101000a81548160ff0219169083151502179055506101008201518160060160026101000a81548173ffffffffffffffffffffffffffffffffffffffff021916908373ffffffffffffffffffffffffffffffffffffffff160217905550905050600a60003373ffffffffffffffffffffffffffffffffffffffff1673ffffffffffffffffffffffffffffffffffffffff1681526020019081526020016000206001549080600181540180825580915050600190039060005260206000200160009091909190915055600a60008973ffffffffffffffffffffffffffffffffffffffff1673ffffffffffffffffffffffffffffffffffffffff16815260200190815260200160002060015490806001815401808255809150506001900390600052602060002001600090919091909150558773ffffffffffffffffffffffffffffffffffffffff163373ffffffffffffffffffffffffffffffffffffffff166001547f56560a52c047ed21fd801bf0f345b23d9af696f7922ff8e63101af5d48caddab60405160405180910390a4600180600082825461185c9190615208565b925050819055505050505050505050565b60086020528060005260406000206000915090505481565b60076020528060005260406000206000915090508060000154908060020154908060030154908060040160009054906101000a900460ff16908060040160019054906101000a900460ff16908060040160029054906101000a900460ff16908060040160039054906101000a900460ff16908060050154905088565b600a602052816000526040600020818154811061191d57600080fd5b90600052602060002001600091509150505481565b600060029054906101000a900473ffffffffffffffffffffffffffffffffffffffff1673ffffffffffffffffffffffffffffffffffffffff163373ffffffffffffffffffffffffffffffffffffffff16146119c2576040517f08c379a00000000000000000000000000000000000000000000000000000000081526004016119b9906159b6565b60405180910390fd5b6119f181600060029054906101000a900473ffffffffffffffffffffffffffffffffffffffff16600254613d73565b600060028190555050565b60066020528060005260406000206000915090508060000154908060010160009054906101000a900473ffffffffffffffffffffffffffffffffffffffff16908060020160009054906101000a900473ffffffffffffffffffffffffffffffffffffffff1690806003015490806004018054611a77906150d0565b80601f0160208091040260200160405190810160405280929190818152602001828054611aa3906150d0565b8015611af05780601f10611ac557610100808354040283529160200191611af0565b820191906000526020600020905b815481529060010190602001808311611ad357829003601f168201915b505050505090806005018054611b05906150d0565b80601f0160208091040260200160405190810160405280929190818152602001828054611b31906150d0565b8015611b7e5780601f10611b5357610100808354040283529160200191611b7e565b820191906000526020600020905b815481529060010190602001808311611b6157829003601f168201915b5050505050908060060154908060070160009054906101000a900460ff169080600a0160009054906101000a900460ff169080600a0160019054906101000a900460ff1690508a565b611bd0816139c9565b611bd981613a70565b611be4816001613ab8565b60026005600083815260200190815260200160002060060160006101000a81548160ff02191690836007811115611c1e57611c1d6145a5565b5b02179055506005600082815260200190815260200160002060020160009054906101000a900473ffffffffffffffffffffffffffffffffffffffff1673ffffffffffffffffffffffffffffffffffffffff166005600083815260200190815260200160002060010160009054906101000a900473ffffffffffffffffffffffffffffffffffffffff1673ffffffffffffffffffffffffffffffffffffffff16827f6774e7512d62e65e414b9cc15969c36e32d465194057d4632ffd958e5182147160405160405180910390a450565b611cf681613ebb565b611cff81613a70565b611d0a816002613ab8565b60006005600083815260200190815260200160002060030154905060006064600283611d3691906159d6565b611d409190615a47565b905060008183611d509190615a78565b905081600254611d609190615208565b600281905550611da784826005600088815260200190815260200160002060020160009054906101000a900473ffffffffffffffffffffffffffffffffffffffff16613f62565b60036005600086815260200190815260200160002060060160006101000a81548160ff02191690836007811115611de157611de06145a5565b5b02179055506005600085815260200190815260200160002060020160009054906101000a900473ffffffffffffffffffffffffffffffffffffffff1673ffffffffffffffffffffffffffffffffffffffff166005600086815260200190815260200160002060010160009054906101000a900473ffffffffffffffffffffffffffffffffffffffff1673ffffffffffffffffffffffffffffffffffffffff16857f94e224b06102dbac09bbe25b9727b78a711606f76142988ac62cec156098062760405160405180910390a450505050565b60015481565b6000600960008373ffffffffffffffffffffffffffffffffffffffff1673ffffffffffffffffffffffffffffffffffffffff16815260200190815260200160002060009054906101000a900460ff169050919050565b60008060019054906101000a900460ff16159050808015611f405750600160008054906101000a900460ff1660ff16105b80611f6d5750611f4f30613fe1565b158015611f6c5750600160008054906101000a900460ff1660ff16145b5b611fac576040517f08c379a0000000000000000000000000000000000000000000000000000000008152600401611fa390615b1e565b60405180910390fd5b60016000806101000a81548160ff021916908360ff1602179055508015611fe9576001600060016101000a81548160ff0219169083151502179055505b33600060026101000a81548173ffffffffffffffffffffffffffffffffffffffff021916908373ffffffffffffffffffffffffffffffffffffffff16021790555080156120835760008060016101000a81548160ff0219169083151502179055507f7f26b83ff96e1f2b6a682f133852f6798a09c465da95921460cefb3847402498600160405161207a9190615b86565b60405180910390a15b50565b600060029054906101000a900473ffffffffffffffffffffffffffffffffffffffff1681565b6120b581613ebb565b6120be81613a70565b6120c9816000613ab8565b60076005600083815260200190815260200160002060060160006101000a81548160ff02191690836007811115612103576121026145a5565b5b021790555061215f8160056000848152602001908152602001600020600301546005600085815260200190815260200160002060010160009054906101000a900473ffffffffffffffffffffffffffffffffffffffff16613f62565b50565b61216b816139c9565b61217481613a70565b61217f816000613ab8565b60016005600083815260200190815260200160002060060160006101000a81548160ff021916908360078111156121b9576121b86145a5565b5b02179055506005600082815260200190815260200160002060020160009054906101000a900473ffffffffffffffffffffffffffffffffffffffff1673ffffffffffffffffffffffffffffffffffffffff166005600083815260200190815260200160002060010160009054906101000a900473ffffffffffffffffffffffffffffffffffffffff1673ffffffffffffffffffffffffffffffffffffffff16827f4e5adb6e5811e4671a3b0bdaceb025ec957432fc5562c7caefc0442dd9270ff260405160405180910390a450565b600060029054906101000a900473ffffffffffffffffffffffffffffffffffffffff1673ffffffffffffffffffffffffffffffffffffffff163373ffffffffffffffffffffffffffffffffffffffff1614612318576040517f08c379a000000000000000000000000000000000000000000000000000000000815260040161230f906159b6565b60405180910390fd5b80600060026101000a81548173ffffffffffffffffffffffffffffffffffffffff021916908373ffffffffffffffffffffffffffffffffffffffff16021790555050565b600060018111156123705761236f6145a5565b5b6006600083815260200190815260200160002060070160009054906101000a900460ff1660018111156123a6576123a56145a5565b5b146123e6576040517f08c379a00000000000000000000000000000000000000000000000000000000081526004016123dd906151b9565b60405180910390fd5b6123ef81613b45565b60006006600083815260200190815260200160002060000154905061241381613a70565b61241e816005613ab8565b60076005600083815260200190815260200160002060060160006101000a81548160ff02191690836007811115612458576124576145a5565b5b02179055506000600560008381526020019081526020016000206003015490506000606460028361248991906159d6565b6124939190615a47565b9050600081836124a39190615a78565b905060006006600087815260200190815260200160002060030154826124c99190615a78565b90506124ec85600660008981526020019081526020016000206003015433613f62565b60008111156125a557600060066000888152602001908152602001600020600a0160009054906101000a900460ff161561255e576005600087815260200190815260200160002060010160009054906101000a900473ffffffffffffffffffffffffffffffffffffffff169050612598565b6005600087815260200190815260200160002060020160009054906101000a900473ffffffffffffffffffffffffffffffffffffffff1690505b6125a3868383613f62565b505b826002546125b39190615208565b6002819055506005600086815260200190815260200160002060020160009054906101000a900473ffffffffffffffffffffffffffffffffffffffff1673ffffffffffffffffffffffffffffffffffffffff166005600087815260200190815260200160002060010160009054906101000a900473ffffffffffffffffffffffffffffffffffffffff1673ffffffffffffffffffffffffffffffffffffffff16867f683bc5c048db63a19aca077ebaf602240dbaec371f0bc19856f49fc6c004e38d60405160405180910390a4505050505050565b600080600090505b6007600084815260200190815260200160002060010180549050811015612753573373ffffffffffffffffffffffffffffffffffffffff166007600085815260200190815260200160002060010182815481106126f0576126ef615ba1565b5b9060005260206000200160009054906101000a900473ffffffffffffffffffffffffffffffffffffffff1673ffffffffffffffffffffffffffffffffffffffff1603612740576001915050612759565b808061274b90615bd0565b915050612690565b50600090505b919050565b60096020528060005260406000206000915054906101000a900460ff1681565b60025481565b600060029054906101000a900473ffffffffffffffffffffffffffffffffffffffff1673ffffffffffffffffffffffffffffffffffffffff163373ffffffffffffffffffffffffffffffffffffffff1614612814576040517f08c379a000000000000000000000000000000000000000000000000000000000815260040161280b906159b6565b60405180910390fd5b600354811115612859576040517f08c379a00000000000000000000000000000000000000000000000000000000081526004016128509061514d565b60405180910390fd5b600060066000838152602001908152602001600020600601549050600060066000848152602001908152602001600020600001549050600060056000838152602001908152602001600020600301549050600060066000868152602001908152602001600020600301549050600060646002846128d691906159d6565b6128e09190615a47565b905060006064600a856128f391906159d6565b6128fd9190615a47565b90506000818361290d9190615208565b856129189190615a78565b9050600084826129289190615a78565b905060006002836129399190615a47565b90504262015180600760008c8152602001908152602001600020600501546129619190615208565b11156129a2576040517f08c379a000000000000000000000000000000000000000000000000000000000815260040161299990615c64565b60405180910390fd5b600760008a815260200190815260200160002060030154600760008b81526020019081526020016000206002015403612c1657600760008a815260200190815260200160002060040160039054906101000a900460ff16612a4c5742600760008b8152602001908152602001600020600501819055506001600760008b815260200190815260200160002060040160036101000a81548160ff021916908315150217905550612c11565b84600254612a5a9190615208565b6002819055506001600760008b815260200190815260200160002060040160026101000a81548160ff021916908315150217905550612ad08882600660008e815260200190815260200160002060010160009054906101000a900473ffffffffffffffffffffffffffffffffffffffff16613f62565b612b118882600660008e815260200190815260200160002060020160009054906101000a900473ffffffffffffffffffffffffffffffffffffffff16613f62565b612c10600760008b8152602001908152602001600020600101805480602002602001604051908101604052809291908181526020018280548015612baa57602002820191906000526020600020905b8160009054906101000a900473ffffffffffffffffffffffffffffffffffffffff1673ffffffffffffffffffffffffffffffffffffffff1681526020019060010190808311612b60575b505050505085600560008c815260200190815260200160002060060160019054906101000a900460ff16600560008d815260200190815260200160002060060160029054906101000a900473ffffffffffffffffffffffffffffffffffffffff16614004565b5b612ec4565b600760008a815260200190815260200160002060030154600760008b8152602001908152602001600020600201541115612d0a576001600760008b815260200190815260200160002060040160006101000a81548160ff021916908315150217905550612cba8887600660008e815260200190815260200160002060010160009054906101000a900473ffffffffffffffffffffffffffffffffffffffff16613f62565b6000861115612d0557612d048883600660008e815260200190815260200160002060020160009054906101000a900473ffffffffffffffffffffffffffffffffffffffff16613f62565b5b612db0565b600760008a815260200190815260200160002060030154600760008b8152602001908152602001600020600201541015612daf576001600760008b815260200190815260200160002060040160016101000a81548160ff021916908315150217905550612dae8884600660008e815260200190815260200160002060020160009054906101000a900473ffffffffffffffffffffffffffffffffffffffff16613f62565b5b5b84600254612dbe9190615208565b600281905550612ec3600760008b8152602001908152602001600020600101805480602002602001604051908101604052809291908181526020018280548015612e5d57602002820191906000526020600020905b8160009054906101000a900473ffffffffffffffffffffffffffffffffffffffff1673ffffffffffffffffffffffffffffffffffffffff1681526020019060010190808311612e13575b505050505085600560008c815260200190815260200160002060060160019054906101000a900460ff16600560008d815260200190815260200160002060060160029054906101000a900473ffffffffffffffffffffffffffffffffffffffff16614004565b5b6007600560008a815260200190815260200160002060060160006101000a81548160ff02191690836007811115612efe57612efd6145a5565b5b021790555050505050505050505050565b606080600660008481526020019081526020016000206008016006600085815260200190815260200160002060090181805480602002602001604051908101604052809291908181526020016000905b8282101561300b578382906000526020600020018054612f7e906150d0565b80601f0160208091040260200160405190810160405280929190818152602001828054612faa906150d0565b8015612ff75780601f10612fcc57610100808354040283529160200191612ff7565b820191906000526020600020905b815481529060010190602001808311612fda57829003601f168201915b505050505081526020019060010190612f5f565b50505050915080805480602002602001604051908101604052809291908181526020016000905b828210156130de578382906000526020600020018054613051906150d0565b80601f016020809104026020016040519081016040528092919081815260200182805461307d906150d0565b80156130ca5780601f1061309f576101008083540402835291602001916130ca565b820191906000526020600020905b8154815290600101906020018083116130ad57829003601f168201915b505050505081526020019060010190613032565b50505050905091509150915091565b60035481565b600060029054906101000a900473ffffffffffffffffffffffffffffffffffffffff1673ffffffffffffffffffffffffffffffffffffffff163373ffffffffffffffffffffffffffffffffffffffff1614613183576040517f08c379a000000000000000000000000000000000000000000000000000000000815260040161317a906159b6565b60405180910390fd5b60005b8151811015613214576001600960008484815181106131a8576131a7615ba1565b5b602002602001015173ffffffffffffffffffffffffffffffffffffffff1673ffffffffffffffffffffffffffffffffffffffff16815260200190815260200160002060006101000a81548160ff021916908315150217905550808061320c90615bd0565b915050613186565b5050565b60045481565b3373ffffffffffffffffffffffffffffffffffffffff166005600085815260200190815260200160002060020160009054906101000a900473ffffffffffffffffffffffffffffffffffffffff1673ffffffffffffffffffffffffffffffffffffffff1614806132ef57503373ffffffffffffffffffffffffffffffffffffffff166005600085815260200190815260200160002060010160009054906101000a900473ffffffffffffffffffffffffffffffffffffffff1673ffffffffffffffffffffffffffffffffffffffff16145b61332e576040517f08c379a000000000000000000000000000000000000000000000000000000000815260040161332590615cd0565b60405180910390fd5b61333783613a70565b6001600781111561334b5761334a6145a5565b5b6005600085815260200190815260200160002060060160009054906101000a900460ff166007811115613381576133806145a5565b5b14806133d457506002600781111561339c5761339b6145a5565b5b6005600085815260200190815260200160002060060160009054906101000a900460ff1660078111156133d2576133d16145a5565b5b145b613413576040517f08c379a000000000000000000000000000000000000000000000000000000000815260040161340a90615d3c565b60405180910390fd5b600580600085815260200190815260200160002060060160006101000a81548160ff0219169083600781111561344c5761344b6145a5565b5b021790555060608061345c6142d1565b6005600087815260200190815260200160002060020160009054906101000a900473ffffffffffffffffffffffffffffffffffffffff1673ffffffffffffffffffffffffffffffffffffffff163373ffffffffffffffffffffffffffffffffffffffff16036135e0576040518061018001604052808781526020016005600089815260200190815260200160002060010160009054906101000a900473ffffffffffffffffffffffffffffffffffffffff1673ffffffffffffffffffffffffffffffffffffffff1681526020016005600089815260200190815260200160002060020160009054906101000a900473ffffffffffffffffffffffffffffffffffffffff1673ffffffffffffffffffffffffffffffffffffffff1681526020018681526020016040518060200160405280600081525081526020018581526020016004548152602001600060018111156135b8576135b76145a5565b5b81526020018381526020018481526020016001151581526020016000151581525090506136f7565b6040518061018001604052808781526020016005600089815260200190815260200160002060010160009054906101000a900473ffffffffffffffffffffffffffffffffffffffff1673ffffffffffffffffffffffffffffffffffffffff1681526020016005600089815260200190815260200160002060020160009054906101000a900473ffffffffffffffffffffffffffffffffffffffff1673ffffffffffffffffffffffffffffffffffffffff1681526020018681526020018581526020016040518060200160405280600081525081526020016004548152602001600060018111156136d3576136d26145a5565b5b81526020018381526020018481526020016000151581526020016000151581525090505b806006600060035481526020019081526020016000206000820151816000015560208201518160010160006101000a81548173ffffffffffffffffffffffffffffffffffffffff021916908373ffffffffffffffffffffffffffffffffffffffff16021790555060408201518160020160006101000a81548173ffffffffffffffffffffffffffffffffffffffff021916908373ffffffffffffffffffffffffffffffffffffffff1602179055506060820151816003015560808201518160040190816137c49190615898565b5060a08201518160050190816137da9190615898565b5060c0820151816006015560e08201518160070160006101000a81548160ff021916908360018111156138105761380f6145a5565b5b0217905550610100820151816008019080519060200190613832929190614374565b50610120820151816009019080519060200190613850929190614374565b5061014082015181600a0160006101000a81548160ff02191690831515021790555061016082015181600a0160016101000a81548160ff0219169083151502179055509050506001600360008282546138a99190615208565b92505081905550505050505050565b600060029054906101000a900473ffffffffffffffffffffffffffffffffffffffff1673ffffffffffffffffffffffffffffffffffffffff163373ffffffffffffffffffffffffffffffffffffffff1614613948576040517f08c379a000000000000000000000000000000000000000000000000000000000815260040161393f906159b6565b60405180910390fd5b613976600060029054906101000a900473ffffffffffffffffffffffffffffffffffffffff16600254614153565b6000600281905550565b6000600860008373ffffffffffffffffffffffffffffffffffffffff1673ffffffffffffffffffffffffffffffffffffffff168152602001908152602001600020549050919050565b3373ffffffffffffffffffffffffffffffffffffffff166005600083815260200190815260200160002060020160009054906101000a900473ffffffffffffffffffffffffffffffffffffffff1673ffffffffffffffffffffffffffffffffffffffff1614613a6d576040517f08c379a0000000000000000000000000000000000000000000000000000000008152600401613a6490615da8565b60405180910390fd5b50565b600154811115613ab5576040517f08c379a0000000000000000000000000000000000000000000000000000000008152600401613aac90615e14565b60405180910390fd5b50565b806007811115613acb57613aca6145a5565b5b6005600084815260200190815260200160002060060160009054906101000a900460ff166007811115613b0157613b006145a5565b5b14613b41576040517f08c379a0000000000000000000000000000000000000000000000000000000008152600401613b3890615d3c565b60405180910390fd5b5050565b3373ffffffffffffffffffffffffffffffffffffffff166006600083815260200190815260200160002060020160009054906101000a900473ffffffffffffffffffffffffffffffffffffffff1673ffffffffffffffffffffffffffffffffffffffff161480613c1657503373ffffffffffffffffffffffffffffffffffffffff166006600083815260200190815260200160002060010160009054906101000a900473ffffffffffffffffffffffffffffffffffffffff1673ffffffffffffffffffffffffffffffffffffffff16145b613c55576040517f08c379a0000000000000000000000000000000000000000000000000000000008152600401613c4c90615cd0565b60405180910390fd5b50565b613c6183613b45565b6006600084815260200190815260200160002060020160009054906101000a900473ffffffffffffffffffffffffffffffffffffffff1673ffffffffffffffffffffffffffffffffffffffff163373ffffffffffffffffffffffffffffffffffffffff1603613d1e5780600660008581526020019081526020016000206009019080519060200190613cf4929190614374565b5081600660008581526020019081526020016000206005019081613d189190615898565b50613d6e565b80600660008581526020019081526020016000206008019080519060200190613d48929190614374565b5081600660008581526020019081526020016000206004019081613d6c9190615898565b505b505050565b60008390508073ffffffffffffffffffffffffffffffffffffffff166370a08231306040518263ffffffff1660e01b8152600401613db19190614dc8565b602060405180830381865afa158015613dce573d6000803e3d6000fd5b505050506040513d601f19601f82011682018060405250810190613df29190615502565b821115613e34576040517f08c379a0000000000000000000000000000000000000000000000000000000008152600401613e2b90615e80565b60405180910390fd5b8073ffffffffffffffffffffffffffffffffffffffff166323b872dd3085856040518463ffffffff1660e01b8152600401613e7193929190615607565b6020604051808303816000875af1158015613e90573d6000803e3d6000fd5b505050506040513d601f19601f82011682018060405250810190613eb49190615653565b5050505050565b3373ffffffffffffffffffffffffffffffffffffffff166005600083815260200190815260200160002060010160009054906101000a900473ffffffffffffffffffffffffffffffffffffffff1673ffffffffffffffffffffffffffffffffffffffff1614613f5f576040517f08c379a0000000000000000000000000000000000000000000000000000000008152600401613f5690615eec565b60405180910390fd5b50565b6005600084815260200190815260200160002060060160019054906101000a900460ff1615613fd157613fcc6005600085815260200190815260200160002060060160029054906101000a900473ffffffffffffffffffffffffffffffffffffffff168284613d73565b613fdc565b613fdb8183614153565b5b505050565b6000808273ffffffffffffffffffffffffffffffffffffffff163b119050919050565b600060029054906101000a900473ffffffffffffffffffffffffffffffffffffffff1673ffffffffffffffffffffffffffffffffffffffff163373ffffffffffffffffffffffffffffffffffffffff1614614094576040517f08c379a000000000000000000000000000000000000000000000000000000000815260040161408b906159b6565b60405180910390fd5b6000600a846140a39190615a47565b905082156140fe5760005b85518110156140f857600a8103156140f8576140e5838783815181106140d7576140d6615ba1565b5b602002602001015184613d73565b80806140f090615bd0565b9150506140ae565b5061414c565b60005b855181101561414a57600a81031561414a5761413786828151811061412957614128615ba1565b5b602002602001015183614153565b808061414290615bd0565b915050614101565b505b5050505050565b47811115614196576040517f08c379a000000000000000000000000000000000000000000000000000000000815260040161418d90615e80565b60405180910390fd5b60008273ffffffffffffffffffffffffffffffffffffffff16826040516141bc90615f3d565b60006040518083038185875af1925050503d80600081146141f9576040519150601f19603f3d011682016040523d82523d6000602084013e6141fe565b606091505b5050905080614242576040517f08c379a000000000000000000000000000000000000000000000000000000000815260040161423990615f9e565b60405180910390fd5b505050565b8280548282559060005260206000209081019282156142c0579160200282015b828111156142bf5782518260006101000a81548173ffffffffffffffffffffffffffffffffffffffff021916908373ffffffffffffffffffffffffffffffffffffffff16021790555091602001919060010190614267565b5b5090506142cd91906143cd565b5090565b60405180610180016040528060008152602001600073ffffffffffffffffffffffffffffffffffffffff168152602001600073ffffffffffffffffffffffffffffffffffffffff168152602001600081526020016060815260200160608152602001600081526020016000600181111561434e5761434d6145a5565b5b815260200160608152602001606081526020016000151581526020016000151581525090565b8280548282559060005260206000209081019282156143bc579160200282015b828111156143bb5782518290816143ab9190615898565b5091602001919060010190614394565b5b5090506143c991906143ea565b5090565b5b808211156143e65760008160009055506001016143ce565b5090565b5b8082111561440a5760008181614401919061440e565b506001016143eb565b5090565b50805461441a906150d0565b6000825580601f1061442c575061444b565b601f01602090049060005260206000209081019061444a91906143cd565b5b50565b6000604051905090565b600080fd5b600080fd5b6000819050919050565b61447581614462565b811461448057600080fd5b50565b6000813590506144928161446c565b92915050565b6000602082840312156144ae576144ad614458565b5b60006144bc84828501614483565b91505092915050565b6144ce81614462565b82525050565b600073ffffffffffffffffffffffffffffffffffffffff82169050919050565b60006144ff826144d4565b9050919050565b61450f816144f4565b82525050565b600081519050919050565b600082825260208201905092915050565b60005b8381101561454f578082015181840152602081019050614534565b60008484015250505050565b6000601f19601f8301169050919050565b600061457782614515565b6145818185614520565b9350614591818560208601614531565b61459a8161455b565b840191505092915050565b7f4e487b7100000000000000000000000000000000000000000000000000000000600052602160045260246000fd5b600881106145e5576145e46145a5565b5b50565b60008190506145f6826145d4565b919050565b6000614606826145e8565b9050919050565b614616816145fb565b82525050565b60008115159050919050565b6146318161461c565b82525050565b60006101208201905061464d600083018c6144c5565b61465a602083018b614506565b614667604083018a614506565b61467460608301896144c5565b8181036080830152614686818861456c565b905081810360a083015261469a818761456c565b90506146a960c083018661460d565b6146b660e0830185614628565b6146c4610100830184614506565b9a9950505050505050505050565b600080fd5b600080fd5b7f4e487b7100000000000000000000000000000000000000000000000000000000600052604160045260246000fd5b6147148261455b565b810181811067ffffffffffffffff82111715614733576147326146dc565b5b80604052505050565b600061474661444e565b9050614752828261470b565b919050565b600067ffffffffffffffff821115614772576147716146dc565b5b61477b8261455b565b9050602081019050919050565b82818337600083830152505050565b60006147aa6147a584614757565b61473c565b9050828152602081018484840111156147c6576147c56146d7565b5b6147d1848285614788565b509392505050565b600082601f8301126147ee576147ed6146d2565b5b81356147fe848260208601614797565b91505092915050565b600067ffffffffffffffff821115614822576148216146dc565b5b602082029050602081019050919050565b600080fd5b600061484b61484684614807565b61473c565b9050808382526020820190506020840283018581111561486e5761486d614833565b5b835b818110156148b557803567ffffffffffffffff811115614893576148926146d2565b5b8086016148a089826147d9565b85526020850194505050602081019050614870565b5050509392505050565b600082601f8301126148d4576148d36146d2565b5b81356148e4848260208601614838565b91505092915050565b60008060006060848603121561490657614905614458565b5b600061491486828701614483565b935050602084013567ffffffffffffffff8111156149355761493461445d565b5b614941868287016147d9565b925050604084013567ffffffffffffffff8111156149625761496161445d565b5b61496e868287016148bf565b9150509250925092565b6000806040838503121561498f5761498e614458565b5b600061499d85828601614483565b92505060206149ae85828601614483565b9150509250929050565b6149c1816144f4565b81146149cc57600080fd5b50565b6000813590506149de816149b8565b92915050565b6000602082840312156149fa576149f9614458565b5b6000614a08848285016149cf565b91505092915050565b600081519050919050565b600082825260208201905092915050565b6000819050602082019050919050565b614a4681614462565b82525050565b6000614a588383614a3d565b60208301905092915050565b6000602082019050919050565b6000614a7c82614a11565b614a868185614a1c565b9350614a9183614a2d565b8060005b83811015614ac2578151614aa98882614a4c565b9750614ab483614a64565b925050600181019050614a95565b5085935050505092915050565b60006020820190508181036000830152614ae98184614a71565b905092915050565b614afa8161461c565b8114614b0557600080fd5b50565b600081359050614b1781614af1565b92915050565b60008060008060008060c08789031215614b3a57614b39614458565b5b6000614b4889828a016149cf565b9650506020614b5989828a01614483565b955050604087013567ffffffffffffffff811115614b7a57614b7961445d565b5b614b8689828a016147d9565b945050606087013567ffffffffffffffff811115614ba757614ba661445d565b5b614bb389828a016147d9565b9350506080614bc489828a01614b08565b92505060a0614bd589828a016149cf565b9150509295509295509295565b6000602082019050614bf760008301846144c5565b92915050565b600061010082019050614c13600083018b6144c5565b614c20602083018a6144c5565b614c2d60408301896144c5565b614c3a6060830188614628565b614c476080830187614628565b614c5460a0830186614628565b614c6160c0830185614628565b614c6e60e08301846144c5565b9998505050505050505050565b60008060408385031215614c9257614c91614458565b5b6000614ca0858286016149cf565b9250506020614cb185828601614483565b9150509250929050565b60028110614ccc57614ccb6145a5565b5b50565b6000819050614cdd82614cbb565b919050565b6000614ced82614ccf565b9050919050565b614cfd81614ce2565b82525050565b600061014082019050614d19600083018d6144c5565b614d26602083018c614506565b614d33604083018b614506565b614d40606083018a6144c5565b8181036080830152614d52818961456c565b905081810360a0830152614d66818861456c565b9050614d7560c08301876144c5565b614d8260e0830186614cf4565b614d90610100830185614628565b614d9e610120830184614628565b9b9a5050505050505050505050565b6000602082019050614dc26000830184614628565b92915050565b6000602082019050614ddd6000830184614506565b92915050565b600081519050919050565b600082825260208201905092915050565b6000819050602082019050919050565b600082825260208201905092915050565b6000614e2b82614515565b614e358185614e0f565b9350614e45818560208601614531565b614e4e8161455b565b840191505092915050565b6000614e658383614e20565b905092915050565b6000602082019050919050565b6000614e8582614de3565b614e8f8185614dee565b935083602082028501614ea185614dff565b8060005b85811015614edd5784840389528151614ebe8582614e59565b9450614ec983614e6d565b925060208a01995050600181019050614ea5565b50829750879550505050505092915050565b60006040820190508181036000830152614f098185614e7a565b90508181036020830152614f1d8184614e7a565b90509392505050565b600067ffffffffffffffff821115614f4157614f406146dc565b5b602082029050602081019050919050565b6000614f65614f6084614f26565b61473c565b90508083825260208201905060208402830185811115614f8857614f87614833565b5b835b81811015614fb15780614f9d88826149cf565b845260208401935050602081019050614f8a565b5050509392505050565b600082601f830112614fd057614fcf6146d2565b5b8135614fe0848260208601614f52565b91505092915050565b600060208284031215614fff57614ffe614458565b5b600082013567ffffffffffffffff81111561501d5761501c61445d565b5b61502984828501614fbb565b91505092915050565b60008060006060848603121561504b5761504a614458565b5b600061505986828701614483565b935050602061506a86828701614483565b925050604084013567ffffffffffffffff81111561508b5761508a61445d565b5b615097868287016147d9565b9150509250925092565b7f4e487b7100000000000000000000000000000000000000000000000000000000600052602260045260246000fd5b600060028204905060018216806150e857607f821691505b6020821081036150fb576150fa6150a1565b5b50919050565b7f444e450000000000000000000000000000000000000000000000000000000000600082015250565b6000615137600383614520565b915061514282615101565b602082019050919050565b600060208201905081810360008301526151668161512a565b9050919050565b7f4e6f742063726561746564000000000000000000000000000000000000000000600082015250565b60006151a3600b83614520565b91506151ae8261516d565b602082019050919050565b600060208201905081810360008301526151d281615196565b9050919050565b7f4e487b7100000000000000000000000000000000000000000000000000000000600052601160045260246000fd5b600061521382614462565b915061521e83614462565b9250828201905080821115615236576152356151d9565b5b92915050565b7f564e450000000000000000000000000000000000000000000000000000000000600082015250565b6000615272600383614520565b915061527d8261523c565b602082019050919050565b600060208201905081810360008301526152a181615265565b9050919050565b7f416c726561647920766f74656400000000000000000000000000000000000000600082015250565b60006152de600d83614520565b91506152e9826152a8565b602082019050919050565b6000602082019050818103600083015261530d816152d1565b9050919050565b7f54696d6520657870697265640000000000000000000000000000000000000000600082015250565b600061534a600c83614520565b915061535582615314565b602082019050919050565b600060208201905081810360008301526153798161533d565b9050919050565b7f496e76616c696420616464726573730000000000000000000000000000000000600082015250565b60006153b6600f83614520565b91506153c182615380565b602082019050919050565b600060208201905081810360008301526153e5816153a9565b9050919050565b7f416d6f756e74203c203000000000000000000000000000000000000000000000600082015250565b6000615422600a83614520565b915061542d826153ec565b602082019050919050565b6000602082019050818103600083015261545181615415565b9050919050565b7f546f6b656e206e6f7420656e61626c6564000000000000000000000000000000600082015250565b600061548e601183614520565b915061549982615458565b602082019050919050565b600060208201905081810360008301526154bd81615481565b9050919050565b60006040820190506154d96000830185614506565b6154e66020830184614506565b9392505050565b6000815190506154fc8161446c565b92915050565b60006020828403121561551857615517614458565b5b6000615526848285016154ed565b91505092915050565b7f6c6f7720616c6c6f77616e636500000000000000000000000000000000000000600082015250565b6000615565600d83614520565b91506155708261552f565b602082019050919050565b6000602082019050818103600083015261559481615558565b9050919050565b7f6c6f772062616c616e6365000000000000000000000000000000000000000000600082015250565b60006155d1600b83614520565b91506155dc8261559b565b602082019050919050565b60006020820190508181036000830152615600816155c4565b9050919050565b600060608201905061561c6000830186614506565b6156296020830185614506565b61563660408301846144c5565b949350505050565b60008151905061564d81614af1565b92915050565b60006020828403121561566957615668614458565b5b60006156778482850161563e565b91505092915050565b7f6c6f772066756e64730000000000000000000000000000000000000000000000600082015250565b60006156b6600983614520565b91506156c182615680565b602082019050919050565b600060208201905081810360008301526156e5816156a9565b9050919050565b60008190508160005260206000209050919050565b60006020601f8301049050919050565b600082821b905092915050565b60006008830261574e7fffffffffffffffffffffffffffffffffffffffffffffffffffffffffffffffff82615711565b6157588683615711565b95508019841693508086168417925050509392505050565b6000819050919050565b600061579561579061578b84614462565b615770565b614462565b9050919050565b6000819050919050565b6157af8361577a565b6157c36157bb8261579c565b84845461571e565b825550505050565b600090565b6157d86157cb565b6157e38184846157a6565b505050565b5b81811015615807576157fc6000826157d0565b6001810190506157e9565b5050565b601f82111561584c5761581d816156ec565b61582684615701565b81016020851015615835578190505b61584961584185615701565b8301826157e8565b50505b505050565b600082821c905092915050565b600061586f60001984600802615851565b1980831691505092915050565b6000615888838361585e565b9150826002028217905092915050565b6158a182614515565b67ffffffffffffffff8111156158ba576158b96146dc565b5b6158c482546150d0565b6158cf82828561580b565b600060209050601f83116001811461590257600084156158f0578287015190505b6158fa858261587c565b865550615962565b601f198416615910866156ec565b60005b8281101561593857848901518255600182019150602085019450602081019050615913565b868310156159555784890151615951601f89168261585e565b8355505b6001600288020188555050505b505050505050565b7f6e6f7420617574686f72697a6564000000000000000000000000000000000000600082015250565b60006159a0600e83614520565b91506159ab8261596a565b602082019050919050565b600060208201905081810360008301526159cf81615993565b9050919050565b60006159e182614462565b91506159ec83614462565b92508282026159fa81614462565b91508282048414831517615a1157615a106151d9565b5b5092915050565b7f4e487b7100000000000000000000000000000000000000000000000000000000600052601260045260246000fd5b6000615a5282614462565b9150615a5d83614462565b925082615a6d57615a6c615a18565b5b828204905092915050565b6000615a8382614462565b9150615a8e83614462565b9250828203905081811115615aa657615aa56151d9565b5b92915050565b7f496e697469616c697a61626c653a20636f6e747261637420697320616c72656160008201527f647920696e697469616c697a6564000000000000000000000000000000000000602082015250565b6000615b08602e83614520565b9150615b1382615aac565b604082019050919050565b60006020820190508181036000830152615b3781615afb565b9050919050565b6000819050919050565b600060ff82169050919050565b6000615b70615b6b615b6684615b3e565b615770565b615b48565b9050919050565b615b8081615b55565b82525050565b6000602082019050615b9b6000830184615b77565b92915050565b7f4e487b7100000000000000000000000000000000000000000000000000000000600052603260045260246000fd5b6000615bdb82614462565b91507fffffffffffffffffffffffffffffffffffffffffffffffffffffffffffffffff8203615c0d57615c0c6151d9565b5b600182019050919050565b7f54696d652072656d61696e696e67000000000000000000000000000000000000600082015250565b6000615c4e600e83614520565b9150615c5982615c18565b602082019050919050565b60006020820190508181036000830152615c7d81615c41565b9050919050565b7f4e6f7420617574686f72697a6564000000000000000000000000000000000000600082015250565b6000615cba600e83614520565b9150615cc582615c84565b602082019050919050565b60006020820190508181036000830152615ce981615cad565b9050919050565b7f4e6f742061636365707465640000000000000000000000000000000000000000600082015250565b6000615d26600c83614520565b9150615d3182615cf0565b602082019050919050565b60006020820190508181036000830152615d5581615d19565b9050919050565b7f6e6f7420617574686f72697a65642041534e6565000000000000000000000000600082015250565b6000615d92601483614520565b9150615d9d82615d5c565b602082019050919050565b60006020820190508181036000830152615dc181615d85565b9050919050565b7f434e450000000000000000000000000000000000000000000000000000000000600082015250565b6000615dfe600383614520565b9150615e0982615dc8565b602082019050919050565b60006020820190508181036000830152615e2d81615df1565b9050919050565b7f4e6f2046756e6473000000000000000000000000000000000000000000000000600082015250565b6000615e6a600883614520565b9150615e7582615e34565b602082019050919050565b60006020820190508181036000830152615e9981615e5d565b9050919050565b7f6e6f7420617574686f72697a65642041534e6572000000000000000000000000600082015250565b6000615ed6601483614520565b9150615ee182615ea0565b602082019050919050565b60006020820190508181036000830152615f0581615ec9565b9050919050565b600081905092915050565b50565b6000615f27600083615f0c565b9150615f3282615f17565b600082019050919050565b6000615f4882615f1a565b9150819050919050565b7f416d6f756e74206e6f742073656e740000000000000000000000000000000000600082015250565b6000615f88600f83614520565b9150615f9382615f52565b602082019050919050565b60006020820190508181036000830152615fb781615f7b565b905091905056fea2646970667358221220b4dfa2e6eca5779b8407a71681a1025b3c603211a6615c3fc1173f5c8115733c64736f6c63430008110033",
	"linkReferences": {},
	"deployedLinkReferences": {}
}